:100000000C9428010C9459010C9459010C94590139
:100010000C9459010C9459010C9459010C945901F8
:100020000C9459010C9459010C9459010C945901E8
:100030000C9459010C9459010C9459010C945901D8
:100040000C9459010C9459010C9459010C945901C8
:100050000C9459010C9459010C9459010C94AA0365
:100060000C9459010C941E040C94F4030C94590143
:100070000C9459010C9459010C9459010C94590198
:100080000C9459010C9459010C9459010C94590188
:100090000C9459010C9459010C9459010C94590178
:1000A0000C9459010C9459010C9459010C94590168
:1000B0000C9459010C9459010C9459010C94590158
:1000C0000C9459010C9459010C9459010C94590148
:1000D0000C9459010C9459010C9459010C94590138
:1000E0000C9459010C9407020C94DE020C94E40267
:1000F0000C94B5020C948C010C94C8020C94C202AE
:100100000C94D6020C94BE020C94AD020C94D00256
:100110000C9492020C946A010C94A9020C94E802CB
:100120000C9497020C94DA020C94CC020C947E018D
:100130000C9454040C945B010C94BA010C94B1021D
:100140000C94B8020C941F03000021002400270027
:100150002A002D00300033000101000004010701D6
:100160000A0100002200250028002B002E0031008B
:10017000340002010000050108010B010505050519
:10018000070508080808020202020A0A080804040F
:10019000040401010101010101010303030303033D
:1001A0000303040707070C0C0C0C0C0C0C0C0202CC
:1001B000020206060606060606060B0B0B0B0B0BC9
:1001C0000B0B010210202008081020401020408056
:1001D000020102010804020101020408102040800B
:1001E0008040201008040201800402018040201099
:1001F00008040201080402010102040810204080E2
:10020000010204081020408000000A0B02090C0DB6
:100210000E080703040100000000000000000000B9
:1002200000000000000000000000000000000000CE
:10023000000000001211100000000000000000008B
:100240000000000000000000000000000000540456
:1002500011241FBECFEFD1E2DEBFCDBF00E00CBF47
:1002600012E0A0E0B2E0EEE4FEE000E00BBF02C06E
:1002700007900D92A832B107D9F723E0A8E2B2E0C7
:1002800001C01D92A632B207E1F711E0C8E2D1E049
:1002900000E006C021970109802FFE010E941D0782
:1002A000C732D10780E00807A9F70E9427050C9400
:1002B00025070C940000FC01538D448D252F30E060
:1002C000842F90E0821B930B541710F0CF96089563
:1002D00001970895FC01918D828D981761F0A28D90
:1002E000AE0FBF2FB11D5D968C91928D9F5F9F7356
:1002F000928F90E008958FEF9FEF0895FC01918D0C
:10030000828D981731F0828DE80FF11D858D90E078
:1003100008958FEF9FEF0895FC01918D228D892F15
:1003200090E0805C9F4F821B91098F7399270895FD
:10033000FC01A48DA80FB92FB11DA35ABF4F2C915A
:10034000848D90E001968F739927848FA689B78951
:100350002C93A089B1898C91837080648C93938D48
:10036000848D981306C00288F389E02D80818F7DEB
:1003700080830895EF92FF920F931F93CF93DF93A3
:10038000EC0181E0888F9B8D8C8D98131AC0E889D1
:10039000F989808185FF15C09FB7F894EE89FF89A0
:1003A0006083E889F98980818370806480839FBF3E
:1003B00081E090E0DF91CF911F910F91FF90EF903E
:1003C0000895F62E0B8D10E00F5F1F4F0F7311274E
:1003D000E02E8C8D8E110CC00FB607FCFACFE88989
:1003E000F989808185FFF5CFCE010E949801F1CF78
:1003F000EB8DEC0FFD2FF11DE35AFF4FF0829FB7FD
:10040000F8940B8FEA89FB8980818062CFCFCF93EC
:10041000DF93EC01888D8823B9F0AA89BB89E8892C
:10042000F9898C9185FD03C0808186FD0DC00FB6D2
:1004300007FCF7CF8C9185FFF2CF808185FFEDCF50
:10044000CE010E949801E9CFDF91CF91089581E319
:1004500092E00E948C0121E0892B09F420E0822F98
:10046000089580E090E0892B29F00E9427028111F5
:100470000E94000080E090E0892B49F080E090E04D
:10048000892B29F00E94000081110E94000080E069
:1004900090E0892B49F080E090E0892B29F00E94C0
:1004A000000081110E94000080E090E0892B49F05B
:1004B00080E090E0892B29F00E94000081110C94CB
:1004C00000000895282F30E0F901E85FFD4F949176
:1004D000F901EE53FE4F449124583E4FF901249107
:1004E000222309F435C0992311F191509231F8F487
:1004F000E92FF0E08827E058FD4F8F4F0C941D073F
:10050000B102B5029202A902AD029702B802BE0280
:10051000C202C802CC02D002D602DA029702DE0280
:10052000E402E802809180008F7780938000E22FC0
:10053000F0E0EE0FFF1FEE59FE4FA591B4918FB77B
:10054000F894EC91611148C040954E234C938FBFB5
:100550000895809180008F7DE8CF80918000877F13
:10056000E4CF84B58F7784BDE2CF84B58F7DFBCF98
:100570008091B0008F778093B000D9CF8091B00088
:100580008F7DF9CF809190008F7780939000CFCFAF
:10059000809190008F7DF9CF80919000877FF5CF7B
:1005A0008091A0008F778093A000C1CF8091A000A0
:1005B0008F7DF9CF8091A000877FF5CF80912001BA
:1005C0008F7780932001B3CF809120018F7DF9CF69
:1005D00080912001877FF5CF4E2BB8CFCF93DF934B
:1005E00090E0FC01EE53FE4F249184589E4FFC0195
:1005F00084918823D1F090E0880F991FFC01E85B7B
:10060000FE4FA591B491FC01EE59FE4FC591D491D6
:1006100061110EC09FB7F8948C91E22FE0958E2364
:100620008C932881E223E8839FBFDF91CF910895C7
:100630008FB7F894EC91E22BEC938FBFF6CFAF928B
:10064000BF92CF92DF92EF92FF920F931F93CF93BF
:10065000DF936C017B018B01040F151FEB015E0121
:10066000AE18BF08C017D10759F06991D601ED91B6
:10067000FC910190F081E02DC6011995892B79F745
:10068000C501DF91CF911F910F91FF90EF90DF9007
:10069000CF90BF90AF900895CF92DF92EF92FF92EC
:1006A0000F931F93CF93DF931F921F92CDB7DEB7A7
:1006B00069834A83880F991F0091240310912503B1
:1006C000000F111FEEECF2E09F012E5C324020176C
:1006D000310714F41192F8CF2981FC01E253FD4F48
:1006E00021838A81808360E0809122030E946202DC
:1006F0001016110604F501501109F801E253FD4FDF
:10070000E080D0902003C0901E0388E0F82E6E2D6C
:10071000661F6627661F8C2D0E946202EE0C61E048
:100720008D2D0E94620260E08D2D0E946202FA947B
:10073000F110EDCFDDCF61E0809122030F900F909B
:10074000DF91CF911F910F91FF90EF90DF90CF90AD
:100750000C9462021F920F920FB60F9211242F93E6
:100760003F938F939F93AF93BF9380912D0290916E
:100770002E02A0912F02B091300230912C0223E082
:10078000230F2D3758F50196A11DB11D20932C0282
:1007900080932D0290932E02A0932F02B0933002EB
:1007A0008091280290912902A0912A02B0912B02F7
:1007B0000196A11DB11D8093280290932902A09358
:1007C0002A02B0932B02BF91AF919F918F913F91DD
:1007D0002F910F900FBE0F901F90189526E8230FB2
:1007E0000296A11DB11DD2CF1F920F920FB60F928C
:1007F00011240BB60F922F933F934F935F936F93F8
:100800007F938F939F93AF93BF93EF93FF9381E376
:1008100092E00E949801FF91EF91BF91AF919F915B
:100820008F917F916F915F914F913F912F910F9099
:100830000BBE0F900FBE0F901F9018951F920F9236
:100840000FB60F9211240BB60F922F938F939F9395
:10085000EF93FF93E0914102F09142028081E09199
:100860004702F091480282FD1DC0908180914A02AA
:100870008F5F8F7320914B02821741F0E0914A0203
:10088000F0E0EF5CFD4F958F80934A02FF91EF916E
:100890009F918F912F910F900BBE0F900FBE0F90D5
:1008A0001F9018958081F2CFEF92FF921F93CF9304
:1008B000DF93109234021092330288EE93E0A0E0AE
:1008C000B0E08093350290933602A0933702B09344
:1008D000380282E192E0909332028093310285ECFB
:1008E00090E090933E0280933D0284EC90E09093E0
:1008F000400280933F0280EC90E09093420280930C
:10090000410281EC90E0909344028093430282EC98
:1009100090E0909346028093450286EC90E090939D
:1009200048028093470210924A0210924B021092A2
:100930004C0210924D020E9462060E946206CDE0B7
:10094000D0E0D0931F03C0931E038BE090E0909300
:100950002103809320038CE090E090932303809305
:10096000220382E090E0909325038093240361E0CA
:100970008DE00E94EE0261E0809120030E94EE0271
:1009800061E0809122030E94EE0261E080912203E7
:100990000E946202D0931F03C0931E03EEEDF2E0AB
:1009A0008EE193E011928E179F07E1F7D0E0C0E04F
:1009B0008091240390912503C817D9070CF041C0FA
:1009C00040E06FE0CE010E944C038091240390919F
:1009D0002503C817D9072CF447E06BE0CE010E942D
:1009E0004C0340E069E0CE010E944C038091240357
:1009F00090912503C817D907B4F4CE0123E0880FDE
:100A0000991F2A95E1F79C0122523D4F790111E08F
:100A1000F70111927F0140E0612FCE010E944C034B
:100A20001F5F1930A9F78091240390912503C817FF
:100A3000D9072CF440E06CE0CE010E944C032196D3
:100A4000B7CFDF91CF911F91FF90EF900895CF9393
:100A5000DF9300D000D000D01F92CDB7DEB77894DE
:100A600084B5826084BD84B5816084BD85B58260B3
:100A700085BD85B5816085BD80916E008160809364
:100A80006E001092810080918100826080938100CD
:100A900080918100816080938100809180008160DD
:100AA000809380008091B10084608093B100809138
:100AB000B00081608093B00080919100826080934B
:100AC00091008091910081608093910080919000CD
:100AD0008160809390008091A10082608093A1004A
:100AE0008091A10081608093A1008091A00081602D
:100AF0008093A000809121018260809321018091E8
:100B00002101816080932101809120018160809387
:100B1000200180917A00846080937A0080917A002D
:100B2000826080937A0080917A00816080937A005D
:100B300080917A00806880937A001092C1008AE0E8
:100B4000E4E0F2E0DE01119601900D928A95E1F762
:100B50008E010F5F1F4F7E018BE0E80EF11CF80144
:100B600080810E5F1F4F60E00E94EE02E016F106EA
:100B7000B1F780912403909125031816190634F4D7
:100B800041E06CE090E080E00E944C0380912403FF
:100B900090912503029734F041E06CE081E090E011
:100BA0000E944C0380912403909125031816190686
:100BB00034F44FE06AE090E080E00E944C038091C2
:100BC000240390912503029734F04FE06AE081E01E
:100BD00090E00E944C0310E061E0812F0E94EE0241
:100BE0001F5F1830C9F71EE061E0812F0E94EE02FE
:100BF0001F5F1631C9F710E060E0812F0E9462028A
:100C00001F5F1830C9F71EE061E0812F0E94620269
:100C10001F5F1631C9F746E050E060E272E081E301
:100C200092E00E941F030E943102F5CF8F929F92A3
:100C3000AF92BF92CF92DF92EF92FF92CF93DF936A
:100C4000EC01688179818A819B816115710581053B
:100C5000910521F464E279ED8BE597E02DE133EF26
:100C600041E050E00E94BA0649015A019B01AC01E3
:100C7000A7EAB1E40E94D9066B017C01ACEEB4EFA7
:100C8000A50194010E94E706C60ED71EE81EF91EB4
:100C9000F7FE06C081E0C81AD108E10880E8F80A2A
:100CA000C882D982EA82FB82C701B6019F77DF91B1
:100CB000CF91FF90EF90DF90CF90BF90AF909F903B
:100CC0008F9008958F929F92AF92BF92CF92DF92B2
:100CD000EF92FF92609100027091010280910202F6
:100CE00090910302611571058105910521F464E27B
:100CF00079ED8BE597E02DE133EF41E050E00E9484
:100D0000BA0649015A019B01AC01A7EAB1E40E946D
:100D1000D9066B017C01ACEEB4EFA50194010E94F1
:100D2000E706C60ED71EE81EF91EF7FE06C081E0D4
:100D3000C81AD108E10880E8F80AC0920002D092EF
:100D40000102E0920202F0920302C701B6019F770E
:100D5000FF90EF90DF90CF90BF90AF909F908F90DB
:100D600008956093000270930102809302029093B1
:100D700003020895052E97FB1EF400940E94D106ED
:100D800057FD07D00E94EC0607FC03D04EF40C94EC
:100D9000D10650954095309521953F4F4F4F5F4F6D
:100DA000089590958095709561957F4F8F4F9F4FD7
:100DB00008950E940E07A59F900DB49F900DA49FCB
:100DC000800D911D11240895B7FF0C94D9060E943F
:100DD000D906821B930B0895A1E21A2EAA1BBB1BF6
:100DE000FD010DC0AA1FBB1FEE1FFF1FA217B307F7
:100DF000E407F50720F0A21BB30BE40BF50B661F0D
:100E0000771F881F991F1A9469F7609570958095D0
:100E100090959B01AC01BD01CF010895A29FB00147
:100E2000B39FC001A39F700D811D1124911DB29F1E
:100E3000700D811D1124911D0895EE0FFF1F881F55
:0E0E40008BBF0790F691E02D1994F894FFCF28
:100E4E0001000000170019001C001E000A0000001F
:100E5E000000BA011F035B0107028C016A017E01CB
:080E6E00415364667364000047
:00000001FF
