:100000000C9427010C9458010C9458010C9458013D
:100010000C9458010C9458010C9458010C945801FC
:100020000C9458010C9458010C9458010C945801EC
:100030000C9458010C9458010C9458010C945801DC
:100040000C9458010C9458010C9458010C945801CC
:100050000C9458010C9458010C9458010C9404060B
:100060000C9458010C9458010C9458010C945801AC
:100070000C9458010C9458010C9458010C9458019C
:100080000C9458010C9458010C9458010C9458018C
:100090000C9458010C9458010C9458010C9458017C
:1000A0000C9458010C9458010C9458010C9458016C
:1000B0000C9458010C9458010C9458010C9458015C
:1000C0000C9458010C9458010C9458010C9458014C
:1000D0000C9458010C9458010C9458010C9458013C
:1000E0000C9458010C94D3010C9494010C949C0131
:1000F0000C948E010C94C9010C94C1010C94B701AD
:100100000C94A90A0C94B3010C94CE010C94BB017D
:100110000C94A3010C94A0010C94AD010C94C501A6
:100120000C94A9010C9498010C94CF0100002100BB
:10013000240027002A002D003000330001010000B8
:10014000040107010A0100002200250028002B00FD
:100150002E003100340002010000050108010B01EE
:10016000000020002300260029002C002F00320070
:100170000001000003010601090105050505070549
:1001800008080808020202020A0A08080404040413
:10019000010101010101010103030303030303033F
:1001A000040707070C0C0C0C0C0C0C0C02020202CE
:1001B00006060606060606060B0B0B0B0B0B0B0BB7
:1001C0000102102020080810204010204080020169
:1001D000020108040201010204081020408080404E
:1001E000201008040201800402018040201008044D
:1001F00002010804020101020408102040800102EB
:1002000004081020408000000A0B02090C0D0E08A3
:1002100007030401000000000000000000000000CF
:1002200000000000000000000000000000000000CE
:10023000000012111000000000000000000000008B
:10024000000000000000000000000000A90A1124C6
:100250001FBECFEFD1E2DEBFCDBF00E00CBF19E083
:10026000A0E0B2E0E4E2FBE100E00BBF02C00790D7
:100270000D92A232B107D9F729E0A2E2B9E001C09C
:100280001D92A43AB207E1F711E0C7E2D1E000E025
:1002900006C021970109802FFE010E94480CC6323A
:1002A000D10780E00807A9F70E944E060C94900D34
:1002B0000C94000080917B00877F80937B0080E41A
:1002C00080937C0080917A00806480937A00809192
:1002D0007A0086FDFCCF8091780090917900089596
:1002E0008150823108F05AC0E82FF0E08827E458A6
:1002F000FE4F8F4F0C94480C9C01A0018E0194017D
:100300009801CE01A301A901AD01B301B701BB0161
:10031000C101C501CE01C901CF01D3018091800087
:100320008F77809380000895809180008F7DF9CF32
:1003300080918000877FF5CF84B58F7784BD089545
:1003400084B58F7DFBCF8091B0008F778093B00014
:1003500008958091B0008F7DF9CF809190008F77C4
:10036000809390000895809190008F7DF9CF8091C7
:100370009000877FF5CF8091A0008F778093A000B9
:1003800008958091A0008F7DF9CF8091A000877F94
:10039000F5CF809120018F7780932001089580917F
:1003A00020018F7DF9CF80912001877FF5CFCF93FA
:1003B000DF93282F30E0F901EA5FFD4F8491F901C6
:1003C000E054FE4FD491F901E658FE4FC491CC237E
:1003D000A1F081110E947001EC2FF0E0EE0FFF1FE1
:1003E000E05AFE4FA591B491EC91ED2381E090E0AD
:1003F00009F480E0DF91CF91089580E090E0FACF9A
:100400001F93CF93DF93282F30E0F901EA5FFD4F70
:100410008491F901E054FE4FD491F901E658FE4F62
:10042000C491CC23A9F0162F81110E947001EC2FEA
:10043000F0E0EE0FFF1FEA5BFE4FA591B4918FB77E
:10044000F894EC91111108C0D095DE23DC938FBF96
:10045000DF91CF911F910895DE2BF8CFCF93DF93DB
:1004600090E0FC01E054FE4F249186589E4FFC0121
:1004700084918823D1F090E0880F991FFC01E45DFE
:10048000FE4FA591B491FC01EA5BFE4FC591D4915A
:1004900061110EC09FB7F8948C91E22FE0958E23E6
:1004A0008C932881E223E8839FBFDF91CF91089549
:1004B0008FB7F894EC91E22BEC938FBFF6CF3FB758
:1004C000F89480913C0990913D09A0913E09B0912A
:1004D0003F0926B5A89B05C02F3F19F00196A11D25
:1004E000B11D3FBFBA2FA92F982F8827BC01CD017E
:1004F000620F711D811D911D42E0660F771F881FDD
:10050000991F4A95D1F708958F929F92AF92BF920B
:10051000CF92DF92EF92FF926B017C010E945F020B
:100520004B015C01C114D104E104F104B9F00E9453
:100530005F02681979098A099B09683E7340810541
:10054000910580F321E0C21AD108E108F10888EE94
:10055000880E83E0981EA11CB11CE4CFFF90EF90A1
:10056000DF90CF90BF90AF909F908F9008952FB75E
:10057000F894609138097091390980913A09909105
:100580003B092FBF0895E0913109F0913209818133
:10059000883018F49081903120F081E08093300908
:1005A00008950280F381E02D309739F02181821384
:1005B000F8CF20819213F5CFF0CF10923009089533
:1005C0000F931F938AE00E94D701019751F5809104
:1005D000260981110DC00E94B70260932209709311
:1005E0002309809324099093250981E080932609AB
:1005F0000E94B70200912209109123092091240939
:1006000030912509601B710B820B930B6C3D75407B
:100610008105910540F081E090E090933609809348
:100620003509109226091F910F910895CF92DF92FC
:10063000EF92FF920F931F93CF93DF931F921F921E
:10064000CDB7DEB769834A83880F991F00919E0951
:1006500010919F09000F111FE8E4F9E09F01285451
:1006600039402017310714F41192F8CF2981FC0189
:10067000E85BF64F21838A81808360E080919C094A
:100680000E9400021016110604F501501109F8012C
:10069000E85BF64FE080D0909A09C090980988E016
:1006A000F82E6E2D661F6627661F8C2D0E94000295
:1006B000EE0C61E08D2D0E94000260E08D2D0E9405
:1006C0000002FA94F110EDCFDDCF61E080919C093A
:1006D0000F900F90DF91CF911F910F91FF90EF90AE
:1006E000DF90CF900C940002EF92FF921F93CF9374
:1006F000DF9320919E0930919F0982179307B4F4EC
:10070000EC0123E0880F991F2A95E1F79C01285AF4
:10071000364F790111E0F70111927F0140E0612F1E
:10072000CE010E9416031F5F1930A9F7DF91CF9108
:100730001F91FF90EF90089520919E0930919F099D
:1007400082179307ECF468307105D0F448305105F6
:10075000B8F4FC0123E0EE0FFF1F2A95E1F7E60F46
:10076000F71F20E830E002C0359527954A95E2F75B
:10077000E85BF64F4089422B408B6F5F0C94160369
:100780000895AB018830910588F46830710528F42C
:10079000BC0190E080E00C949C0348505109483023
:1007A000510520F4BC0181E090E0F5CF08952F922F
:1007B0003F924F925F926F927F928F929F92AF92F1
:1007C000BF92CF92DF92EF92FF920F931F93CF933E
:1007D000DF9300D000D0CDB7DEB78C017B012A01BA
:1007E0003A83298390E080E00E94740381E090E0E6
:1007F0000E947403ED82FE82D12CC12CC2010197AC
:100800009C838B83ED81FE8180819181019639F5F6
:100810000E5F1F4FFFEFCF1ADF0A8D819E81029678
:100820009E838D834C145D0469F780E026960FB695
:10083000F894DEBF0FBECDBFDF91CF911F910F9116
:10084000FF90EF90DF90CF90BF90AF909F908F90F0
:100850007F906F905F904F903F902F900895380158
:1008600089819A81681A790A90E169167104ECF617
:1008700082E0E82EF12C4301B12CA12CC701029794
:10088000E5E0E89F1001E99F300C1124F0E18F169C
:100890009104B8F4ED81FE818081918129E1289F46
:1008A000F001299FF00D1124E20DF31DE15AF84FDC
:1008B000EA0DFB1D8081882321F0B401C7010E944D
:1008C000C1038FEFA81AB80A9FEF891A990AE5E0C9
:1008D000AE16B104D9F6FFEFEF1AFF0A27E0E216D1
:1008E000F10449F68CE0681671042CF4EB81FC816C
:1008F000EC15FD0519F00A5F1F4F8CCF81E096CFF4
:100900002F923F924F925F926F927F928F929F921F
:10091000AF92BF92CF92DF92EF92FF920F931F930D
:10092000CF93DF9300D01F92CDB7DEB79C838B832C
:100930007B016A013A83298330E020E00E94D703DB
:10094000312C212C2801110F66087708811134C041
:100950000E94B7024B015C018092440990924509C4
:10096000A0924609B09247098091400990914109AF
:10097000A0914209B0914309A5019401281B390BAC
:100980004A0B5B0BDA01C90184159505A605B7056D
:10099000F8F29101A601B7018B819C810E94D703D7
:1009A0008092400990924109A0924209B092430975
:1009B0003FEF231A330ACACF49815A81BA01550F32
:1009C000880B990B0F900F900F900F90DF91CF91A4
:1009D0001F910F91FF90EF90DF90CF90BF90AF905D
:1009E0009F908F907F906F905F904F903F902F904F
:1009F0000C948402CF93DF9390E080E00E94740314
:100A000081E090E00E9474036091290970912A09A5
:100A100080912709909128090E94C103C091310952
:100A2000D0913209209751F0688170E0898190E07F
:100A30000E94C1030A80DB81C02DF4CFDF91CF91EA
:100A40000895AC0190E080E04830510538F04850FE
:100A500051094830510520F481E090E00C949C034A
:100A600008958F929F92AF92BF92CF92DF92EF92B2
:100A7000FF920E94790B20E130E040E050E00E94BC
:100A8000D10B70932A09609329090E94790B28E001
:100A900030E040E050E00E94D10B70932809609351
:100AA000270980E1882E912CA12CB12C98E0C92E29
:100AB000D12CE12CF12CE0913109F0913209809197
:100AC000290990912A092091270930912809309706
:100AD00009F140814817190621F441814217130694
:100AE00021F00280F381E02DF2CF0E94790BA50165
:100AF00094010E94D10B70932A09609329090E94E6
:100B0000790BA70196010E94D10B7093280960937D
:100B10002709D1CFFF90EF90DF90CF90BF90AF909B
:100B20009F908F900895CF93DF93C82FD62F84E0A6
:100B300090E00E946B0CFC01D083C183809131094D
:100B40009091320993838283F0933209E0933109C3
:100B5000DF91CF910895E0913109F09132099181AF
:100B60002081809104028C34E1F16CF58434A9F188
:100B7000818140912709509128098417150699F51C
:100B800060814091290950912A096417150659F589
:100B9000918320830E9493050E943105809133093F
:100BA0009091340901969093340980933309809190
:100BB000000290910102499797FF21C01092010213
:100BC000109200020895823521F0853589F68FEF65
:100BD00005C081E0820F8083CBCF81E0890F8183C4
:100BE000C7CF8FEFF7CF0280F381E02D309759F018
:100BF0008181308191832083232F982FF4CF90938C
:100C000001028093000208951F920F920FB60F9277
:100C100011242F933F938F939F93AF93BF93809112
:100C2000380990913909A0913A09B0913B09309166
:100C3000370923E0230F2D3758F50196A11DB11D6B
:100C4000209337098093380990933909A0933A0982
:100C5000B0933B0980913C0990913D09A0913E09D8
:100C6000B0913F090196A11DB11D80933C0990935D
:100C70003D09A0933E09B0933F09BF91AF919F9169
:100C80008F913F912F910F900FBE0F901F9018954D
:100C900026E8230F0296A11DB11DD2CFCF93DF937B
:100CA000CDB7DEB768970FB6F894DEBF0FBECDBFE5
:100CB000789484B5826084BD84B5816084BD85B537
:100CC000826085BD85B5816085BD80916E00816043
:100CD00080936E00109281008091810082608093E9
:100CE00081008091810081608093810080918000EB
:100CF0008160809380008091B10084608093B10016
:100D00008091B00081608093B000809191008260FA
:100D100080939100809191008160809391008091F7
:100D200090008160809390008091A1008260809308
:100D3000A1008091A10081608093A1008091A0001A
:100D400081608093A00080912101826080932101C5
:100D50008091210181608093210180912001816037
:100D60008093200180917A00846080937A00809142
:100D70007A00826080937A0080917A00816080930B
:100D80007A0080917A00806880937A001092C10086
:100D90008AE0EFE0F2E0DE01119601900D928A9573
:100DA000E1F78E010F5F1F4F7E012BE0E20EF11C79
:100DB000F80180810E5F1F4F60E00E942E02E01656
:100DC000F106B1F780919E0990919F0918161906B6
:100DD00034F441E06CE090E080E00E9416038091E2
:100DE0009E0990919F09029734F041E06CE081E008
:100DF00090E00E94160380919E0990919F09181619
:100E0000190634F44FE06AE090E080E00E94160397
:100E100080919E0990919F09029734F04FE06AE01B
:100E200081E090E00E94160310E061E0812F0E94B3
:100E30002E021F5F1830C9F71EE061E0812F0E946B
:100E40002E021F5F1631C9F710E060E0812F0E946B
:100E500000021F5F1830C9F71EE061E0812F0E9479
:100E600000021F5F1631C9F760E085E30E942E0281
:100E700060E084E30E942E0260E08AE00E942E027D
:100E80001092360910923509B6E05B2E8091350933
:100E900090913609892B09F427C1EAE02E2E312CD6
:100EA000F8E04F2E512C612C712CA3E08A2E912C4E
:100EB000A12CB12C10923609109235090E94B7026C
:100EC00060934009709341098093420990934309CC
:100ED00086E0E9E1F2E0DE01119601900D928A953B
:100EE000E1F704E610E030E020E043E050E0BE012E
:100EF0006F5F7F4F81E090E00E94800481E090E08E
:100F000090930302809302020E94E00280913509CF
:100F100090913609892B09F4F6C110923609109286
:100F2000350910923409109233090E94310510924C
:100F300032091092310982E5809304020E94B702BF
:100F4000611571058105910511F00E94C80B0E9481
:100F5000790B22E030E040E050E00E94D10B18E035
:100F6000672B09F010E00E94790BA30192010E9407
:100F7000D10B062F612F802F0E94930561E0610F36
:100F8000802F0E9493052091020230910302032ECC
:100F9000000C440B550B2150310941095109AEE3B6
:100FA000BEEF0E94FE0BA50194010E94D10B2C50B4
:100FB0003E4F4F4F5F4F30930102209300020E943B
:100FC000FA040E94B702609340097093410980932C
:100FD000420990934309109230096AE872E080E078
:100FE00090E00E94840294E4F92E22E5E22E3CE493
:100FF000D32E85E5C82E80913009811163C20E94ED
:10100000E0028091350990913609892B09F099C247
:101010008AE00E94D7018130910509F0E4C1209156
:101020002D0930912E09232B21F490932E098093C2
:101030002D0980912F098111DECF87E10E94D70110
:10104000019709F017C280910402853591F0C09292
:1010500004020E94AB050E94C3020E94FA040E948F
:10106000B7026093400970934109809342099093BD
:1010700043090E94B7026093440970934509809325
:101080004609909347090091400910914109209128
:10109000420930914309601B710B820B930B009145
:1010A000000210910102012E000C220B330B60177D
:1010B00071078207930708F49ECF0E94AB050E9438
:1010C000C3020E94FA048091440990914509A091BD
:1010D0004609B09147098093400990934109A09334
:1010E0004209B093430985CF85E30E94D7016C0183
:1010F000892B09F078C07FE1872E72E0972EB12C02
:10110000A12C10E000E0E0902B09F0902C09F401F4
:10111000E00FF11F8081813071F4C701800F911FB2
:1011200068EA70E00E94340C97FF02C088559F4F18
:10113000B5010E9421050F5F1F4F083A110519F7ED
:10114000FFEFAF1ABF0A28EA820E911C38E0A316FF
:10115000B104B9F60E945A012EE030E0DC010E9491
:10116000500C20E034E040E050E00E94D10B2F5FB3
:101170003F4F4F4F5F4F30930302209302022B5F8C
:101180003F4F8901000F111F0C151D0554F06FE032
:1011900070E080E090E00E9484024FEFC41AD40A0D
:1011A000F3CF84E30E94D701892BC9F45FEFE51ADE
:1011B000F50AF0922C09E0922B0990E080E00E9461
:1011C000740381E090E00E9474030E94E002809129
:1011D000350990913609892B09F458CE5ECE81E00D
:1011E000E81AF108E6CF85E30E94D701019709F0DC
:1011F0004DCE10E000E058C00115110519F0015066
:1012000011095AC00BE110E057C0FFEFCF1ADF0AF7
:1012100028EAA20EB11C38E0C316D10409F05BC065
:101220000E945A012EE030E0DC010E94500C20E0C8
:1012300034E040E050E00E94D10B2F5F3F4F4F4F12
:101240005F4F30930302209302022B5F3F4F7901DF
:10125000EE0CFF1CD12CC12CEC14FD0454F06FE0FB
:1012600070E080E090E00E9484024FEFC41AD40A3C
:10127000F3CF85E30E94D701892B09F407CE90E0D4
:1012800080E00E94740381E090E00E9474030E9459
:10129000E0028091350990913609892B09F0FDCD46
:1012A0000C31110509F4F2CD84E30E94D7010197B6
:1012B00009F0A2CF0F5F1F4F509E4001519E900C2E
:1012C0001124340196E0690E711C5FE1A52E52E0F5
:1012D000B52ED12CC12C7401E614F7040CF095CF77
:1012E000F501EE0DFF1D8081813049F4C70166E0F4
:1012F00070E00E94340CB60108960E942105EFEFC1
:10130000EE1AFE0AE9CF0E94B7026B017C01C0927F
:101310004409D0924509E0924609F092470980912C
:10132000400990914109A0914209B0914309A70158
:101330009601281B390B4A0B5B0BDA01C9018C3271
:101340009140A105B10508F4DFCD87E10E94D701E6
:101350008130910571F520910202309103022F5FD7
:101360003F4F253031059CF5309303022093020254
:10137000C0924009D0924109E0924209F09243099B
:101380008091020290910302B1010E94340C7A8391
:1013900069839E838D8304E610E030E020E043E023
:1013A00050E0BE016F5F7F4F81E090E00E948004BB
:1013B000ABCD89E10E94D701019709F0A5CD8091BD
:1013C0000202909103020197181619062CF49093CB
:1013D000030280930202CCCF44E050E0509303021A
:1013E00040930202C5CF892B09F023CE80912D09AD
:1013F00090912E09019709F01CCE80912F0910922F
:101400002E0910922D09811120C0809133099091ED
:101410003409EFEFFFEFFC83EB83B1010E94340C42
:101420007A8369839E838D8310E000E030E020E0C2
:1014300043E050E0BE016F5F7F4F81E090E00E948B
:101440008004F1E0F0932F09F4CD8091440990914C
:101450004509A0914609B0914709809340099093AE
:101460004109A0934209B09343090E94FA041092E3
:101470002F09DFCD89E10E94D701019741F48091C6
:101480000402843409F4F5CDF0920402E2CD8CE13B
:101490000E94D701019741F4809104028C3409F431
:1014A000E8CDD0920402D5CD8EE10E94D7010197FC
:1014B00009F0DFCD80910402823509F4DACDE092A3
:1014C0000402C7CD80913309909134092AE030E0BD
:1014D0003A8329832BE030E03C832B832CE030E0FF
:1014E0003E832D832DE030E038872F834FEF5FEF71
:1014F0005A8749874EE050E05C874B874FE050E0C9
:101500005E874D87388B2F8720E130E03A8B298B1F
:1015100021E130E03C8B2B8BB1010E94340C7E8B9F
:101520006D8B988F8F8B04E610E02CEB32E04CE053
:1015300050E0BE016F5F7F4F90E080E00E9480042A
:10154000B9CC80E090E0892B09F49ACC0E9400008D
:1015500097CCCF93DF93CDE0D0E0D0939909C0939F
:1015600098098BE090E090939B0980939A098CE016
:1015700090E090939D0980939C0982E090E0909385
:101580009F0980939E0961E08DE00E942E0261E038
:1015900080919A090E942E0261E080919C090E942C
:1015A0002E0261E080919C090E940002D09399096B
:1015B000C0939809E8E5F9E088E999E011928E175F
:1015C0009F07E1F7D0E0C0E080919E0990919F09CC
:1015D000C817D9073CF540E06FE0CE010E94160322
:1015E00080919E0990919F09C817D9072CF447E074
:1015F0006BE0CE010E94160340E069E0CE010E943C
:101600001603CE010E94740380919E0990919F0958
:10161000C817D9072CF440E06CE0CE010E941603F5
:101620002196D2CF0E94790B20E130E040E050E0DB
:101630000E94D10B70932A09609329090E94790BAB
:1016400028E030E040E050E00E94D10B7093280980
:1016500060932709DF91CF9108958F929F92AF9267
:10166000BF92CF92DF92EF92FF92CF93DF93EC0184
:10167000688179818A819B81611571058105910558
:1016800021F464E279ED8BE597E02DE133EF41E061
:1016900050E00E94D10B49015A019B01AC01A7EA1D
:1016A000B1E40E94F00B6B017C01ACEEB4EFA5013C
:1016B00094010E94FE0BC60ED71EE81EF91EF7FE0F
:1016C00006C081E0C81AD108E10880E8F80AC8829B
:1016D000D982EA82FB82C701B6019F77DF91CF9161
:1016E000FF90EF90DF90CF90BF90AF909F908F9042
:1016F00008958F929F92AF92BF92CF92DF92EF9216
:10170000FF9260910502709106028091070290910C
:101710000802611571058105910521F464E279EDF6
:101720008BE597E02DE133EF41E050E00E94D10BD3
:1017300049015A019B01AC01A7EAB1E40E94F00BF8
:101740006B017C01ACEEB4EFA50194010E94FE0B8D
:10175000C60ED71EE81EF91EF7FE06C081E0C81AA5
:10176000D108E10880E8F80AC0920502D09206028A
:10177000E0920702F0920802C701B6019F77FF903E
:10178000EF90DF90CF90BF90AF909F908F90089593
:1017900060930502709306028093070290930802FB
:1017A0000895052E97FB1EF400940E94E80B57FD48
:1017B00007D00E94030C07FC03D04EF40C94E80BF6
:1017C00050954095309521953F4F4F4F5F4F08956D
:1017D00090958095709561957F4F8F4F9F4F08959D
:1017E0000E94250CA59F900DB49F900DA49F800D85
:1017F000911D11240895B7FF0C94F00B0E94F00B7B
:10180000821B930B0895A1E21A2EAA1BBB1BFD019C
:101810000DC0AA1FBB1FEE1FFF1FA217B307E407CF
:10182000F50720F0A21BB30BE40BF50B661F771F27
:10183000881F991F1A9469F7609570958095909507
:101840009B01AC01BD01CF010895A29FB001B39FE0
:10185000C001A39F700D811D1124911DB29F700DB9
:10186000811D1124911D089597FB072E16F40094F5
:1018700007D077FD09D00E94570C07FC05D03EF435
:10188000909581959F4F0895709561957F4F08952C
:10189000EE0FFF1F881F8BBF0790F691E02D199464
:1018A0000E94250CB7FF0895821B930B0895AA1B75
:1018B000BB1B51E107C0AA1FBB1FA617B70710F03B
:1018C000A61BB70B881F991F5A95A9F7809590956D
:1018D000BC01CD0108950F931F93CF93DF93823006
:1018E000910510F482E090E0E091A209F091A30943
:1018F00030E020E0B0E0A0E0309799F42115310508
:1019000009F44AC0281B390B24303105D8F58A81E7
:101910009B816115710589F1FB0193838283FE012F
:1019200011C0408151810281138148175907E0F0AD
:101930004817590799F4109761F012960C93129773
:1019400013961C933296CF01DF91CF911F910F9187
:1019500008950093A2091093A309F4CF211531052E
:1019600051F04217530738F0A901DB019A01BD017C
:10197000DF01F801C1CFEF01F9CF9093A309809364
:10198000A209CDCFFE01E20FF31F81939193225064
:10199000310939832883D7CF2091A0093091A1093B
:1019A000232B41F420910B0230910C023093A109BA
:1019B0002093A0092091090230910A0221153105D6
:1019C00041F42DB73EB740910D0250910E02241BF9
:1019D000350BE091A009F091A109E217F307A0F4FB
:1019E0002E1B3F0B2817390778F0AC014E5F5F4F75
:1019F0002417350748F04E0F5F1F5093A1094093FD
:101A0000A009819391939FCFF0E0E0E09CCFCF932A
:101A1000DF930097E9F0FC01329713821282A091C4
:101A2000A209B091A309ED0130E020E01097A1F4E4
:101A300020813181820F931F2091A0093091A1094B
:101A40002817390709F061C0F093A109E093A009B4
:101A5000DF91CF910895EA01CE17DF07E8F54A81BB
:101A60005B819E0141155105B1F7E901FB83EA83D2
:101A700049915991C40FD51FEC17FD0761F480817E
:101A800091810296840F951FE90199838883828151
:101A900093819B838A83F0E0E0E012968D919C9184
:101AA00013970097B9F52D913C911197CD010296AE
:101AB000820F931F2091A0093091A109281739079F
:101AC00039F6309751F51092A3091092A209B093FC
:101AD000A109A093A009BCCFD383C28340815181C7
:101AE000840F951FC817D90761F44E5F5F4F888137
:101AF0009981480F591F518340838A819B81938329
:101B000082832115310509F0B0CFF093A309E0934A
:101B1000A2099ECFFD01DC01C0CF13821282D7CF74
:041B2000F894FFCF67
:101B2400F401010052010000000000A40980001724
:101B34000019001C001E000A000000FFFF01000045
:101B44000000000100010101010000010101010088
:101B5400000001010100000001010100000000017A
:101B6400000000000000000000000101010100016C
:101B74000101010000010000000100010101010058
:101B8400000001010100000000010000000000004D
:101B94000000000001010101000001010101000039
:101BA4000101010000000101010000010101010126
:101BB400000001010100000100000001000000011B
:101BC400010100000100000000000000000000000E
:101BD4000000000000000000000000000000000001
:101BE40000000000000000000000010000010000EF
:101BF40000010001000000010001000000010001DB
:101C040000000001000001010000000000000000CD
:101C140000010000000000010000000100010000BC
:101C240000010001000000010001000000010000AB
:101C3400010100000000000000000001000000009D
:101C4400000100000000000100000001000100008C
:101C5400000100000001000000010000000100017B
:101C6400000000010000010000000100000100006C
:101C74000000000000000000000000000000000060
:101C84000000000000000000000000000000000050
:101C9400000100000001000000010001000000013B
:101CA400000100000001000100000000000100012B
:101CB400000000000000000000010000000000011E
:101CC400000000010001000000010001000000010B
:101CD40000010000000100010001000000000000FC
:101CE40000000001000000000001000000000001ED
:101CF40000000000000100000000000000010000DE
:101D040000010000000100010100000100000100C9
:101D140000000100000001000000000000000000BD
:101D240000000000000000000000000000000000AF
:101D3400000000000000000001000000000101019B
:101D44000100000101010100000101010101000184
:101D5400000000000000000100000000000000007E
:101D64000001000101000001010101000001000067
:101D74000001000101010100000100000001000058
:101D8400000100000000000000000000010100004C
:101D9400000101010000000100000000000100003A
:101DA400000000000001000000010000000100012B
:101DB4000001000100000101010101000000000117
:101DC400000000000000000000000000000000000F
:101DD40000000000000000000000000000000000FF
:101DE40001000000000100000000000100000100EB
:101DF40000010000000100010000000000000001DB
:101E040000000001010101010001000000010001C6
:101E140000000100000100000001000100000000BA
:101E240000010000000100000001000000010101A8
:101E34000101000000010100000101010000000196
:101E4400000000000001000000000000000100008C
:101E54000001000000010001000001010000010078
:101E6400000001000000000100000000000000006C
:101E7400000000000000000000000000000000005E
:101E8400000000000000000000010000000100004C
:101E94000000000100000001000100000001000139
:101EA400000000000000000100000000000000002D
:101EB4000001000000010001000000010001000019
:101EC400000100010000000000010000000100000A
:101ED40000010000000000000000000000000001FC
:101EE40000010000000000010000000000010000EB
:101EF40000000000000100000001000000010001DA
:101F040000000001000001000000010000000100C9
:101F140000000000000000000000000000000000BD
:101F240000000000000000000000000000000000AD
:101F34000000010000010000000000010000000199
:101F44000001000000010001000000010000000188
:101F5400000000000000000000010000000100017A
:101F64000000000100010000000100010000000069
:101F7400000100000001000000010000000000005A
:101F8400000000000000000100010000000000014A
:101F94000000000100010000000100000001000039
:101FA4000001000000010001000000010000010028
:101FB400000001000001000000000000000000001B
:101FC400000000000000000000000000000000000D
:101FD40000000000000000000000000100010000FB
:101FE40000000001000000010001000000010000E9
:101FF40001010100000101010101000000000000D5
:1020040000000101010000010000000100000101C5
:1020140001000001000000000000010101000001B6
:1020240001010101000000000000000101010100A4
:102034000000010101010000010101000000010193
:102044000100000101010101000001010100000182
:102054000000000100000100000001000100000078
:10206400000000000000000000000000000000006C
:10207400000000000000000000000000000000005C
:102084000101010001000001010100010001010141
:102094000000010001010100000101000000000135
:1020A4000000000001000000000100000001010127
:1020B4000001010101000000000001000101010014
:1020C4000100000000010101010101010101000002
:1020D40000000001000001010000000000010101F6
:1020E40001010000000101000001000100010000E5
:1020F40001000101010101000000010001010101D1
:1021040001010000000001010101000000000001C4
:1021140001010101000001010101010000000001B1
:1021240001010100010000000100010101000101A1
:102134000101010000000001000000010000000195
:102144000000000100000000010101000100000086
:102154000100010101000100000001000101010072
:102164000001010100010000000100010101010062
:102174000000000101010101000001010101010051
:102184000000000100000101010000000100010144
:102194000101000001000000010001000100000035
:1021A4000101010101010100000001010000000121
:1021B4000101000101010001000101000000010111
:1021C4000000000101010101010100000000010102
:1021D40001000001000000000101010101000101F2
:1021E40001000100000001010000000101000000E5
:1021F40001000101010001000000010100000001D3
:1022040001000000010001000100000001000001C4
:1022140001010100010000000101010101000100B0
:1022240000000101000000010000000000000000A7
:102234000000000101010000000000000000000097
:02224400000098
:00000001FF
