:100000000C9435010C9466010C9466010C94660105
:100010000C9466010C9466010C9466010C946601C4
:100020000C9466010C9466010C9466010C946601B4
:100030000C9466010C9466010C9466010C946601A4
:100040000C9466010C9466010C9466010C94660194
:100050000C9466010C9466010C9466010C942B06BA
:100060000C9466010C949F060C9475060C94660122
:100070000C9466010C9466010C9466010C94660164
:100080000C9466010C9466010C9466010C94660154
:100090000C9466010C9466010C9466010C94660144
:1000A0000C9466010C9466010C9466010C94660134
:1000B0000C9466010C9466010C9466010C94660124
:1000C0000C9466010C9466010C9466010C94660114
:1000D0000C9466010C9466010C9466010C94660104
:1000E0000C9466010C9486010C949B010C94C40240
:1000F0000C94B5020C94D8020C9498010C94BD0198
:100100000C94A5010C948C010C94C1010C94B301C6
:100110000C94C6010C94AB010C94AF010C94B90182
:100120000C9488020C94A1010C94D5060C94C70180
:100130000C941E030C94CB010C9494010C946B034F
:100140000C9490010C94E60200002100240027008A
:100150002A002D00300033000101000004010701D6
:100160000A0100002200250028002B002E0031008B
:10017000340002010000050108010B01000020000D
:100180002300260029002C002F003200000100006F
:10019000030106010901050505050705080808080A
:1001A000020202020A0A080804040404010101010F
:1001B000010101010303030303030303040707070A
:1001C0000C0C0C0C0C0C0C0C0202020206060606AF
:1001D000060606060B0B0B0B0B0B0B0B010210207C
:1001E000200808102040102040800201020108046D
:1001F0000201010204081020408080402010080401
:100200000201800402018040201008040201080459
:10021000020101020408102040800102040810209D
:10022000408000000A0B02090C0D0E0807030401B0
:1002300000000000000000000000000000000000BE
:10024000000000000000000000000000000012118B
:10025000100000000000000000000000000000008E
:100260000000000000000000D50611241FBECFEFE3
:10027000D1E2DEBFCDBF00E00CBF13E0A0E0B2E0F2
:10028000EEE2FAE100E00BBF02C007900D92A43F3E
:10029000B107D9F725E0A4EFB3E001C01D92A43067
:1002A000B207E1F711E0C5E3D1E000E006C0219715
:1002B0000109802FFE010E94D40BC433D10780E0D6
:1002C0000807A9F70E9483070C94150D0C940000F1
:1002D0008150823108F05AC0E82FF0E08827EC58AE
:1002E000FE4F8F4F0C94D40B9401980186018C0122
:1002F0009001C6019B01A101A501AB01AF01B301B2
:10030000B901BD01C601C101C701CB0180918000C7
:100310008F77809380000895809180008F7DF9CF42
:1003200080918000877FF5CF84B58F7784BD089555
:1003300084B58F7DFBCF8091B0008F778093B00024
:1003400008958091B0008F7DF9CF809190008F77D4
:10035000809390000895809190008F7DF9CF8091D7
:100360009000877FF5CF8091A0008F778093A000C9
:1003700008958091A0008F7DF9CF8091A000877FA4
:10038000F5CF809120018F7780932001089580918F
:1003900020018F7DF9CF80912001877FF5CFCF930A
:1003A000DF93282F30E0F901EE5DFD4F8491F901D4
:1003B000E452FE4FD491F901EA56FE4FC491CC238A
:1003C000A1F081110E946801EC2FF0E0EE0FFF1FF9
:1003D000E458FE4FA591B491EC91ED2381E090E0BB
:1003E00009F480E0DF91CF91089580E090E0FACFAA
:1003F0001F93CF93DF93282F30E0F901EE5DFD4F7F
:100400008491F901E452FE4FD491F901EA56FE4F6E
:10041000C491CC23A9F0162F81110E946801EC2F02
:10042000F0E0EE0FFF1FEE59FE4FA591B4918FB78C
:10043000F894EC91111108C0D095DE23DC938FBFA6
:10044000DF91CF911F910895DE2BF8CFCF93DF93EB
:1004500090E0FC01E452FE4F24918A569E4FFC012D
:1004600084918823D1F090E0880F991FFC01E85B0C
:10047000FE4FA591B491FC01EE59FE4FC591D49168
:1004800061110EC09FB7F8948C91E22FE0958E23F6
:100490008C932881E223E8839FBFDF91CF91089559
:1004A0008FB7F894EC91E22BEC938FBFF6CF3FB768
:1004B000F8948091FD039091FE03A091FF03B09109
:1004C000000426B5A89B05C02F3F19F00196A11D79
:1004D000B11D3FBFBA2FA92F982F8827BC01CD018E
:1004E000620F711D811D911D42E0660F771F881FED
:1004F000991F4A95D1F708952FB7F8946091F903A1
:100500007091FA038091FB039091FC032FBF089533
:10051000AF92BF92CF92DF92EF92FF920F931F9311
:10052000CF93DF936C017B018B01040F151FEB014F
:100530005E01AE18BF08C017D10759F06991D60106
:10054000ED91FC910190F081E02DC6011995892B68
:1005500079F7C501DF91CF911F910F91FF90EF9037
:10056000DF90CF90BF90AF900895FC01538D448DE4
:10057000252F30E0842F90E0821B930B541710F04E
:10058000CF96089501970895FC01918D828D98175B
:1005900061F0A28DAE0FBF2FB11D5D968C91928D33
:1005A0009F5F9F73928F90E008958FEF9FEF089564
:1005B000FC01918D828D981731F0828DE80FF11D2D
:1005C000858D90E008958FEF9FEF0895FC01918D48
:1005D000228D892F90E0805C9F4F821B91098F7341
:1005E000992708958BE094E00E94E60221E0892B90
:1005F00009F420E0822F0895FC01A48DA80FB92FE3
:10060000B11DA35ABF4F2C91848D90E001968F733A
:100610009927848FA689B7892C93A089B1898C9159
:10062000837080648C93938D848D981306C00288A8
:10063000F389E02D80818F7D80830895EF92FF9272
:100640000F931F93CF93DF93EC0181E0888F9B8DF5
:100650008C8D98131AC0E889F989808185FF15C0AF
:100660009FB7F894EE89FF896083E889F9898081D2
:100670008370806480839FBF81E090E0DF91CF91A1
:100680001F910F91FF90EF900895F62E0B8D10E0C3
:100690000F5F1F4F0F731127E02E8C8D8E110CC032
:1006A0000FB607FCFACFE889F989808185FFF5CF7D
:1006B000CE010E94FC02F1CFEB8DEC0FFD2FF11D5E
:1006C000E35AFF4FF0829FB7F8940B8FEA89FB89BA
:1006D00080818062CFCFCF93DF93EC01888D882318
:1006E000B9F0AA89BB89E889F9898C9185FD03C095
:1006F000808186FD0DC00FB607FCF7CF8C9185FF7A
:10070000F2CF808185FFEDCFCE010E94FC02E9CFC0
:10071000DF91CF91089580E090E0892B29F00E942D
:10072000F20281110E94000080E090E0892B49F0E4
:1007300080E090E0892B29F00E94000081110E9446
:10074000000080E090E0892B49F080E090E0892B68
:1007500029F00E94000081110E94000080E090E0DA
:10076000892B49F080E090E0892B29F00E9400005D
:1007700081110C9400000895E091F603F091F703C5
:1007800091812081809104028C34E9F074F48434E6
:10079000B1F00280F381E02D3097B9F08181308192
:1007A00091832083232F982FF4CF823521F0853534
:1007B00081F78FEF05C081E0820F8083EACF81E06F
:1007C000890F8183E6CF8FEFF7CF0895E091F6038D
:1007D000F091F7038181883018F49081903120F0F6
:1007E00081E08093F50308950280F381E02D309736
:1007F00039F021818213F8CF20819213F5CFF0CF09
:100800001092F5030895CF92DF92EF92FF920F932B
:100810001F93CF93DF931F921F92CDB7DEB76983EB
:100820004A83880F991F0091FE041091FF04000F66
:10083000111FE8EAF4E09F01285A344020173107DD
:1008400014F41192F8CF2981FC01E855FB4F218364
:100850008A81808360E08091FC040E94F801101678
:10086000110604F501501109F801E855FB4FE0802D
:10087000D090FA04C090F80488E0F82E6E2D661F20
:100880006627661F8C2D0E94F801EE0C61E08D2D0D
:100890000E94F80160E08D2D0E94F801FA94F11099
:1008A000EDCFDDCF61E08091FC040F900F90DF91E0
:1008B000CF911F910F91FF90EF90DF90CF900C940C
:1008C000F801EF92FF921F93CF93DF932091FE04E4
:1008D0003091FF0482179307B4F4EC0123E0880FF2
:1008E000991F2A95E1F79C0128543B4F790111E0AB
:1008F000F70111927F0140E0612FCE010E940304B5
:100900001F5F1930A9F7DF91CF911F91FF90EF90F2
:10091000089588309105D8F568307105D0F420919C
:10092000FE043091FF04121613068CF520E830E027
:1009300002C0359527956A95E2F7FC01E855FB4F13
:100940004089422B408B61E0680F90E080E00C947E
:1009500003046850710968307105C8F42091FE04E1
:100960003091FF042230310594F020E830E002C0DD
:10097000359527956A95E2F7FC01E055FB4F4089D4
:10098000422B408B61E0680F81E090E0E0CF08955A
:100990002F923F924F925F926F927F928F929F928F
:1009A000AF92BF92CF92DF92EF92FF920F931F937D
:1009B000CF93DF9300D000D0CDB7DEB78C017B01A1
:1009C0002A013A83298390E080E00E94610481E05B
:1009D00090E00E946104ED82FE82D12CC12CC20104
:1009E00001979C838B83ED81FE81808191810196AB
:1009F00039F50E5F1F4FFFEFCF1ADF0A8D819E8101
:100A000002969E838D834C145D0469F780E02696E0
:100A10000FB6F894DEBF0FBECDBFDF91CF911F910F
:100A20000F91FF90EF90DF90CF90BF90AF909F908D
:100A30008F907F906F905F904F903F902F90089590
:100A4000380189819A81681A790A90E169167104DE
:100A5000ECF682E0E82EF12C4301B12CA12CC70169
:100A60000297E5E0E89F1001E99F300C1124F0E1C6
:100A70008F169104B8F4ED81FE818081918129E186
:100A8000289FF001299FF00D1124E20DF31DE15E76
:100A9000FD4FEA0DFB1D8081882321F0B401C701C1
:100AA0000E9489048FEFA81AB80A9FEF891A990A41
:100AB000E5E0AE16B104D9F6FFEFEF1AFF0A27E022
:100AC000E216F10449F68CE0681671042CF4EB810F
:100AD000FC81EC15FD0519F00A5F1F4F8CCF81E0FA
:100AE00096CF2F923F924F925F926F927F928F920A
:100AF0009F92AF92BF92CF92DF92EF92FF920F93AD
:100B00001F93CF93DF9300D01F92CDB7DEB79C83A6
:100B10008B837B016A013A83298330E020E00E94C5
:100B2000C804312C212C2801110F66087708811187
:100B300034C00E947C024B015C01809207049092B9
:100B40000804A0920904B0920A04809103049091D1
:100B50000404A0910504B0910604A5019401281B8A
:100B6000390B4A0B5B0BDA01C90184159505A60503
:100B7000B705F8F29101A601B7018B819C810E9413
:100B8000C8048092030490920404A0920504B092D9
:100B900006043FEF231A330ACACF109202041092C0
:100BA000010449815A816A01550FEE08FF080E942D
:100BB00057024B015C01C114D104E104F104B9F006
:100BC0000E945702681979098A099B09683E734097
:100BD0008105910580F351E0C51AD108E108F108BB
:100BE00088EE880E83E0981EA11CB11CE4CF0F9004
:100BF0000F900F900F90DF91CF911F910F91FF9069
:100C0000EF90DF90CF90BF90AF909F908F907F90AC
:100C10006F905F904F903F902F900895CF93DF9308
:100C200090E080E00E94610481E090E00E94610415
:100C3000C091F603D091F703209751F0688170E0DE
:100C4000898190E00E9489040A80DB81C02DF4CF65
:100C5000DF91CF9108951F920F920FB60F9211243A
:100C60002F933F938F939F93AF93BF938091F903FB
:100C70009091FA03A091FB03B091FC033091F8032B
:100C800023E0230F2D3758F50196A11DB11D2093A8
:100C9000F8038093F9039093FA03A093FB03B093B6
:100CA000FC038091FD039091FE03A091FF03B0919E
:100CB00000040196A11DB11D8093FD039093FE03D6
:100CC000A093FF03B0930004BF91AF919F918F91C8
:100CD0003F912F910F900FBE0F901F90189526E80F
:100CE000230F0296A11DB11DD2CF1F920F920FB6F6
:100CF0000F9211240BB60F922F933F934F935F9354
:100D00006F937F938F939F93AF93BF93EF93FF93D3
:100D10008BE094E00E94FC02FF91EF91BF91AF91B4
:100D20009F918F917F916F915F914F913F912F9103
:100D30000F900BBE0F900FBE0F901F9018951F9233
:100D40000F920FB60F9211240BB60F922F938F9321
:100D50009F93EF93FF93E0911B04F0911C0480811B
:100D6000E0912104F091220482FD1DC090818091C8
:100D700024048F5F8F7320912504821741F0E09146
:100D80002404F0E0E55FFB4F958F80932404FF91EE
:100D9000EF919F918F912F910F900BBE0F900FBEEF
:100DA0000F901F9018958081F2CFCF93DF93109210
:100DB0000E0410920D0488EE93E0A0E0B0E0809362
:100DC0000F0490931004A0931104B093120485EEC5
:100DD00093E090930C0480930B0485EC90E0909347
:100DE00018048093170484EC90E090931A04809385
:100DF000190480EC90E090931C0480931B0481EC18
:100E000090E090931E0480931D0482EC90E09093F8
:100E1000200480931F0486EC90E09093220480933A
:100E2000210410922404109225041092260410929A
:100E30002704CDE0D0E0D093F904C093F8048BE010
:100E400090E09093FB048093FA048CE090E0909300
:100E5000FD048093FC0482E090E09093FF04809373
:100E6000FE0461E08DE00E94260261E08091FA04B8
:100E70000E94260261E08091FC040E94260261E04B
:100E80008091FC040E94F801D093F904C093F80407
:100E9000E8EBF4E088EF94E011928E179F07E1F7FA
:100EA000D0E0C0E08091FE049091FF04C817D907FC
:100EB0003CF540E06FE0CE010E9403048091FE0407
:100EC0009091FF04C817D9072CF447E06BE0CE01DE
:100ED0000E94030440E069E0CE010E940304CE01B9
:100EE0000E9461048091FE049091FF04C817D90705
:100EF0002CF440E06CE0CE010E9403042196D2CF96
:100F0000DF91CF910895CF93DF93CDB7DEB7689788
:100F10000FB6F894DEBF0FBECDBF789484B5826063
:100F200084BD84B5816084BD85B5826085BD85B58D
:100F3000816085BD80916E00816080936E0010920B
:100F40008100809181008260809381008091810086
:100F50008160809381008091800081608093800017
:100F60008091B10084608093B1008091B000816075
:100F70008093B00080919100826080939100809175
:100F800091008160809391008091900081608093B6
:100F900090008091A10082608093A1008091A100C7
:100FA00081608093A1008091A00081608093A00067
:100FB00080912101826080932101809121018160D3
:100FC0008093210180912001816080932001809194
:100FD0007A00846080937A0080917A0082608093A6
:100FE0007A0080917A00816080937A0080917A0003
:100FF000806880937A001092C1008AE0EFE0F2E00E
:10100000DE01119601900D928A95E1F78E010F5F36
:101010001F4F7E012BE0E20EF11CF80180810E5F74
:101020001F4F60E00E9426020E151F05B1F7809148
:10103000FE049091FF041816190634F441E06CE0A8
:1010400090E080E00E9403048091FE049091FF04F0
:10105000029734F041E06CE081E090E00E940304EC
:101060008091FE049091FF041816190634F44FE0A5
:101070006AE090E080E00E9403048091FE04909179
:10108000FF04029734F04FE06AE081E090E00E94B4
:10109000030410E061E0812F0E9426021F5F1830D8
:1010A000C9F71EE061E0812F0E9426021F5F163102
:1010B000C9F710E060E0812F0E94F8011F5F18302F
:1010C000C9F71EE061E0812F0E94F8011F5F163111
:1010D000C9F7E0911B04F0911C0482E08083E09149
:1010E0001704F09118041082E0911904F0911A0489
:1010F0008FEC808310922304E0911F04F091200470
:1011000086E08083E0911D04F0911E04808180615F
:101110008083E0911D04F0911E04808188608083AB
:10112000E0911D04F0911E04808180688083E0912D
:101130001D04F0911E0480818F7D80839AE0292E0A
:10114000312C28E0822E912CA12CB12C33E0432E9F
:10115000512C612C712C0E947C02609303047093CB
:101160000404809305049093060486E0E9E1F2E02C
:10117000DE01119601900D928A95E1F704E610E0E8
:1011800030E020E043E050E0BE016F5F7F4F81E040
:1011900090E00E9471050E947C026B017C01C0926C
:1011A0000704D0920804E0920904F0920A048091A6
:1011B000030490910404A0910504B0910604A701D2
:1011C0009601281B390B4A0B5B0BDA01C9018C32E3
:1011D0009140A105B105F8F28AE00E94CF01019784
:1011E00009F441C087E10E94CF018130910509F5E2
:1011F00020910202309103022F5F3F4F25303105CD
:1012000034F53093030220930202C0920304D0927B
:101210000404E0920504F092060480910202909189
:101220000302B1010E94C00B7A8369839E838D8380
:10123000A5CF89E10E94CF01019709F0ACCF809141
:101240000202909103020197181619062CF490934C
:10125000030280930202D9CF44E050E0509303028E
:1012600040930202D2CF1092F7031092F60382E568
:10127000809304020E94050B22E030E040E050E041
:101280000E945D0B88E0F82E672B09F0F12C0E947C
:10129000050BA50194010E945D0BE62E84E090E011
:1012A0000E94F00B8C01FC01F082E1828091F60338
:1012B0009091F7039383828384E090E00E94F00B87
:1012C000FC01F394F082E182138302839093F7038D
:1012D0008093F6032091020230910302032E000C4A
:1012E000440B550B2150310941095109AEE3BEEFC2
:1012F0000E948A0BA30192010E945D0B2C503E4F6D
:101300004F4F5F4F30930102209300020E940E0660
:101310000E947C026093030470930404809305048C
:10132000909306041092F5038091010490910204B9
:10133000B1010E94C00B7B018C018091F5038111EA
:10134000DEC00E947C0260930704709308048093BF
:10135000090490930A0420910304309104044091FD
:10136000050450910604621B730B840B950B6C32C1
:1013700071408105910590F1D090F4038AE00E94BC
:10138000CF01019709F082C0D11080C02FEF3FEF4D
:101390003C832B83FA82E9821E830D8310E000E0F8
:1013A00030E020E043E050E0BE016F5F7F4F81E01E
:1013B00090E00E94710531E03093F40380910704BE
:1013C00090910804A0910904B0910A048093030449
:1013D00090930404A0930504B09306048091F40351
:1013E0008111A2CF87E10E94CF01019709F05CC073
:1013F00080910402853599F045E5409304020E94EE
:10140000BC030E94E6030E940E060E947C026093C9
:1014100003047093040480930504909306040E94CF
:101420007C026B017C01C0920704D0920804E09218
:101430000904F0920A048091030490910404A0919D
:101440000504B0910604B701A601481B590B6A0BAD
:101450007B0B8091000290910102092E000CAA0BD7
:10146000BB0B481759076A077B0708F45DCF0E943A
:10147000BC030E94E6030E940E06C0920304D092B1
:101480000404E0920504F09206044ECF8AE00E9424
:10149000CF01019709F0A2CFDD2009F4A3CF0E946C
:1014A0000E061092F4038ACF89E10E94CF010197C2
:1014B00049F480910402843409F4B1CF54E4509388
:1014C00004029DCF8CE10E94CF01019749F48091E5
:1014D00004028C3409F4A3CF8CE4809304028FCFF0
:1014E0008EE10E94CF01019709F099CF809104020B
:1014F000823509F494CF92E59093040280CFEAE01C
:10150000F0E0FA83E9838BE090E09C838B838CE0AE
:1015100090E09E838D838DE090E098878F832FEFFE
:101520003FEF3A8729872EE030E03C872B872FE07A
:1015300030E03E872D87988B8F8780E190E09A8BF3
:10154000898B81E190E09C8B8B8B7E8B6D8B188FD0
:101550000F8B04E610E02CEB32E04CE050E0BE01D3
:101560006F5F7F4F90E080E00E9471050E948B03C7
:10157000F2CD8F929F92AF92BF92CF92DF92EF9275
:10158000FF92CF93DF93EC01688179818A819B81FF
:10159000611571058105910521F464E279ED8BE512
:1015A00097E02DE133EF41E050E00E945D0B4901EF
:1015B0005A019B01AC01A7EAB1E40E947C0B6B01CC
:1015C0007C01ACEEB4EFA50194010E948A0BC60E1B
:1015D000D71EE81EF91EF7FE06C081E0C81AD10822
:1015E000E10880E8F80AC882D982EA82FB82C70152
:1015F000B6019F77DF91CF91FF90EF90DF90CF9072
:10160000BF90AF909F908F9008958F929F92AF92CE
:10161000BF92CF92DF92EF92FF926091050270919C
:1016200006028091070290910802611571058105FB
:10163000910521F464E279ED8BE597E02DE133EF3C
:1016400041E050E00E945D0B49015A019B01AC0151
:10165000A7EAB1E40E947C0B6B017C01ACEEB4EF15
:10166000A50194010E948A0BC60ED71EE81EF91E22
:10167000F7FE06C081E0C81AD108E10880E8F80A40
:10168000C0920502D0920602E0920702F092080290
:10169000C701B6019F77FF90EF90DF90CF90BF908A
:1016A000AF909F908F90089560930502709306020B
:1016B00080930702909308020895052E97FB1EF46D
:1016C00000940E94740B57FD07D00E948F0B07FCFB
:1016D00003D04EF40C94740B5095409530952195A1
:1016E0003F4F4F4F5F4F089590958095709561954E
:1016F0007F4F8F4F9F4F08950E94B10BA59F900D74
:10170000B49F900DA49F800D911D11240895B7FFE3
:101710000C947C0B0E947C0B821B930B0895A1E21E
:101720001A2EAA1BBB1BFD010DC0AA1FBB1FEE1F5B
:10173000FF1FA217B307E407F50720F0A21BB30BA6
:10174000E40BF50B661F771F881F991F1A9469F722
:1017500060957095809590959B01AC01BD01CF017E
:101760000895A29FB001B39FC001A39F700D811D7A
:101770001124911DB29F700D811D1124911D08959A
:1017800097FB072E16F4009407D077FD09D00E942E
:10179000DC0B07FC05D03EF4909581959F4F089592
:1017A000709561957F4F0895EE0FFF1F881F8BBFC7
:1017B0000790F691E02D1994AA1BBB1B51E107C0BD
:1017C000AA1FBB1FA617B70710F0A61BB70B881FD1
:1017D000991F5A95A9F780959095BC01CD01089560
:1017E0000F931F93CF93DF938230910510F482E023
:1017F00090E0E0910205F091030530E020E0B0E0D8
:10180000A0E0309799F42115310509F44AC0281B4E
:10181000390B24303105D8F58A819B81611571051A
:1018200089F1FB0193838283FE0111C040815181C4
:101830000281138148175907E0F04817590799F4B6
:10184000109761F012960C93129713961C93329690
:10185000CF01DF91CF911F910F9108950093020561
:1018600010930305F4CF2115310551F042175307AA
:1018700038F0A901DB019A01BD01DF01F801C1CFF8
:10188000EF01F9CF9093030580930205CDCFFE01C0
:10189000E20FF31F819391932250310939832883FA
:1018A000D7CF2091000530910105232B41F42091E1
:1018B0000B0230910C02309301052093000520911A
:1018C000090230910A022115310541F42DB73EB7C6
:1018D00040910D0250910E02241B350BE091000542
:1018E000F0910105E217F307A0F42E1B3F0B281718
:1018F000390778F0AC014E5F5F4F2417350748F089
:101900004E0F5F1F50930105409300058193919303
:101910009FCFF0E0E0E09CCFCF93DF930097E9F01A
:10192000FC01329713821282A0910205B091030547
:10193000ED0130E020E01097A1F420813181820F89
:10194000931F20910005309101052817390709F0F0
:1019500061C0F0930105E0930005DF91CF910895F8
:10196000EA01CE17DF07E8F54A815B819E01411548
:101970005105B1F7E901FB83EA8349915991C40FFD
:10198000D51FEC17FD0761F4808191810296840FC9
:10199000951FE90199838883828193819B838A8340
:1019A000F0E0E0E012968D919C9113970097B9F5C5
:1019B0002D913C911197CD010296820F931F20919A
:1019C0000005309101052817390739F6309751F590
:1019D0001092030510920205B0930105A093000533
:1019E000BCCFD383C28340815181840F951FC81718
:1019F000D90761F44E5F5F4F88819981480F591F65
:101A0000518340838A819B81938382832115310591
:101A100009F0B0CFF0930305E09302059ECFFD01DE
:0E1A2000DC01C0CF13821282D7CFF894FFCF23
:101A2E00F4010100520100000000000405800017BF
:101A3E000019001C001E000A000000FFFF0100003C
:101A4E00010101000100000101010001000101017D
:101A5E000000010001010100000101000000000171
:101A6E000000000001000000000100000001010163
:101A7E000001010101000000000001000101010050
:101A8E00010000000001010101010101010100003E
:101A9E000000000100000101000000000001010132
:101AAE000101000000010100000100010001000021
:101ABE00010001010101010000000100010101010D
:101ACE000101000000000101010100000000000101
:101ADE0001010101000001010101010000000001EE
:101AEE0001010100010000000100010101000101DE
:101AFE0001010100000000010000000100000001D2
:101B0E0000000001000000000101010001000000C2
:101B1E0001000101010001000000010001010100AE
:101B2E00000101010001000000010001010101009E
:101B3E00000000010101010100000101010101008D
:101B4E000000000100000101010000000100010180
:101B5E000101000001000000010001000100000071
:101B6E00010101010101010000000101000000015D
:101B7E00010100010101000100010100000001014D
:101B8E00000000010101010101010000000001013E
:101B9E00010000010000000001010101010001012E
:101BAE000100010000000101000000010100000021
:101BBE00010001010100010000000101000000010F
:101BCE000100000001000100010000000100000101
:101BDE0001010100010000000101010101000100ED
:101BEE0000000101000000010000000000000000E4
:101BFE0000000001010100000000000000000000D4
:101C0E0000000000001E038802B5026B03E602C44A
:041C1E0002D80200E6
:00000001FF
