:020000040000FA
:100000000C9427010C9458010C9458010C9458013D
:100010000C9458010C9458010C9458010C945801FC
:100020000C9458010C9458010C9458010C945801EC
:100030000C9458010C9458010C9458010C945801DC
:100040000C9458010C9458010C9458010C945801CC
:100050000C9458010C9458010C9458010C94E2052E
:100060000C9458010C9458010C9458010C945801AC
:100070000C9458010C9458010C9458010C9458019C
:100080000C9458010C9458010C9458010C9458018C
:100090000C9458010C9458010C9458010C9458017C
:1000A0000C9458010C9458010C9458010C9458016C
:1000B0000C9458010C9458010C9458010C9458015C
:1000C0000C9458010C9458010C9458010C9458014C
:1000D0000C9458010C9458010C9458010C9458013C
:1000E0000C9458010C948D010C9482010C94A10184
:1000F0000C9478010C94B8010C9493010C94B90100
:100100000C949D010C94B3010C9497010C948A01FA
:100110000C94AB010C94BD010C9486010C947E01EF
:100120000C94AF010C94A5010C946009000021000F
:10013000240027002A002D003000330001010000B8
:10014000040107010A0100002200250028002B00FD
:100150002E003100340002010000050108010B01EE
:10016000000020002300260029002C002F00320070
:100170000001000003010601090105050505070549
:1001800008080808020202020A0A08080404040413
:10019000010101010101010103030303030303033F
:1001A000040707070C0C0C0C0C0C0C0C02020202CE
:1001B00006060606060606060B0B0B0B0B0B0B0BB7
:1001C0000102102020080810204010204080020169
:1001D000020108040201010204081020408080404E
:1001E000201008040201800402018040201008044D
:1001F00002010804020101020408102040800102EB
:1002000004081020408000000A0B02090C0D0E08A3
:1002100007030401000000000000000000000000CF
:1002200000000000000000000000000000000000CE
:10023000000012111000000000000000000000008B
:100240000000000000000000000000006009112410
:100250001FBECFEFD1E2DEBFCDBF00E00CBF13E089
:10026000A0E0B2E0E4E8F8E100E00BBF02C00790D4
:100270000D92A23EB107D9F724E0A2EEB3E001C08F
:100280001D92A236B207E1F711E0C7E2D1E000E02B
:1002900006C021970109802FFE010E94FF0AC63285
:1002A000D10780E00807A9F70E942C060C94400CA7
:1002B0000C9400008150823108F05AC0E82FF0E021
:1002C0008827EA59FE4F8F4F0C94FF0A86018A0156
:1002D00078017E018201B8018D01930197019D0192
:1002E000A101A501AB01AF01B801B301B901BD0185
:1002F000809180008F7780938000089580918000A6
:100300008F7DF9CF80918000877FF5CF84B58F777F
:1003100084BD089584B58F7DFBCF8091B0008F7729
:100320008093B00008958091B0008F7DF9CF8091C7
:1003300090008F77809390000895809190008F7D3A
:10034000F9CF80919000877FF5CF8091A0008F77C3
:100350008093A00008958091A0008F7DF9CF8091B7
:10036000A000877FF5CF809120018F7780932001B7
:100370000895809120018F7DF9CF80912001877FA2
:10038000F5CFCF93DF93282F30E0F901EA5FFD4FDF
:100390008491F901E054FE4FD491F901E658FE4FE3
:1003A000C491CC23A1F081110E945A01EC2FF0E0FE
:1003B000EE0FFF1FE05AFE4FA591B491EC91ED2393
:1003C00081E090E009F480E0DF91CF91089580E032
:1003D00090E0FACF1F93CF93DF93282F30E0F901FD
:1003E000EA5FFD4F8491F901E054FE4FD491F90189
:1003F000E658FE4FC491CC23A9F0162F81110E941C
:100400005A01EC2FF0E0EE0FFF1FEA5BFE4FA591C3
:10041000B4918FB7F894EC91111108C0D095DE23F8
:10042000DC938FBFDF91CF911F910895DE2BF8CF22
:10043000CF93DF9390E0FC01E054FE4F2491865867
:100440009E4FFC0184918823D1F090E0880F991F82
:10045000FC01E45DFE4FA591B491FC01EA5BFE4F07
:10046000C591D49161110EC09FB7F8948C91E22F81
:10047000E0958E238C932881E223E8839FBFDF9150
:10048000CF9108958FB7F894EC91E22BEC938FBF46
:10049000F6CF3FB7F8948091FA039091FB03A091B7
:1004A000FC03B091FD0326B5A89B05C02F3F19F0B2
:1004B0000196A11DB11D3FBFBA2FA92F982F8827E4
:1004C000BC01CD01620F711D811D911D42E0660FBF
:1004D000771F881F991F4A95D1F708958F929F9291
:1004E000AF92BF92CF92DF92EF92FF926B017C01AD
:1004F0000E9449024B015C01C114D104E104F104E2
:10050000B9F00E944902681979098A099B09683E75
:1005100073408105910580F321E0C21AD108E108FA
:10052000F10888EE880E83E0981EA11CB11CE4CF70
:10053000FF90EF90DF90CF90BF90AF909F908F9003
:1005400008952FB7F8946091F6037091F7038091A6
:10055000F8039091F9032FBF0895E091EF03F09114
:10056000F0038181883018F49081903120F081E08F
:100570008093EE0308950280F381E02D309739F0E7
:1005800021818213F8CF20819213F5CFF0CF109202
:10059000EE0308950F931F938AE00E94C101019713
:1005A00051F58091E60381110DC00E94A102609374
:1005B000E2037093E3038093E4039093E50381E007
:1005C0008093E6030E94A1020091E2031091E303ED
:1005D0002091E4033091E503601B710B820B930BB8
:1005E0006C3D75408105910540F081E090E090936D
:1005F000F4038093F3031092E6031F910F91089583
:10060000CF92DF92EF92FF920F931F93CF93DF93DE
:100610001F921F92CDB7DEB769834A83880F991F57
:1006200000915C0410915D04000F111FE6E0F4E0FE
:100630009F01265034402017310714F41192F8CF4F
:100640002981FC01EA5FFB4F21838A81808360E07E
:1006500080915A040E94EA011016110604F5015017
:100660001109F801EA5FFB4FE080D0905804C09078
:10067000560488E0F82E6E2D661F6627661F8C2DA7
:100680000E94EA01EE0C61E08D2D0E94EA0160E01B
:100690008D2D0E94EA01FA94F110EDCFDDCF61E0DB
:1006A00080915A040F900F90DF91CF911F910F917D
:1006B000FF90EF90DF90CF900C94EA01EF92FF92C1
:1006C0001F93CF93DF9320915C0430915D048217D8
:1006D0009307B4F4EC0123E0880F991F2A95E1F702
:1006E0009C012A5E3B4F790111E0F70111927F01D5
:1006F00040E0612FCE010E9400031F5F1930A9F76F
:10070000DF91CF911F91FF90EF9008958830910570
:10071000D8F568307105D0F420915C0430915D0407
:10072000121613068CF520E830E002C035952795A7
:100730006A95E2F7FC01EA5FFB4F4089422B408B50
:1007400061E0680F90E080E00C940003685071094C
:1007500068307105C8F420915C0430915D0422304A
:10076000310594F020E830E002C0359527956A9570
:10077000E2F7FC01E25FFB4F4089422B408B61E0D6
:10078000680F81E090E0E0CF08952F923F924F9262
:100790005F926F927F928F929F92AF92BF92CF9211
:1007A000DF92EF92FF920F931F93CF93DF9300D0CE
:1007B00000D0CDB7DEB78C017B012A013A832983B3
:1007C00090E080E00E945E0381E090E00E945E0382
:1007D000ED82FE82D12CC12CC20101979C838B83B8
:1007E000ED81FE8180819181019639F50E5F1F4F69
:1007F000FFEFCF1ADF0A8D819E8102969E838D8343
:100800004C145D0469F780E026960FB6F894DEBFBD
:100810000FBECDBFDF91CF911F910F91FF90EF9051
:10082000DF90CF90BF90AF909F908F907F906F9010
:100830005F904F903F902F900895380189819A8161
:10084000681A790A90E169167104ECF682E0E82EE4
:10085000F12C4301B12CA12CC7010297E5E0E89FE0
:100860001001E99F300C1124F0E18F169104B8F4C7
:10087000ED81FE818081918129E1289FF001299FEE
:10088000F00D1124E20DF31DE15EFD4FEA0DFB1D9D
:100890008081882321F0B401C7010E9486038FEF75
:1008A000A81AB80A9FEF891A990AE5E0AE16B104B2
:1008B000D9F6FFEFEF1AFF0A27E0E216F10449F636
:1008C0008CE0681671042CF4EB81FC81EC15FD05BD
:1008D00019F00A5F1F4F8CCF81E096CF2F923F9285
:1008E0004F925F926F927F928F929F92AF92BF9240
:1008F000CF92DF92EF92FF920F931F93CF93DF93EC
:1009000000D01F92CDB7DEB79C838B837B016A0139
:100910003A83298330E020E00E94C503312C212C4A
:100920002801110F66087708811134C00E94A102C6
:100930004B015C018092020490920304A092040493
:10094000B09205048091FE039091FF03A0910004F2
:10095000B0910104A5019401281B390B4A0B5B0BD4
:10096000DA01C90184159505A605B705F8F29101CC
:10097000A601B7018B819C810E94C5038092FE0372
:100980009092FF03A0920004B09201043FEF231A5B
:10099000330ACACF49815A81BA01550F880B990B86
:1009A0000F900F900F900F90DF91CF911F910F91AB
:1009B000FF90EF90DF90CF90BF90AF909F908F907F
:1009C0007F906F905F904F903F902F900C946E02AD
:1009D000CF93DF9390E080E00E945E0381E090E09F
:1009E0000E945E036091E9037091EA038091E7033E
:1009F0009091E8030E948603C091EF03D091F00329
:100A0000209751F0688170E0898190E00E94860310
:100A10000A80DB81C02DF4CFDF91CF9108958F92B2
:100A20009F92AF92BF92CF92DF92EF92FF920E947D
:100A3000300A20E130E040E050E00E94880A7093E4
:100A4000EA036093E9030E94300A28E030E040E0C6
:100A500050E00E94880A7093E8036093E70380E106
:100A6000882E912CA12CB12C98E0C92ED12CE12CF0
:100A7000F12CE091EF03F091F0038091E903909164
:100A8000EA032091E7033091E803309709F14081B0
:100A90004817190621F441814217130621F00280FC
:100AA000F381E02DF2CF0E94300AA50194010E944B
:100AB000880A7093EA036093E9030E94300AA70151
:100AC00096010E94880A7093E8036093E703D1CFF0
:100AD000FF90EF90DF90CF90BF90AF909F908F905E
:100AE0000895CF93DF93C82FD62F84E090E00E9423
:100AF0001B0BFC01D083C1838091EF039091F00325
:100B000093838283F093F003E093EF03DF91CF911F
:100B10000895E091EF03F091F0039181208180919D
:100B200004028C34E1F16CF58434A9F181814091A7
:100B3000E7035091E8038417150699F56081409109
:100B4000E9035091EA036417150659F59183208350
:100B50000E9471050E940F058091F1039091F203AC
:100B600001969093F2038093F1038091000290919B
:100B70000102499797FF21C01092010210920002D2
:100B80000895823521F0853589F68FEF05C081E023
:100B9000820F8083CBCF81E0890F8183C7CF8FEF16
:100BA000F7CF0280F381E02D309759F081813081B9
:100BB00091832083232F982FF4CF90930102809369
:100BC000000208951F920F920FB60F9211242F93D7
:100BD0003F938F939F93AF93BF938091F603909130
:100BE000F703A091F803B091F9033091F50323E0E6
:100BF000230F2D3758F50196A11DB11D2093F50344
:100C00008093F6039093F703A093F803B093F9034E
:100C10008091FA039091FB03A091FC03B091FD0336
:100C20000196A11DB11D8093FA039093FB03A0933D
:100C3000FC03B093FD03BF91AF919F918F913F91C2
:100C40002F910F900FBE0F901F90189526E8230F3D
:100C50000296A11DB11DD2CFCF93DF93CDB7DEB7E2
:100C600068970FB6F894DEBF0FBECDBF789484B5F9
:100C7000826084BD84B5816084BD85B5826085BD98
:100C800085B5816085BD80916E00816080936E0026
:100C90001092810080918100826080938100809118
:100CA00081008160809381008091800081608093C9
:100CB00080008091B10084608093B1008091B00089
:100CC00081608093B0008091910082608093910058
:100CD000809191008160809391008091900081606B
:100CE000809390008091A10082608093A100809108
:100CF000A10081608093A1008091A0008160809319
:100D0000A0008091210182608093210180912101C6
:100D10008160809321018091200181608093200176
:100D200080917A00846080937A0080917A0082605A
:100D300080937A0080917A00816080937A0080911C
:100D40007A00806880937A001092C1008AE0EFE018
:100D5000F2E0DE01119601900D928A95E1F79E0175
:100D60002F5F3F4F79018E01055F1F4FF701808193
:100D7000F2E0EF0EF11C60E00E9418020E151F0554
:100D8000A9F780915C0490915D041816190634F45B
:100D900041E06CE090E080E00E94000380915C0400
:100DA00090915D04029734F041E06CE081E090E0C6
:100DB0000E94000380915C0490915D04181619064E
:100DC00034F44FE06AE090E080E00E9400038091FC
:100DD0005C0490915D04029734F04FE06AE081E09A
:100DE00090E00E94000310E061E0812F0E94180251
:100DF0001F5F1830C9F71EE061E0812F0E941802C2
:100E00001F5F1631C9F710E060E0812F0E94EA01F0
:100E10001F5F1830C9F71EE061E0812F0E94EA01D0
:100E20001F5F1631C9F76AE0262E312C48E0842E68
:100E3000912CA12CB12C53E0452E512C612C712CFE
:100E40001092F4031092F3030E94A1026093FE0338
:100E50007093FF03809300049093010486E0E9E11E
:100E6000F2E0DE01119601900D928A95E1F704E619
:100E700010E030E020E043E050E0BE016F5F7F4FC4
:100E800081E090E00E946E0481E090E09093030284
:100E9000809302020E94CA028091F3039091F403AE
:100EA000892B09F4E7C01092F4031092F303109217
:100EB000F2031092F1030E940F051092F0031092BA
:100EC000EF0382E5809304020E94A102611571057F
:100ED0008105910511F00E947F0A0E94300A22E0EC
:100EE00030E040E050E00E94880A18E0672B09F0EB
:100EF00010E00E94300AA50194010E94880AF62E93
:100F0000612F8F2D0E94710561E0610F8F2D0E946E
:100F100071052091020230910302032E000C440B54
:100F2000550B2150310941095109AEE3BEEF0E9432
:100F3000B50AA30192010E94880A2C503E4F4F4FE0
:100F40005F4F30930102209300020E94E8040E9448
:100F5000A1026093FE037093FF03809300049093BB
:100F600001041092EE0364EF71E080E090E00E94D3
:100F70006E0294E4C92E22E5D22E3CE4F32E85E5E0
:100F8000E82E8091EE03811154C10E94CA02809123
:100F9000F3039091F403892B09F08AC18AE00E943F
:100FA000C1018130910509F0D5C02091EB0330914A
:100FB000EC03232B21F49093EC038093EB038091BB
:100FC000ED038111DECF87E10E94C101019709F095
:100FD00008C180910402853591F0E09204020E94DC
:100FE00089050E94AD020E94E8040E94A10260935C
:100FF000FE037093FF0380930004909301040E940A
:10100000A1026093020470930304809304049093FC
:1010100005040091FE031091FF032091000430911C
:101020000104601B710B820B930B00910002109165
:101030000102012E000C220B330B6017710782078F
:10104000930708F49ECF0E9489050E94AD020E947A
:10105000E8048091020490910304A0910404B091EB
:1010600005048093FE039093FF03A0930004B093C4
:10107000010485CF0E94A1026B017C01C092020491
:10108000D0920304E0920404F09205048091FE03E0
:101090009091FF03A0910004B0910104A701960173
:1010A000281B390B4A0B5B0BDA01C9018C329140CA
:1010B000A105B10508F4EECE87E10E94C10181309F
:1010C000910571F520910202309103022F5F3F4F8D
:1010D000253031059CF53093030220930202C09223
:1010E000FE03D092FF03E0920004F092010480918D
:1010F000020290910302B1010E94EB0A7A83698394
:101100009E838D8304E610E030E020E043E050E071
:10111000BE016F5F7F4F81E090E00E946E04BACE07
:1011200089E10E94C101019709F0B4CE80910202C9
:10113000909103020197181619062CF4909303025C
:1011400080930202CCCF44E050E0509303024093DE
:101150000202C5CF892B09F032CF8091EB03909129
:10116000EC03019709F02BCF8091ED031092EC0373
:101170001092EB03811120C08091F1039091F20352
:10118000EFEFFFEFFC83EB83B1010E94EB0A7A8360
:1011900069839E838D8310E000E030E020E043E02F
:1011A00050E0BE016F5F7F4F81E090E00E946E04CF
:1011B000F1E0F093ED0303CF8091020490910304DA
:1011C000A0910404B09105048093FE039093FF0363
:1011D000A0930004B09301040E94E8041092ED0370
:1011E000EECE89E10E94C101019741F48091040291
:1011F000843409F404CFC0920402F1CE8CE10E9441
:10120000C101019741F4809104028C3409F4F7CEB6
:10121000F0920402E4CE8EE10E94C101019709F030
:10122000EECE80910402823509F4E9CED092040218
:10123000D6CE8091F1039091F2032AE030E03A8318
:1012400029832BE030E03C832B832CE030E03E838D
:101250002D832DE030E038872F834FEF5FEF5A87E3
:1012600049874EE050E05C874B874FE050E05E8757
:101270004D87388B2F8720E130E03A8B298B21E195
:1012800030E03C8B2B8BB1010E94EB0A7E8B6D8B87
:10129000988F8F8B04E610E02CEB32E04CE050E0AE
:1012A000BE016F5F7F4F90E080E00E946E04C8CD6A
:1012B00080E090E0892B09F4B9CD0E940000B6CD02
:1012C000CF93DF930E94300A20E130E040E050E00D
:1012D0000E94880A7093EA036093E9030E94300A2F
:1012E00028E030E040E050E00E94880A7093E80374
:1012F0006093E703CDE0D0E0D0935704C093560449
:101300008BE090E090935904809358048CE090E037
:1013100090935B0480935A0482E090E090935D0484
:1013200080935C0461E08DE00E94180261E080918E
:1013300058040E94180261E080915A040E94180229
:1013400061E080915A040E94EA01D0935704C0934F
:101350005604E6E1F4E086E594E011928E179F07CB
:10136000E1F7D0E0C0E080915C0490915D04C81783
:10137000D9073CF540E06FE0CE010E940003809168
:101380005C0490915D04C817D9072CF447E06BE02A
:10139000CE010E94000340E069E0CE010E940003FC
:1013A000CE010E945E0380915C0490915D04C81799
:1013B000D9072CF440E06CE0CE010E940003219696
:1013C000D2CFDF91CF9108958F929F92AF92BF922B
:1013D000CF92DF92EF92FF92CF93DF93EC0168817F
:1013E00079818A819B81611571058105910521F4BF
:1013F00064E279ED8BE597E02DE133EF41E050E0D9
:101400000E94880A49015A019B01AC01A7EAB1E494
:101410000E94A70A6B017C01ACEEB4EFA501940118
:101420000E94B50AC60ED71EE81EF91EF7FE06C0BA
:1014300081E0C81AD108E10880E8F80AC882D98298
:10144000EA82FB82C701B6019F77DF91CF91FF90BF
:10145000EF90DF90CF90BF90AF909F908F900895C6
:101460008F929F92AF92BF92CF92DF92EF92FF92B4
:101470006091050270910602809107029091080226
:10148000611571058105910521F464E279ED8BE523
:1014900097E02DE133EF41E050E00E94880A4901D6
:1014A0005A019B01AC01A7EAB1E40E94A70A6B01B3
:1014B0007C01ACEEB4EFA50194010E94B50AC60E02
:1014C000D71EE81EF91EF7FE06C081E0C81AD10833
:1014D000E10880E8F80AC0920502D0920602E09284
:1014E0000702F0920802C701B6019F77FF90EF90C4
:1014F000DF90CF90BF90AF909F908F9008956093B2
:1015000005027093060280930702909308020895E3
:10151000052E97FB1EF400940E949F0A57FD07D0EA
:101520000E94BA0A07FC03D04EF40C949F0A50950F
:101530004095309521953F4F4F4F5F4F08959095BF
:101540008095709561957F4F8F4F9F4F08950E94B2
:10155000DC0AA59F900DB49F900DA49F800D911D56
:1015600011240895B7FF0C94A70A0E94A70A821BB2
:10157000930B0895A1E21A2EAA1BBB1BFD010DC0FF
:10158000AA1FBB1FEE1FFF1FA217B307E407F50733
:1015900020F0A21BB30BE40BF50B661F771F881F0F
:1015A000991F1A9469F760957095809590959B01A5
:1015B000AC01BD01CF010895A29FB001B39FC0014E
:1015C000A39F700D811D1124911DB29F700D811D6F
:1015D0001124911D089597FB072E16F4009407D04F
:1015E00077FD09D00E94070B07FC05D03EF49095CB
:1015F00081959F4F0895709561957F4F0895EE0FE7
:10160000FF1F881F8BBF0790F691E02D1994AA1B2E
:10161000BB1B51E107C0AA1FBB1FA617B70710F0DD
:10162000A61BB70B881F991F5A95A9F7809590950F
:10163000BC01CD0108950F931F93CF93DF938230A8
:10164000910510F482E090E0E0916004F091610473
:1016500030E020E0B0E0A0E0309799F421153105AA
:1016600009F44AC0281B390B24303105D8F58A818A
:101670009B816115710589F1FB0193838283FE01D2
:1016800011C0408151810281138148175907E0F050
:101690004817590799F4109761F012960C93129716
:1016A00013961C933296CF01DF91CF911F910F912A
:1016B00008950093600410936104F4CF211531055F
:1016C00051F04217530738F0A901DB019A01BD011F
:1016D000DF01F801C1CFEF01F9CF9093610480934E
:1016E0006004CDCFFE01E20FF31F8193919322504E
:1016F000310939832883D7CF20915E0430915F046C
:10170000232B41F420910B0230910C0230935F04A3
:1017100020935E042091090230910A0221153105BF
:1017200041F42DB73EB740910D0250910E02241B9B
:10173000350BE0915E04F0915F04E217F307A0F42B
:101740002E1B3F0B2817390778F0AC014E5F5F4F17
:101750002417350748F04E0F5F1F50935F044093E6
:101760005E04819391939FCFF0E0E0E09CCFCF9314
:10177000DF930097E9F0FC01329713821282A09167
:101780006004B0916104ED0130E020E01097A1F415
:1017900020813181820F931F20915E0430915F047C
:1017A0002817390709F061C0F0935F04E0935E04E5
:1017B000DF91CF910895EA01CE17DF07E8F54A815E
:1017C0005B819E0141155105B1F7E901FB83EA8375
:1017D00049915991C40FD51FEC17FD0761F4808121
:1017E00091810296840F951FE901998388838281F4
:1017F00093819B838A83F0E0E0E012968D919C9127
:1018000013970097B9F52D913C911197CD01029650
:10181000820F931F20915E0430915F0428173907CF
:1018200039F6309751F51092610410926004B0932C
:101830005F04A0935E04BCCFD383C28340815181F7
:10184000840F951FC817D90761F44E5F5F4F8881D9
:101850009981480F591F518340838A819B819383CB
:1018600082832115310509F0B0CFF0936104E09334
:1018700060049ECFFD01DC01C0CF13821282D7CF5E
:10188000F894FFCFF4010100520100000000006253
:10189000048000170019001C001E000A000000FF51
:1018A000FF01000001010100010000010101000130
:1018B000000101010000010001010100000101001F
:1018C0000000000100000000010000000001000015
:1018D0000001010100010101010000000000010000
:1018E00001010100010000000001010101010101ED
:1018F00001010000000000010000010100000000E3
:1019000000010101010100000001010000010001CE
:1019100000010000010001010101010000000100BF
:1019200001010101010100000000010101010000AD
:10193000000000010101010100000101010101009D
:10194000000000010101010001000000010001018F
:10195000010001010101010000000001000000017F
:101960000000000100000001000000000101010072
:101970000100000001000101010001000000010060
:10198000010101000001010100010000000100014E
:10199000010101000000000101010101000001013D
:1019A0000101010000000001000001010100000030
:1019B000010001010101000001000000010001001F
:1019C000010000000101010101010100000001010D
:1019D00000000001010100010101000100010100FE
:1019E00000000101000000010101010101010000EE
:1019F00000000101010000010000000001010101DF
:101A000001000101010001000000010100000001CE
:101A100001000000010001010100010000000101BE
:101A200000000001010000000100010001000000B1
:101A3000010000010101010001000000010101019C
:101A40000100010000000101000000010000000091
:101A50000000000000000001010100000000000083
:061A600000000000000080
:020000040003F7
:10E000000D9489F10D94B2F10D94B2F10D94B2F129
:10E010000D94B2F10D94B2F10D94B2F10D94B2F1F0
:10E020000D94B2F10D94B2F10D94B2F10D94B2F1E0
:10E030000D94B2F10D94B2F10D94B2F10D94B2F1D0
:10E040000D94B2F10D94B2F10D94B2F10D94B2F1C0
:10E050000D94B2F10D94B2F10D94B2F10D94B2F1B0
:10E060000D94B2F10D94B2F10D94B2F10D94B2F1A0
:10E070000D94B2F10D94B2F10D94B2F10D94B2F190
:10E080000D94B2F10D94B2F10D94B2F10D94B2F180
:10E090000D94B2F10D94B2F10D94B2F10D94B2F170
:10E0A0000D94B2F10D94B2F10D94B2F10D94B2F160
:10E0B0000D94B2F10D94B2F10D94B2F10D94B2F150
:10E0C0000D94B2F10D94B2F10D94B2F10D94B2F140
:10E0D0000D94B2F10D94B2F10D94B2F10D94B2F130
:10E0E0000D94B2F141546D656761323536300041AF
:10E0F000726475696E6F206578706C6F72657220DE
:10E1000073746B3530305632206279204D4C530099
:10E11000426F6F746C6F616465723E004875683F52
:10E1200000436F6D70696C6564206F6E203D200048
:10E130004350552054797065202020203D20005FF9
:10E140005F4156525F415243485F5F3D2000415658
:10E1500052204C696243205665723D20004743437C
:10E160002056657273696F6E203D20004350552024
:10E1700049442020202020203D20004C6F7720663D
:10E18000757365202020203D20004869676820665F
:10E190007573652020203D200045787420667573D6
:10E1A00065202020203D20004C6F636B2066757336
:10E1B000652020203D20004D617220203720323024
:10E1C000313300312E362E3800342E332E350056A2
:10E1D00023202020414444522020206F7020636F70
:10E1E00064652020202020696E73747275637469E1
:10E1F0006F6E2061646472202020496E74657272B3
:10E20000757074006E6F20766563746F7200726A49
:10E210006D702020006A6D70200057686174207056
:10E220006F72743A00506F7274206E6F7420737541
:10E2300070706F72746564004D7573742062652030
:10E2400061206C6574746572002000577269747483
:10E25000696E672045450052656164696E672045B7
:10E26000450045452065727220636E743D00504F35
:10E27000525400303D5A65726F2061646472003FF1
:10E280003D43505520737461747300403D454550C3
:10E29000524F4D207465737400423D426C696E6B41
:10E2A000204C454400453D44756D70204545505215
:10E2B0004F4D00463D44756D7020464C415348001B
:10E2C000483D48656C70004C3D4C69737420492F83
:10E2D0004F20506F72747300513D51756974005234
:10E2E0003D44756D702052414D00563D73686F7707
:10E2F00020696E7465727275707420566563746FF0
:10E30000727300593D506F727420626C696E6B00BD
:10E310002A0011241FBECFEFD1E2DEBFCDBF01E046
:10E320000CBF12E0A0E0B2E0EEE1FDEF03E00BBFB6
:10E3300002C007900D92A030B107D9F712E0A0E01B
:10E34000B2E001C01D92AE30B107E1F70F9460F367
:10E350000D948DFE01E20EBF0FEF0DBF11241FBE05
:10E360000D9460F30D9400F020E030E040ED57E0B4
:10E3700005C0FA013197F1F72F5F3F4F2817390792
:10E38000C0F308959C01260F311DC901A0E0B0E043
:10E390002F5F3F4FABBFFC018791882361F08093D3
:10E3A000C6008091C00086FFFCCF8091C0008064D1
:10E3B0008093C000EACF08958DE08093C6008091DD
:10E3C000C00086FFFCCF8091C00080648093C000B5
:10E3D0008AE08093C6008091C00086FFFCCF8091C8
:10E3E000C00080648093C00008950F94C2F10F9420
:10E3F000DCF10895FC019081992359F09093C600B7
:10E400008091C00086FFFCCF8091C0008064809323
:10E41000C0003196992379F70895282F982F929567
:10E420009F70892F805D8A3308F0895F8093C600D2
:10E430008091C00086FFFCCF8091C00080648093F3
:10E44000C000822F8F70982F905D9A3308F0995FEB
:10E450009093C6008091C00086FFFCCF8091C000E1
:10E4600080648093C00008959C01FB01853691056E
:10E470001CF46330710594F0C90164E670E00F94F8
:10E480002EFE605D7F4F6093C6008091C00086FFC6
:10E49000FCCF8091C00080648093C0002B30310598
:10E4A00014F43297B4F0C90164E670E00F942EFEC4
:10E4B0006AE070E00F942EFE605D7F4F6093C600AF
:10E4C0008091C00086FFFCCF8091C0008064809363
:10E4D000C000C9016AE070E00F942EFEC0968093E0
:10E4E000C6008091C00086FFFCCF8091C000806490
:10E4F0008093C00008951F93182F8EE692EE60E07F
:10E500000F94C2F11093C6008091C00086FFFCCF2B
:10E510008091C00080648093C0000F94DCF11F9153
:10E5200008952F923F924F925F926F927F928F92B7
:10E530009F92AF92BF92CF92DF92EF92FF920F9392
:10E540001F93DF93CF93CDB7DEB762970FB6F894E2
:10E55000DEBF0FBECDBF382E622ECA01DB015C01CB
:10E560006D01772420E2222E2E010894411C511CBB
:10E570008BC081E0A81680E0B80681E0C80680E084
:10E58000D80628F0C601AA27BB270F940DF2BB2797
:10E59000AD2D9C2D8B2D0F940DF28A2D0F940DF225
:10E5A0002092C6008091C00086FFFCCF8091C00001
:10E5B00080648093C0009DE29093C6008091C0006B
:10E5C00086FFFCCF8091C00080648093C0002092C1
:10E5D000C6008091C00086FFFCCF8091C00080649F
:10E5E0008093C00019828601750188249924A1E0D6
:10E5F0003A1651F03A1620F0B2E03B1661F409C029
:10E600000BBFF701779007C0C7010F9477FE782EF4
:10E6100002C0F7017080872D0F940DF22092C60082
:10E620008091C00086FFFCCF8091C0008064809301
:10E63000C000872D8052F401EF70F0708F3520F408
:10E64000E40DF51D708204C0E40DF51D8EE280839B
:10E650000894E11CF11C011D111D0894811C911CE2
:10E6600090E18916910409F0C2CF80E190E0A0E02A
:10E67000B0E0A80EB91ECA1EDB1E198AC2010F9493
:10E68000FAF10F94DCF16A94662009F072CF629679
:10E690000FB6F894DEBF0FBECDBFCF91DF911F91B3
:10E6A0000F91FF90EF90DF90CF90BF90AF909F9031
:10E6B0008F907F906F905F904F903F902F90089534
:10E6C0002F923F924F925F926F927F928F929F9282
:10E6D000AF92BF92CF92DF92EF92FF920F931F9370
:10E6E000DF93CF93CDB7DEB7CD53D1400FB6F894BB
:10E6F000DEBF0FBECDBF01E20EBF0FEF0DBF94B75F
:10E70000F894A89514BE80916000886180936000A1
:10E7100010926000789493FF05C0E0910002F091A0
:10E7200001021995279A2F9A8091C00082608093E8
:10E73000C00080E18093C40088E18093C1000000A4
:10E74000EE24FF24870144E0A42EB12CCC24DD2448
:10E7500024C0C5010197F1F70894E11CF11C011DCB
:10E76000111D21E2E2162EE4F20620E0020720E06D
:10E77000120718F031E0C32ED12CC801B70127ECE5
:10E780003BE140E050E00F9441FE611571058105C9
:10E79000910519F485B1805885B98091C00087FD35
:10E7A00003C0C114D104A9F2A6014F5F5F4FC25E3E
:10E7B000DE4F59834883CE51D140C25EDE4F8881FF
:10E7C0009981CE51D140019711F00D9410FEC05D9A
:10E7D000DE4F19821882C053D14060E0C15DDE4F28
:10E7E0001882CF52D14088249924C35DDE4F19820C
:10E7F0001882CD52D140C05EDE4F188219821A8233
:10E800001B82C052D140CE5CDE4F188219821A8220
:10E810001B82C253D140EE24FF2487010BBFF701B6
:10E8200007911691C45CDE4F19830883CC53D14005
:10E830000D940BFEC25EDE4F28813981CE51D1404E
:10E840002130310509F52091C600C25EDE4F1982E4
:10E850001882CE51D14022C02F5F3F4F4F4F5F4FA4
:10E86000213082E138078AE7480780E0580780F0C6
:10E87000C45CDE4FE881F981CC53D140EF5FFF4F9C
:10E8800019F0EE27FF27099420E030E040E050E047
:10E890008091C00087FFE0CF2091C600C35DDE4FAE
:10E8A00048815981CD52D1404F5F5F4FC35DDE4FEC
:10E8B00059834883CD52D140213209F063C64A3092
:10E8C000510508F05FC60894811C911C53E0851621
:10E8D000910409F059C600E010E018C081E280936D
:10E8E000C6008091C00086FFFCCF8091C00080648C
:10E8F0008093C0002F5F3F4F2931310579F70F9486
:10E90000DCF10F5F1F4F0530110519F020E030E0FA
:10E91000E5CF10920A0210920B0210920C02109294
:10E920000D02109206021092070210920802109235
:10E930000902109202021092030210920402109235
:10E9400005028FEE90EE60E00F94F5F180E191EE1C
:10E9500060E00F94C2F18091C00087FFFCCF9091DE
:10E96000C600903608F09F759032B8F09093C600BC
:10E970008091C00086FFFCCF8091C00080648093AE
:10E98000C000A0E2A093C6008091C00086FFFCCF2B
:10E990008091C00080648093C000983409F4D7C18E
:10E9A0009934B8F4923409F459C1933458F490333B
:10E9B00019F1903308F4E3C59F33A1F1903409F0C5
:10E9C000DEC5BDC0953409F470C1963409F0D7C5D1
:10E9D00098C1923509F42BC2933538F49C3409F46C
:10E9E000F5C1913509F0CBC518C2963509F445C279
:10E9F000993509F0C4C567C483E792EE62E00F94CD
:10EA0000F5F110920602109207021092080210927D
:10EA1000090210920A0210920B0210920C0210923C
:10EA20000D0213C18FE792EE62E00F94F5F18FEEC5
:10EA300090EE60E00F94F5F181E291EE60E00F94CA
:10EA4000C2F187EB91EE60E00F94F5F180E391EE77
:10EA500060E00F94C2F184EE90EE60E00F94F5F167
:10EA60008FE391EE60E00F94C2F186E090E061E008
:10EA700070E00F9434F20F94DCF18DE591EE60E0DC
:10EA80000F94C2F189EC91EE60E00F94F5F18EE401
:10EA900091EE60E00F94C2F183EC91EE60E00F9490
:10EAA000F5F18CE691EE60E00F94C2F18EE10F94E7
:10EAB0000DF288E90F940DF281E00F940DF20F949E
:10EAC000DCF18BE791EE60E00F94C2F119E0E0E039
:10EAD000F0E010935700E4918E2F0F940DF20F94F5
:10EAE000DCF18AE891EE60E00F94C2F1E3E0F0E03F
:10EAF00010935700E4918E2F0F940DF20F94DCF1D8
:10EB000089E991EE60E00F94C2F1E2E0F0E0109349
:10EB10005700E4918E2F0F940DF20F94DCF188EAE8
:10EB200091EE60E00F94C2F1E1E0F0E01093570045
:10EB30001491812F0F940DF20F94DCF107CF8BE825
:10EB400092EE62E00F94F5F18BE492EE60E00F94A8
:10EB5000F5F10F94DCF100E010E019C0C8016F2D51
:10EB60000F947FFEFF2031F489E492EE60E00F9471
:10EB7000C2F10BC0F092C6008091C00086FFFCCFAE
:10EB80008091C00080648093C0000F5F1F4FC80158
:10EB900081519F41A0E0B0E0ABBFFC01F790BAE229
:10EBA000FB1621F0E2E000301E07C1F60F94DCF105
:10EBB0000F94DCF187E592EE60E00F94F5F10F948D
:10EBC000DCF1CC24DD2400E010E01EC0C8010F946D
:10EBD00077FEF82E882331F489E492EE60E00F94FA
:10EBE000C2F10BC08093C6008091C00086FFFCCFAD
:10EBF0008091C00080648093C000FE1419F00894D6
:10EC0000C11CD11C0F5F1F4FC80181519F41A0E063
:10EC1000B0E0ABBFFC01E790FAE2EF1621F022E092
:10EC20000030120799F60F94DCF10F94DCF182E6C4
:10EC300092EE60E00F94C2F1C60161E070E00F94C3
:10EC400034F20F94DCF10F94DCF110920202109276
:10EC50000302109204021092050278CE89E992EE26
:10EC600062E00F94F5F1279A2F9A16C02F9880E052
:10EC700090E0E0EDF7E03197F1F7019684369105E9
:10EC8000C1F72F9A80E090E0E0EDF7E03197F1F7DF
:10EC9000019684369105C1F78091C00087FFE6CFC9
:10ECA0008091C00087FFFCCF64C485EA92EE62E0E9
:10ECB0000F94F5F140910202509103026091040219
:10ECC0007091050281E020E10F9491F2809102029F
:10ECD00090910302A0910402B091050280509F4FD1
:10ECE000AF4FBF4F8093020290930302A0930402A0
:10ECF000B093050280509041A040B04008F426CE69
:10ED0000A4CF83EB92EE62E00F94F5F140910602FE
:10ED100050910702609108027091090280E020E1A1
:10ED20000F9491F28091060290910702A09108023F
:10ED3000B091090280509F4FAF4FBF4F80930602A2
:10ED400090930702A0930802B0930902FFCD80ECD4
:10ED500092EE62E00F94F5F183E792EE60E00F949B
:10ED6000F5F18FE792EE60E00F94F5F18BE892EE0B
:10ED700060E00F94F5F189E992EE60E00F94F5F10F
:10ED800085EA92EE60E00F94F5F183EB92EE60E09D
:10ED90000F94F5F180EC92EE60E00F94F5F187ECC2
:10EDA00092EE60E00F94F5F188ED92EE60E00F9442
:10EDB000F5F18FED92EE60E00F94F5F18AEE92EEB0
:10EDC00060E00F94F5F183E093EEBDCD87EC92EE19
:10EDD00062E00F94F5F181E40F947BF282E40F94EA
:10EDE0007BF283E40F947BF284E40F947BF285E45E
:10EDF0000F947BF286E40F947BF287E40F947BF20E
:10EE000088E40F947BF28AE40F947BF28BE40F94F6
:10EE10007BF28CE40F947BF299CD88ED92EE62E068
:10EE20000F94F5F1772473948824992409C48FED05
:10EE300092EE62E00F94F5F140910A0250910B02BC
:10EE400060910C0270910D0282E020E10F9491F22A
:10EE500080910A0290910B02A0910C02B0910D02D8
:10EE600080509F4FAF4FBF4F80930A0290930B0289
:10EE7000A0930C02B0930D0269CD8AEE92EE62E08F
:10EE80000F94F5F184EE90EE60E00F94F5F18FECC5
:10EE900091EE60E00F94F5F1662477244301CC5D98
:10EEA000DE4F19821882C452D140D401C301B695F5
:10EEB000A79597958795CA5DDE4F88839983AA8326
:10EEC000BB83C652D140CC5DDE4FA881B981C4520C
:10EED000D1401196CC5DDE4FB983A883C452D14096
:10EEE000CD0162E070E00F9434F2B0E2B093C6005E
:10EEF0008091C00086FFFCCF8091C0008064809329
:10EF0000C000EDE2E093C6008091C00086FFFCCF18
:10EF10008091C00080648093C000F0E2F093C6004E
:10EF20008091C00086FFFCCF8091C00080648093F8
:10EF3000C000CA5DDE4FE880F9800A811B81C6529D
:10EF4000D140BB27A12F902F8F2D0F940DF2CA5DBA
:10EF5000DE4F8881C652D1400F940DF2B0E2FB2EF5
:10EF6000F092C6008091C00086FFFCCF8091C00067
:10EF700080648093C0000DE30093C6008091C000C0
:10EF800086FFFCCF8091C00080648093C00010E2B7
:10EF90001093C6008091C00086FFFCCF8091C00016
:10EFA00080648093C0008BBEF3012791C65DDE4F65
:10EFB0002883CA52D140A22EBB24CC24DD2408943D
:10EFC000611C711C811C911C8BBEF3018791282E42
:10EFD0003324442455240894611C711C811C911C09
:10EFE0008BBEF3013791C55DDE4F3883CB52D140E4
:10EFF0000894611C711C811C911C8BBEF30147910C
:10F00000C45DDE4F4883CC52D140ADEFEA2EAFEF66
:10F01000FA2EAFEF0A2FAFEF1A2F6E0C7F1C801E57
:10F02000911E142D032DF22CEE24EA0CFB1C0C1D5A
:10F030001D1D0F940DF220E22093C6008091C000A8
:10F0400086FFFCCF8091C00080648093C000C65DC5
:10F05000DE4F8881CA52D1400F940DF230E23093D6
:10F06000C6008091C00086FFFCCF8091C000806404
:10F070008093C000C45DDE4F8881CC52D1400F9494
:10F080000DF240E24093C6008091C00086FFFCCFA5
:10F090008091C00080648093C000C55DDE4F888190
:10F0A000CB52D1400F940DF250E25093C6008091A4
:10F0B000C00086FFFCCF8091C00080648093C000B8
:10F0C0008FEFE8168FEFF80680E0080780E018075A
:10F0D00031F484E092EE60E00F94C2F1DFC0D80119
:10F0E000C7018070907CA070B0708050904CA040A0
:10F0F000B040D1F52FEF3FE340E050E0E222F322B1
:10F1000004231523CA5DDE4FA880B980CA80DB8046
:10F11000C652D140AE0CBF1CC01ED11EAA0CBB1CD7
:10F12000CC1CDD1C8EE092EE60E00F94C2F1BB2798
:10F13000A12F902F8F2D0F940DF28E2D0F940DF285
:10F1400030E23093C6008091C00086FFFCCF8091F2
:10F15000C00080648093C0004EE34093C60080915D
:10F16000C00086FFFCCF87C08EE09EEFA0E0B0E03D
:10F17000E822F9220A231B239CE0E91694E9F90608
:10F1800090E0090790E0190709F088C0C45DDE4FE0
:10F19000A881CC52D140EA2EFF2400E010E0102FCD
:10F1A0000F2DFE2CEE24C55DDE4FB881CB52D14031
:10F1B000EB0EF11C011D111DD601C501817090706F
:10F1C000A070B070DC0199278827E80EF91E0A1F8D
:10F1D0001B1F20EF30E040E050E0A222B322C42207
:10F1E000D52241E1AA0CBB1CCC1CDD1C4A95D1F7F1
:10F1F000EA0CFB1C0C1D1D1D81E090E0A0E0B0E0BE
:10F20000282239224A225B2235E1220C331C441C7D
:10F21000551C3A95D1F7E20CF31C041D151D57013E
:10F220006801AA0CBB1CCC1CDD1C85E192EE60E0E1
:10F230000F94C2F1C801AA27BB270F940DF2BB2778
:10F24000A12F902F8F2D0F940DF28E2D0F940DF274
:10F2500090E29093C6008091C00086FFFCCF809121
:10F26000C00080648093C000AEE3A093C60080918C
:10F27000C00086FFFCCF8091C00080648093C000F6
:10F28000C601AA27BB270F940DF2BB27AD2D9C2DDD
:10F290008B2D0F940DF28A2D0F940DF20F94DCF14B
:10F2A000CC5DDE4FE881F981C452D140F99709F471
:10F2B0004DCBF4E0EF2EF12C012D112D6E0C7F1CA7
:10F2C000801E911EF2CD83E093EE62E00F94F5F183
:10F2D0008AE192EE60E00F94C2F18091C00087FF56
:10F2E000FCCF1091C6001F751093C6008091C0001E
:10F2F00086FFFCCF8091C00080648093C0000F9493
:10F30000DCF1812F81548A3108F036C1163409F4BA
:10F3100095C0173490F4133409F44EC0143430F40B
:10F320001134F1F0123409F01DC130C0143409F465
:10F3300059C0153409F016C16BC01A3409F4C4C0A1
:10F340001B3438F4173409F48FC0183409F00AC19B
:10F35000A1C01B3409F4D2C01C3409F003C1E8C0B9
:10F360008FEF81B90DC082B1809582B980E090E0C5
:10F37000E0EDF7E03197F1F70196883C9105C1F790
:10F380008091C00087FFEFCF12B8EFC08FEF84B934
:10F390000DC085B1809585B980E090E0E0EDF7E0A3
:10F3A0003197F1F70196883C9105C1F78091C00033
:10F3B00087FFEFCF15B8D9C08FEF87B90DC088B1DF
:10F3C000809588B980E090E0E0EDF7E03197F1F7C3
:10F3D0000196883C9105C1F78091C00087FFEFCF6F
:10F3E00018B8C3C08FEF8AB90DC08BB180958BB9A7
:10F3F00080E090E0E0EDF7E03197F1F70196883C8E
:10F400009105C1F78091C00087FFEFCF1BB8ADC059
:10F410008FEF8DB90DC08EB180958EB980E090E0F0
:10F42000E0EDF7E03197F1F70196883C9105C1F7DF
:10F430008091C00087FFEFCF1EB897C08FEF80BBD1
:10F440000DC081B3809581BB80E090E0E0EDF7E0F6
:10F450003197F1F70196883C9105C1F78091C00082
:10F4600087FFEFCF11BA81C08FEF83BB0DC084B38C
:10F47000809584BB80E090E0E0EDF7E03197F1F714
:10F480000196883C9105C1F78091C00087FFEFCFBE
:10F4900014BA6BC08FEF809301010FC080910201FD
:10F4A00080958093020180E090E0E0EDF7E03197F5
:10F4B000F1F70196883C9105C1F78091C00087FF64
:10F4C000EDCF1092020151C08FEF809304010FC065
:10F4D0008091050180958093050180E090E0E0ED4A
:10F4E000F7E03197F1F70196883C9105C1F78091DB
:10F4F000C00087FFEDCF1092050137C08FEF8093DA
:10F5000007010FC08091080180958093080180E079
:10F5100090E0E0EDF7E03197F1F70196883C910536
:10F52000C1F78091C00087FFEDCF109208011DC088
:10F530008FEF80930A010FC080910B01809580931B
:10F540000B0180E090E0E0EDF7E03197F1F70196F4
:10F55000883C9105C1F78091C00087FFEDCF1092E4
:10F560000B0103C085E292EEEEC98091C00087FFD7
:10F57000FCCF8091C600EAC988E392EEE4C98CE131
:10F5800091EEE1C988249924933011F1943028F444
:10F59000913089F09230B8F408C0953061F195301F
:10F5A000F0F0963009F048C043C02B3109F042C951
:10F5B00091E06BE13FC96227C15DDE4F2883CF52E6
:10F5C000D14092E037C9B22FA0E0622793E032C960
:10F5D000822F90E0A82BB92B622794E02BC92E3004
:10F5E00009F039C3622795E0C05DDE4F19821882A9
:10F5F000C053D1401FC9E1E0F0E0EC0FFD1FC05D3A
:10F60000DE4F08811981C053D140E00FF11F2083E4
:10F610000F5F1F4FC05DDE4F19830883C053D14079
:10F6200062270A171B0709F005C9D80196E002C92D
:10F63000261709F010C303C0973009F0FBC87724E0
:10F640009981933109F412C19431C8F4963009F4C8
:10F65000D8C0973050F4923009F406C1933009F4C1
:10F660006DC0913009F059C253C0913109F477C08F
:10F67000923108F0BBC0903109F04FC2F5C098310B
:10F6800009F487C0993150F4953109F4EFC09531F0
:10F6900008F4C6C1963109F040C2C2C19A3109F4DA
:10F6A0006CC09A3108F491C09B3109F45BC09D3164
:10F6B00009F033C29D81903359F48F81882311F46E
:10F6C0009EE11CC0813011F091E018C098E916C08D
:10F6D000892F807591F0903539F4E0E0F0E089E011
:10F6E0008093570094910AC0983539F4E3E0F0E034
:10F6F00089E080935700949101C090E01A821B82A8
:10F700008D818C831D829E831F8227E030E009C299
:10F710001A8288E08B8381E48C8386E58D8382E581
:10F720008E8389E48F8383E5888780E589878FE5E9
:10F730008A8782E38B872BE030E0F3C18A818139AD
:10F7400041F0823941F0803911F48FE005C080E04A
:10F7500003C082E001C08AE01A828B8344C0772410
:10F76000739482C08D81882311F48EE12CC0813086
:10F7700011F081E028C088E926C01A82E1E0F0E0BB
:10F7800089E08093570084918B831C8224E030E0D1
:10F79000C8C18B81803589F48C81883039F4E2E0EE
:10F7A000F0E089E08093570084910DC0E0E0F0E044
:10F7B00089E080935700849106C0E3E0F0E089E09F
:10F7C0008093570084911A82DFCF8D81836C99E0FA
:10F7D000E1E0F0E0082E90935700E89507B600FCB2
:10F7E000FDCF1A821B8223E030E09BC180EC8A832C
:10F7F000CE5CDE4F188219821A821B82C253D1401E
:10F800008EC18A8190E0A0E0B0E0582F44273327D2
:10F8100022278B8190E0A0E0B0E0DC0199278827C7
:10F82000282B392B4A2B5B2B8D8190E0A0E0B0E098
:10F83000282B392B4A2B5B2B8C8190E0A0E0B0E089
:10F84000BA2FA92F982F8827282B392B4A2B5B2BCF
:10F85000220F331F441F551FC05EDE4F288339839C
:10F860004A835B83C052D1401A8259C13A81C95C34
:10F87000DE4F3883C753D140CA5CDE4F1882C6536F
:10F88000D1408B81C82EDD24CA5CDE4F488159816E
:10F89000C653D140C42AD52A933109F082C0CE5C28
:10F8A000DE4F88819981AA81BB81C253D1408050AB
:10F8B000904CA340B04030F583E0CE5CDE4FE88052
:10F8C000F9800A811B81C253D140F70100935B008C
:10F8D00080935700E89507B600FCFDCFCE5CDE4F65
:10F8E000088119812A813B81C253D14000501F4FAA
:10F8F0002F4F3F4FCE5CDE4F088319832A833B8313
:10F90000C253D140C05EDE4F488159816A817B81FC
:10F91000C052D140DE011B9631E08C9111962C91A2
:10F9200011971296C75CDE4F2883C953D140C85C3B
:10F93000DE4F1882C853D14090E0C85CDE4FE881AA
:10F94000F981C853D1408E2B9F2B0C01FA01609393
:10F950005B0030935700E89511244E5F5F4F6F4F67
:10F960007F4F0EEFE02E0FEFF02ECE0CDF1CC114F8
:10F97000D10499F685E0C05EDE4F088119812A81A5
:10F980003B81C052D140F80120935B008093570027
:10F99000E89507B600FCFDCF81E180935700E8951C
:10F9A00035C0C05EDE4F88819981AA81BB81C0527B
:10F9B000D140B695A795979587957C018601ABE0D8
:10F9C000AA2EB12CAC0EBD1E0BC0D5016D915D01F0
:10F9D000C7010F947FFE0894E11CF11C01501040F8
:10F9E0000115110591F7A60160E070E0440F551F65
:10F9F000661F771FC05EDE4FE880F9800A811B8199
:10FA0000C052D1404E0D5F1D601F711F1A82C05E33
:10FA1000DE4F488359836A837B83C052D1407FC0C5
:10FA2000FA80C55CDE4FF882CB53D140C65CDE4F16
:10FA30001882CA53D1408B81C82EDD24C65CDE4FAC
:10FA400008811981CA53D140C02AD12A1A828981DA
:10FA5000BE016D5F7F4F843121F59601C05EDE4FA0
:10FA6000E880F9800A811B81C052D1400BBFF701A9
:10FA700087919691DB018C9311969C936E5F7F4FDB
:10FA8000D801C7010296A11DB11DC05EDE4F88835B
:10FA90009983AA83BB83C052D14022503040F1F6F3
:10FAA00036C0C05EDE4F288139814A815B81C052F9
:10FAB000D1400894C108D108760100E010E0089414
:10FAC000C11CD11C0894E11CF11C011D111DE20E8A
:10FAD000F31E041F151F21BDBB27A52F942F832FB5
:10FAE00082BD2F5F3F4F4F4F5F4FF89A80B5DB01CC
:10FAF0008D93BD012E153F054007510761F7C05E8C
:10FB0000DE4F288339834A835B83C052D1409601FC
:10FB10002D5F3F4FFB01108204C080EC8A8322E0FE
:10FB200030E08BE18093C6008091C00086FFFCCF5F
:10FB30008091C00080648093C000C15DDE4FF88179
:10FB4000CF52D140F093C6008091C00086FFFCCF19
:10FB50008091C00080648093C000432F3093C60022
:10FB60008091C00086FFFCCF8091C00080648093AC
:10FB7000C000922F2093C6008091C00086FFFCCF6A
:10FB80008091C00080648093C0008EE08093C600A6
:10FB90008091C00086FFFCCF8091C000806480937C
:10FBA000C00065E1C15DDE4FE880CF52D1406E25D7
:10FBB00069276427FE01319610C090819093C6009A
:10FBC0008091C00086FFFCCF31968091C000806498
:10FBD0008093C0006927215030402115310569F715
:10FBE0006093C6008091C00086FFFCCF8091C0006A
:10FBF00080648093C00085B1805885B9772081F4F6
:10FC0000C15DDE4F0881CF52D1400F5FC15DDE4F35
:10FC10000883CF52D14090E0A0E0B0E00D941AF4F8
:10FC200027982F9880E090E020ED37E0F901319798
:10FC3000F1F7019684369105C9F700008091C00064
:10FC40008D7F8093C00081E180935700E895EE2777
:10FC5000FF270994FFCF90E00D941AF497FB092E2B
:10FC600007260AD077FD04D02ED006D000201AF443
:10FC7000709561957F4F0895F6F7909581959F4F08
:10FC80000895A1E21A2EAA1BBB1BFD010DC0AA1FDD
:10FC9000BB1FEE1FFF1FA217B307E407F50720F0F5
:10FCA000A21BB30BE40BF50B661F771F881F991F70
:10FCB0001A9469F760957095809590959B01AC01B9
:10FCC000BD01CF010895AA1BBB1B51E107C0AA1FAC
:10FCD000BB1FA617B70710F0A61BB70B881F991FED
:10FCE0005A95A9F780959095BC01CD010895F99991
:10FCF000FECF92BD81BDF89A992780B50895262F31
:10FD0000F999FECF1FBA92BD81BD20BD0FB6F89400
:0EFD1000FA9AF99A0FBE01960895F894FFCF63
:00000001FF
