:100000000C9427010C9458010C9458010C9458013D
:100010000C9458010C9458010C9458010C945801FC
:100020000C9458010C9458010C9458010C945801EC
:100030000C9458010C9458010C9458010C945801DC
:100040000C9458010C9458010C9458010C945801CC
:100050000C9458010C9458010C9458010C94CE0542
:100060000C9458010C9458010C9458010C945801AC
:100070000C9458010C9458010C9458010C9458019C
:100080000C9458010C9458010C9458010C9458018C
:100090000C9458010C9458010C9458010C9458017C
:1000A0000C9458010C9458010C9458010C9458016C
:1000B0000C9458010C9458010C9458010C9458015C
:1000C0000C9458010C9458010C9458010C9458014C
:1000D0000C9458010C9458010C9458010C9458013C
:1000E0000C9458010C9446090C948D010C948201D7
:1000F0000C94A1010C9478010C94B8010C94930118
:100100000C94B9010C949D010C94B3010C949701CB
:100110000C948A010C94AB010C94BD010C948601E3
:100120000C947E010C94AF010C94A50100002100F9
:10013000240027002A002D003000330001010000B8
:10014000040107010A0100002200250028002B00FD
:100150002E003100340002010000050108010B01EE
:10016000000020002300260029002C002F00320070
:100170000001000003010601090105050505070549
:1001800008080808020202020A0A08080404040413
:10019000010101010101010103030303030303033F
:1001A000040707070C0C0C0C0C0C0C0C02020202CE
:1001B00006060606060606060B0B0B0B0B0B0B0BB7
:1001C0000102102020080810204010204080020169
:1001D000020108040201010204081020408080404E
:1001E000201008040201800402018040201008044D
:1001F00002010804020101020408102040800102EB
:1002000004081020408000000A0B02090C0D0E08A3
:1002100007030401000000000000000000000000CF
:1002200000000000000000000000000000000000CE
:10023000000012111000000000000000000000008B
:10024000000000000000000000000000460911242A
:100250001FBECFEFD1E2DEBFCDBF00E00CBF13E089
:10026000A0E0B2E0E0E5F8E100E00BBF02C00790DB
:100270000D92A23EB107D9F724E0A2EEB3E001C08F
:100280001D92A236B207E1F711E0C7E2D1E000E02B
:1002900006C021970109802FFE010E94E50AC6329F
:1002A000D10780E00807A9F70E9418060C94260CD5
:1002B0000C9400008150823108F05AC0E82FF0E021
:1002C0008827EA59FE4F8F4F0C94E50A86018A0170
:1002D00078017E018201B8018D01930197019D0192
:1002E000A101A501AB01AF01B801B301B901BD0185
:1002F000809180008F7780938000089580918000A6
:100300008F7DF9CF80918000877FF5CF84B58F777F
:1003100084BD089584B58F7DFBCF8091B0008F7729
:100320008093B00008958091B0008F7DF9CF8091C7
:1003300090008F77809390000895809190008F7D3A
:10034000F9CF80919000877FF5CF8091A0008F77C3
:100350008093A00008958091A0008F7DF9CF8091B7
:10036000A000877FF5CF809120018F7780932001B7
:100370000895809120018F7DF9CF80912001877FA2
:10038000F5CFCF93DF93282F30E0F901EA5FFD4FDF
:100390008491F901E054FE4FD491F901E658FE4FE3
:1003A000C491CC23A1F081110E945A01EC2FF0E0FE
:1003B000EE0FFF1FE05AFE4FA591B491EC91ED2393
:1003C00081E090E009F480E0DF91CF91089580E032
:1003D00090E0FACF1F93CF93DF93282F30E0F901FD
:1003E000EA5FFD4F8491F901E054FE4FD491F90189
:1003F000E658FE4FC491CC23A9F0162F81110E941C
:100400005A01EC2FF0E0EE0FFF1FEA5BFE4FA591C3
:10041000B4918FB7F894EC91111108C0D095DE23F8
:10042000DC938FBFDF91CF911F910895DE2BF8CF22
:10043000CF93DF9390E0FC01E054FE4F2491865867
:100440009E4FFC0184918823D1F090E0880F991F82
:10045000FC01E45DFE4FA591B491FC01EA5BFE4F07
:10046000C591D49161110EC09FB7F8948C91E22F81
:10047000E0958E238C932881E223E8839FBFDF9150
:10048000CF9108958FB7F894EC91E22BEC938FBF46
:10049000F6CF3FB7F8948091FA039091FB03A091B7
:1004A000FC03B091FD0326B5A89B05C02F3F19F0B2
:1004B0000196A11DB11D3FBFBA2FA92F982F8827E4
:1004C000BC01CD01620F711D811D911D42E0660FBF
:1004D000771F881F991F4A95D1F708952FB7F89471
:1004E0006091F6037091F7038091F8039091F903FE
:1004F0002FBF0895E091EF03F091F00381818830E0
:1005000018F49081903120F081E08093EE030895FB
:100510000280F381E02D309739F021818213F8CFEA
:1005200020819213F5CFF0CF1092EE0308950F9330
:100530001F938AE00E94C101019751F58091E60363
:1005400081110DC00E946E026093E2037093E30379
:100550008093E4039093E50381E08093E6030E9497
:100560006E020091E2031091E3032091E4033091C5
:10057000E503601B710B820B930B6C3D754081058D
:10058000910540F081E090E09093F4038093F303B1
:100590001092E6031F910F910895CF92DF92EF9290
:1005A000FF920F931F93CF93DF931F921F92CDB7AC
:1005B000DEB769834A83880F991F00915C0410910C
:1005C0005D04000F111FE6E0F4E09F012650344067
:1005D0002017310714F41192F8CF2981FC01EA5F4A
:1005E000FB4F21838A81808360E080915A040E94BE
:1005F000EA011016110604F501501109F801EA5F2D
:10060000FB4FE080D0905804C090560488E0F82E4C
:100610006E2D661F6627661F8C2D0E94EA01EE0C68
:1006200061E08D2D0E94EA0160E08D2D0E94EA01BB
:10063000FA94F110EDCFDDCF61E080915A040F9074
:100640000F90DF91CF911F910F91FF90EF90DF906E
:10065000CF900C94EA01EF92FF921F93CF93DF9318
:1006600020915C0430915D0482179307B4F4EC018F
:1006700023E0880F991F2A95E1F79C012A5E3B4FE2
:10068000790111E0F70111927F0140E0612FCE0165
:100690000E94CD021F5F1930A9F7DF91CF911F9102
:1006A000FF90EF90089588309105D8F56830710576
:1006B000D0F420915C0430915D04121613068CF581
:1006C00020E830E002C0359527956A95E2F7FC01F5
:1006D000EA5FFB4F4089422B408B61E0680F90E05E
:1006E00080E00C94CD026850710968307105C8F43F
:1006F00020915C0430915D042230310594F020E8B3
:1007000030E002C0359527956A95E2F7FC01E25F7B
:10071000FB4F4089422B408B61E0680F81E090E005
:10072000E0CF08952F923F924F925F926F927F9207
:100730008F929F92AF92BF92CF92DF92EF92FF92F1
:100740000F931F93CF93DF9300D000D0CDB7DEB7C8
:100750008C017B012A013A83298390E080E00E948A
:100760002B0381E090E00E942B03ED82FE82D12CCE
:10077000C12CC20101979C838B83ED81FE81808116
:100780009181019639F50E5F1F4FFFEFCF1ADF0AF7
:100790008D819E8102969E838D834C145D0469F742
:1007A00080E026960FB6F894DEBF0FBECDBFDF9176
:1007B000CF911F910F91FF90EF90DF90CF90BF905E
:1007C000AF909F908F907F906F905F904F903F90F1
:1007D0002F900895380189819A81681A790A90E1E9
:1007E00069167104ECF682E0E82EF12C4301B12C7D
:1007F000A12CC7010297E5E0E89F1001E99F300CAA
:100800001124F0E18F169104B8F4ED81FE8180810E
:10081000918129E1289FF001299FF00D1124E20D1B
:10082000F31DE15EFD4FEA0DFB1D8081882321F061
:10083000B401C7010E9453038FEFA81AB80A9FEFB3
:10084000891A990AE5E0AE16B104D9F6FFEFEF1A5E
:10085000FF0A27E0E216F10449F68CE068167104FD
:100860002CF4EB81FC81EC15FD0519F00A5F1F4F9C
:100870008CCF81E096CF2F923F924F925F926F92F2
:100880007F928F929F92AF92BF92CF92DF92EF9220
:10089000FF920F931F93CF93DF9300D01F92CDB79A
:1008A000DEB79C838B837B016A013A83298330E026
:1008B00020E00E949203312C212C2801110F6608A0
:1008C0007708811134C00E946E024B015C01809256
:1008D000020490920304A0920404B0920504809153
:1008E000FE039091FF03A0910004B0910104A501C3
:1008F0009401281B390B4A0B5B0BDA01C9018415E3
:100900009505A605B705F8F29101A601B7018B81FF
:100910009C810E9492038092FE039092FF03A0921A
:100920000004B09201043FEF231A330ACACF498171
:100930005A816A01550FEE08FF080E9449024B01D7
:100940005C01C114D104E104F104B9F00E94490230
:10095000681979098A099B09683E734081059105E8
:1009600080F351E0C51AD108E108F10888EE880E3D
:1009700083E0981EA11CB11CE4CF0F900F900F9044
:100980000F90DF91CF911F910F91FF90EF90DF902B
:10099000CF90BF90AF909F908F907F906F905F901F
:1009A0004F903F902F900895CF93DF9390E080E099
:1009B0000E942B0381E090E00E942B036091E903E9
:1009C0007091EA038091E7039091E8030E9453033A
:1009D000C091EF03D091F003209751F0688170E04F
:1009E000898190E00E9453030A80DB81C02DF4CFFF
:1009F000DF91CF9108958F929F92AF92BF92CF9245
:100A0000DF92EF92FF920E94160A20E130E040E070
:100A100050E00E946E0A7093EA036093E9030E941B
:100A2000160A28E030E040E050E00E946E0A709321
:100A3000E8036093E70380E1882E912CA12CB12C70
:100A400098E0C92ED12CE12CF12CE091EF03F0912C
:100A5000F0038091E9039091EA032091E70330913C
:100A6000E803309709F140814817190621F44181C4
:100A70004217130621F00280F381E02DF2CF0E948D
:100A8000160AA50194010E946E0A7093EA0360930E
:100A9000E9030E94160AA70196010E946E0A70934C
:100AA000E8036093E703D1CFFF90EF90DF90CF9002
:100AB000BF90AF909F908F900895CF93DF93C82FF2
:100AC000D62F84E090E00E94010BFC01D083C1830B
:100AD0008091EF039091F00393838283F093F0036E
:100AE000E093EF03DF91CF910895E091EF03F09150
:100AF000F00391812081809104028C34E1F16CF546
:100B00008434A9F181814091E7035091E80384176F
:100B1000150699F560814091E9035091EA03641745
:100B2000150659F5918320830E945D050E94FB0400
:100B30008091F1039091F20301969093F2038093D8
:100B4000F1038091000290910102499797FF21C023
:100B500010920102109200020895823521F085352D
:100B600089F68FEF05C081E0820F8083CBCF81E0D3
:100B7000890F8183C7CF8FEFF7CF0280F381E02DFC
:100B8000309759F08181308191832083232F982FD2
:100B9000F4CF909301028093000208951F920F9268
:100BA0000FB60F9211242F933F938F939F93AF9380
:100BB000BF938091F6039091F703A091F803B09151
:100BC000F9033091F50323E0230F2D3758F50196F3
:100BD000A11DB11D2093F5038093F6039093F703B5
:100BE000A093F803B093F9038091FA039091FB036B
:100BF000A091FC03B091FD030196A11DB11D80934E
:100C0000FA039093FB03A093FC03B093FD03BF9101
:100C1000AF919F918F913F912F910F900FBE0F90A9
:100C20001F90189526E8230F0296A11DB11DD2CF63
:100C3000CF93DF93CDB7DEB768970FB6F894DEBFDA
:100C40000FBECDBF789484B5826084BD84B58160C9
:100C500084BD85B5826085BD85B5816085BD809187
:100C60006E00816080936E001092810080918100FF
:100C700082608093810080918100816080938100F7
:100C8000809180008160809380008091B1008460B9
:100C90008093B1008091B00081608093B00080911A
:100CA0009100826080939100809191008160809397
:100CB0009100809190008160809390008091A100CC
:100CC00082608093A1008091A10081608093A10047
:100CD0008091A00081608093A000809121018260BA
:100CE0008093210180912101816080932101809175
:100CF000200181608093200180917A00846080933C
:100D00007A0080917A00826080937A0080917A00E4
:100D1000816080937A0080917A00806880937A0065
:100D20001092C1008AE0EFE0F2E0DE01119601903E
:100D30000D928A95E1F79E012F5F3F4F79018E0159
:100D4000055F1F4FF7018081F2E0EF0EF11C60E0BC
:100D50000E9418020E151F05A9F780915C0490915E
:100D60005D041816190634F441E06CE090E080E070
:100D70000E94CD0280915C0490915D04029734F052
:100D800041E06CE081E090E00E94CD0280915C0443
:100D900090915D041816190634F44FE06AE090E073
:100DA00080E00E94CD0280915C0490915D040297E6
:100DB00034F04FE06AE081E090E00E94CD0210E064
:100DC00061E0812F0E9418021F5F1830C9F71EE0F2
:100DD00061E0812F0E9418021F5F1631C9F710E0F1
:100DE00060E0812F0E94EA011F5F1830C9F71EE002
:100DF00061E0812F0E94EA011F5F1631C9F76AE0A6
:100E0000262E312C48E0842E912CA12CB12C53E0BD
:100E1000452E512C612C712C1092F4031092F30387
:100E20000E946E026093FE037093FF0380930004A0
:100E30009093010486E0E9E1F2E0DE011196019071
:100E40000D928A95E1F704E610E030E020E043E0FF
:100E500050E0BE016F5F7F4F81E090E00E943B0455
:100E600081E090E090930302809302020E94970237
:100E70008091F3039091F403892B09F4E1C010925F
:100E8000F4031092F3031092F2031092F1030E9404
:100E9000FB041092F0031092EF0382E580930402AA
:100EA0000E946E02611571058105910511F00E9485
:100EB000650A0E94160A22E030E040E050E00E94FD
:100EC0006E0A18E0672B09F010E00E94160AA501CF
:100ED00094010E946E0AF62E612F8F2D0E945D05EF
:100EE00061E0610F8F2D0E945D052091020230911B
:100EF0000302032E000C440B550B2150310941090C
:100F00005109AEE3BEEF0E949B0AA30192010E9429
:100F10006E0A2C503E4F4F4F5F4F3093010220938B
:100F200000020E94D4040E946E026093FE0370933C
:100F3000FF0380930004909301041092EE0394E465
:100F4000C92E22E5D22E3CE4F32E85E5E82E8091D1
:100F5000EE03811154C10E9497028091F303909196
:100F6000F403892B09F08AC18AE00E94C101813013
:100F7000910509F0D5C02091EB033091EC03232BB0
:100F800021F49093EC038093EB038091ED038111A6
:100F9000DECF87E10E94C101019709F008C180916D
:100FA0000402853591F0E09204020E9475050E94CA
:100FB0007A020E94D4040E946E026093FE03709332
:100FC000FF0380930004909301040E946E026093DB
:100FD0000204709303048093040490930504009129
:100FE000FE031091FF032091000430910104601B67
:100FF000710B820B930B0091000210910102012EE4
:10100000000C220B330B601771078207930708F45B
:101010009ECF0E9475050E947A020E94D40480919E
:10102000020490910304A0910404B09105048093FC
:10103000FE039093FF03A0930004B093010485CFB7
:101040000E946E026B017C01C0920204D0920304E4
:10105000E0920404F09205048091FE039091FF0356
:10106000A0910004B0910104A7019601281B390B3F
:101070004A0B5B0BDA01C9018C329140A105B10525
:1010800008F4F4CE87E10E94C1018130910571F529
:1010900020910202309103022F5F3F4F253031052E
:1010A0009CF53093030220930202C092FE03D0927B
:1010B000FF03E0920004F0920104809102029091FB
:1010C0000302B1010E94D10A7A8369839E838D83D2
:1010D00004E610E030E020E043E050E0BE016F5F46
:1010E0007F4F81E090E00E943B04C0CE89E10E94E6
:1010F000C101019709F0BACE8091020290910302DA
:101100000197181619062CF490930302809302029B
:10111000CCCF44E050E05093030240930202C5CF8D
:10112000892B09F032CF8091EB039091EC0301976A
:1011300009F02BCF8091ED031092EC031092EB039A
:10114000811120C08091F1039091F203EFEFFFEF46
:10115000FC83EB83B1010E94D10A7A8369839E8369
:101160008D8310E000E030E020E043E050E0BE017D
:101170006F5F7F4F81E090E00E943B04F1E0F093CD
:10118000ED0303CF8091020490910304A091040425
:10119000B09105048093FE039093FF03A093000495
:1011A000B09301040E94D4041092ED03EECE89E1C5
:1011B0000E94C101019741F480910402843409F432
:1011C00004CFC0920402F1CE8CE10E94C1010197CC
:1011D00041F4809104028C3409F4F7CEF0920402B9
:1011E000E4CE8EE10E94C101019709F0EECE80911C
:1011F0000402823509F4E9CED0920402D6CE809161
:10120000F1039091F2032AE030E03A8329832BE046
:1012100030E03C832B832CE030E03E832D832DE0B7
:1012200030E038872F834FEF5FEF5A8749874EE0D2
:1012300050E05C874B874FE050E05E874D87388BEE
:101240002F8720E130E03A8B298B21E130E03C8B85
:101250002B8BB1010E94D10A7E8B6D8B988F8F8B67
:1012600004E610E02CEB32E04CE050E0BE016F5F92
:101270007F4F90E080E00E943B04CECD80E090E084
:10128000892B09F4BFCD0E940000BCCDCF93DF9322
:101290000E94160A20E130E040E050E00E946E0A11
:1012A0007093EA036093E9030E94160A28E030E095
:1012B00040E050E00E946E0A7093E8036093E703F9
:1012C000CDE0D0E0D0935704C09356048BE090E07B
:1012D00090935904809358048CE090E090935B04C1
:1012E00080935A0482E090E090935D0480935C04C4
:1012F00061E08DE00E94180261E0809158040E9434
:10130000180261E080915A040E94180261E0809105
:101310005A040E94EA01D0935704C0935604E6E1B0
:10132000F4E086E594E011928E179F07E1F7D0E094
:10133000C0E080915C0490915D04C817D9073CF52A
:1013400040E06FE0CE010E94CD0280915C0490915C
:101350005D04C817D9072CF447E06BE0CE010E946A
:10136000CD0240E069E0CE010E94CD02CE010E9494
:101370002B0380915C0490915D04C817D9072CF46D
:1013800040E06CE0CE010E94CD022196D2CFDF91E9
:10139000CF9108958F929F92AF92BF92CF92DF929A
:1013A000EF92FF92CF93DF93EC01688179818A817C
:1013B0009B81611571058105910521F464E279ED48
:1013C0008BE597E02DE133EF41E050E00E946E0A9B
:1013D00049015A019B01AC01A7EAB1E40E948D0AC0
:1013E0006B017C01ACEEB4EFA50194010E949B0A55
:1013F000C60ED71EE81EF91EF7FE06C081E0C81A09
:10140000D108E10880E8F80AC882D982EA82FB8222
:10141000C701B6019F77DF91CF91FF90EF90DF90EA
:10142000CF90BF90AF909F908F9008958F929F9292
:10143000AF92BF92CF92DF92EF92FF92609105023E
:101440007091060280910702909108026115710562
:101450008105910521F464E279ED8BE597E02DE1BA
:1014600033EF41E050E00E946E0A49015A019B01AE
:10147000AC01A7EAB1E40E948D0A6B017C01ACEEDD
:10148000B4EFA50194010E949B0AC60ED71EE81E68
:10149000F91EF7FE06C081E0C81AD108E10880E80D
:1014A000F80AC0920502D0920602E0920702F0927A
:1014B0000802C701B6019F77FF90EF90DF90CF90B1
:1014C000BF90AF909F908F900895609305027093A6
:1014D000060280930702909308020895052E97FB59
:1014E0001EF400940E94850A57FD07D00E94A00AAE
:1014F00007FC03D04EF40C94850A50954095309526
:1015000021953F4F4F4F5F4F08959095809570956F
:1015100061957F4F8F4F9F4F08950E94C20AA59FEC
:10152000900DB49F900DA49F800D911D11240895DE
:10153000B7FF0C948D0A0E948D0A821B930B0895AD
:10154000A1E21A2EAA1BBB1BFD010DC0AA1FBB1FC7
:10155000EE1FFF1FA217B307E407F50720F0A21B39
:10156000B30BE40BF50B661F771F881F991F1A94A6
:1015700069F760957095809590959B01AC01BD01D0
:10158000CF010895A29FB001B39FC001A39F700D2A
:10159000811D1124911DB29F700D811D1124911D7B
:1015A000089597FB072E16F4009407D077FD09D015
:1015B0000E94ED0A07FC05D03EF4909581959F4F5F
:1015C0000895709561957F4F0895EE0FFF1F881F56
:1015D0008BBF0790F691E02D1994AA1BBB1B51E11C
:1015E00007C0AA1FBB1FA617B70710F0A61BB70B93
:1015F000881F991F5A95A9F780959095BC01CD0138
:1016000008950F931F93CF93DF938230910510F4C9
:1016100082E090E0E0916004F091610430E020E02D
:10162000B0E0A0E0309799F42115310509F44AC0E3
:10163000281B390B24303105D8F58A819B8161152F
:10164000710589F1FB0193838283FE0111C0408102
:1016500051810281138148175907E0F04817590753
:1016600099F4109761F012960C93129713961C93AD
:101670003296CF01DF91CF911F910F910895009382
:10168000600410936104F4CF2115310551F0421725
:10169000530738F0A901DB019A01BD01DF01F80110
:1016A000C1CFEF01F9CF9093610480936004CDCF57
:1016B000FE01E20FF31F8193919322503109398388
:1016C0002883D7CF20915E0430915F04232B41F40F
:1016D00020910B0230910C0230935F0420935E0442
:1016E0002091090230910A022115310541F42DB7EC
:1016F0003EB740910D0250910E02241B350BE09134
:101700005E04F0915F04E217F307A0F42E1B3F0B79
:101710002817390778F0AC014E5F5F4F2417350763
:1017200048F04E0F5F1F50935F0440935E04819317
:1017300091939FCFF0E0E0E09CCFCF93DF930097B1
:10174000E9F0FC01329713821282A0916004B091FB
:101750006104ED0130E020E01097A1F42081318197
:10176000820F931F20915E0430915F042817390780
:1017700009F061C0F0935F04E0935E04DF91CF91C4
:101780000895EA01CE17DF07E8F54A815B819E01E3
:1017900041155105B1F7E901FB83EA83499159915C
:1017A000C40FD51FEC17FD0761F48081918102966B
:1017B000840F951FE90199838883828193819B839C
:1017C0008A83F0E0E0E012968D919C911397009748
:1017D000B9F52D913C911197CD010296820F931F7F
:1017E00020915E0430915F042817390739F630974D
:1017F00051F51092610410926004B0935F04A093BD
:101800005E04BCCFD383C28340815181840F951F76
:10181000C817D90761F44E5F5F4F88819981480FDF
:10182000591F518340838A819B8193838283211531
:10183000310509F0B0CFF0936104E09360049ECFCE
:10184000FD01DC01C0CF13821282D7CFF894FFCF05
:10185000F401010052010000000000620480001742
:101860000019001C001E000A000000FFFF0100001C
:10187000010101000100000101010001000101015D
:101880000000010001010100000101000000000151
:101890000000000001000000000100000001010143
:1018A0000001010101000000000001000101010030
:1018B000010000000001010101010101010100001E
:1018C0000000000100000101000000000001010112
:1018D0000101000000010100000100010001000001
:1018E00001000101010101000000010001010101ED
:1018F00001010000000001010101000000000001E1
:1019000001010101000001010101010000000001CD
:1019100001010100010000000100010101000101BD
:1019200001010100000000010000000100000001B1
:1019300000000001000000000101010001000000A2
:10194000010001010100010000000100010101008E
:10195000000101010001000000010001010101007E
:10196000000000010101010100000101010101006D
:101970000000000100000101010000000100010160
:101980000101000001000000010001000100000051
:10199000010101010101010000000101000000013D
:1019A000010100010101000100010100000001012D
:1019B000000000010101010101010000000001011E
:1019C000010000010000000001010101010001010E
:1019D0000100010000000101000000010100000001
:1019E00001000101010001000000010100000001EF
:1019F00001000000010001000100000001000001E1
:101A000001010100010000000101010101000100CC
:101A100000000101000000010000000000000000C3
:101A200000000001010100000000000000000000B3
:021A30000000B4
:00000001FF
