:100000000C9435010C9466010C9466010C94660105
:100010000C9466010C9466010C9466010C946601C4
:100020000C9466010C9466010C9466010C946601B4
:100030000C9466010C9466010C9466010C946601A4
:100040000C9466010C9466010C9466010C94660194
:100050000C9466010C9466010C9466010C94C20623
:100060000C9466010C9436070C940C070C946601F2
:100070000C9466010C9466010C9466010C94660164
:100080000C9466010C9466010C9466010C94660154
:100090000C9466010C9466010C9466010C94660144
:1000A0000C9466010C9466010C9466010C94660134
:1000B0000C9466010C9466010C9466010C94660124
:1000C0000C9466010C9466010C9466010C94660114
:1000D0000C9466010C9466010C9466010C94660104
:1000E0000C9466010C946B030C946C070C949001B7
:1000F0000C94E6020C94B3010C94C1010C94C6015B
:100100000C949B010C94AF010C94B5020C94C402A6
:100110000C94B9010C94A5010C94CB010C94A10191
:100120000C94C7010C9494010C9488020C94BD01AA
:100130000C94D8020C948C010C941E030C94860130
:100140000C94AB010C9498010000210024002700BE
:100150002A002D00300033000101000004010701D6
:100160000A0100002200250028002B002E0031008B
:10017000340002010000050108010B01000020000D
:100180002300260029002C002F003200000100006F
:10019000030106010901050505050705080808080A
:1001A000020202020A0A080804040404010101010F
:1001B000010101010303030303030303040707070A
:1001C0000C0C0C0C0C0C0C0C0202020206060606AF
:1001D000060606060B0B0B0B0B0B0B0B010210207C
:1001E000200808102040102040800201020108046D
:1001F0000201010204081020408080402010080401
:100200000201800402018040201008040201080459
:10021000020101020408102040800102040810209D
:10022000408000000A0B02090C0D0E0807030401B0
:1002300000000000000000000000000000000000BE
:10024000000000000000000000000000000012118B
:10025000100000000000000000000000000000008E
:1002600000000000000000006C0711241FBECFEF4B
:10027000D1E2DEBFCDBF00E00CBF13E0A0E0B2E0F2
:10028000E6ECFBE100E00BBF02C007900D92A43F3B
:10029000B107D9F725E0A4EFB3E001C01D92A83063
:1002A000B207E1F711E0C5E3D1E000E006C0219715
:1002B0000109802FFE010E94A00CC433D10780E009
:1002C0000807A9F70E9432080C94E10D0C94000075
:1002D0008150823108F05AC0E82FF0E08827EC58AE
:1002E000FE4F8F4F0C94A00C9401980186018C0155
:1002F0009001C6019B01A101A501AB01AF01B301B2
:10030000B901BD01C601C101C701CB0180918000C7
:100310008F77809380000895809180008F7DF9CF42
:1003200080918000877FF5CF84B58F7784BD089555
:1003300084B58F7DFBCF8091B0008F778093B00024
:1003400008958091B0008F7DF9CF809190008F77D4
:10035000809390000895809190008F7DF9CF8091D7
:100360009000877FF5CF8091A0008F778093A000C9
:1003700008958091A0008F7DF9CF8091A000877FA4
:10038000F5CF809120018F7780932001089580918F
:1003900020018F7DF9CF80912001877FF5CFCF930A
:1003A000DF93282F30E0F901EE5DFD4F8491F901D4
:1003B000E452FE4FD491F901EA56FE4FC491CC238A
:1003C000A1F081110E946801EC2FF0E0EE0FFF1FF9
:1003D000E458FE4FA591B491EC91ED2381E090E0BB
:1003E00009F480E0DF91CF91089580E090E0FACFAA
:1003F0001F93CF93DF93282F30E0F901EE5DFD4F7F
:100400008491F901E452FE4FD491F901EA56FE4F6E
:10041000C491CC23A9F0162F81110E946801EC2F02
:10042000F0E0EE0FFF1FEE59FE4FA591B4918FB78C
:10043000F894EC91111108C0D095DE23DC938FBFA6
:10044000DF91CF911F910895DE2BF8CFCF93DF93EB
:1004500090E0FC01E452FE4F24918A569E4FFC012D
:1004600084918823D1F090E0880F991FFC01E85B0C
:10047000FE4FA591B491FC01EE59FE4FC591D49168
:1004800061110EC09FB7F8948C91E22FE0958E23F6
:100490008C932881E223E8839FBFDF91CF91089559
:1004A0008FB7F894EC91E22BEC938FBFF6CF3FB768
:1004B000F8948091FF0390910004A0910104B09101
:1004C000020426B5A89B05C02F3F19F00196A11D77
:1004D000B11D3FBFBA2FA92F982F8827BC01CD018E
:1004E000620F711D811D911D42E0660F771F881FED
:1004F000991F4A95D1F708952FB7F8946091FB039F
:100500007091FC038091FD039091FE032FBF08952D
:10051000AF92BF92CF92DF92EF92FF920F931F9311
:10052000CF93DF936C017B018B01040F151FEB014F
:100530005E01AE18BF08C017D10759F06991D60106
:10054000ED91FC910190F081E02DC6011995892B68
:1005500079F7C501DF91CF911F910F91FF90EF9037
:10056000DF90CF90BF90AF900895FC01538D448DE4
:10057000252F30E0842F90E0821B930B541710F04E
:10058000CF96089501970895FC01918D828D98175B
:1005900061F0A28DAE0FBF2FB11D5D968C91928D33
:1005A0009F5F9F73928F90E008958FEF9FEF089564
:1005B000FC01918D828D981731F0828DE80FF11D2D
:1005C000858D90E008958FEF9FEF0895FC01918D48
:1005D000228D892F90E0805C9F4F821B91098F7341
:1005E000992708958BE094E00E94E60221E0892B90
:1005F00009F420E0822F0895FC01A48DA80FB92FE3
:10060000B11DA35ABF4F2C91848D90E001968F733A
:100610009927848FA689B7892C93A089B1898C9159
:10062000837080648C93938D848D981306C00288A8
:10063000F389E02D80818F7D80830895EF92FF9272
:100640000F931F93CF93DF93EC0181E0888F9B8DF5
:100650008C8D98131AC0E889F989808185FF15C0AF
:100660009FB7F894EE89FF896083E889F9898081D2
:100670008370806480839FBF81E090E0DF91CF91A1
:100680001F910F91FF90EF900895F62E0B8D10E0C3
:100690000F5F1F4F0F731127E02E8C8D8E110CC032
:1006A0000FB607FCFACFE889F989808185FFF5CF7D
:1006B000CE010E94FC02F1CFEB8DEC0FFD2FF11D5E
:1006C000E35AFF4FF0829FB7F8940B8FEA89FB89BA
:1006D00080818062CFCFCF93DF93EC01888D882318
:1006E000B9F0AA89BB89E889F9898C9185FD03C095
:1006F000808186FD0DC00FB607FCF7CF8C9185FF7A
:10070000F2CF808185FFEDCFCE010E94FC02E9CFC0
:10071000DF91CF91089580E090E0892B29F00E942D
:10072000F20281110E94000080E090E0892B49F0E4
:1007300080E090E0892B29F00E94000081110E9446
:10074000000080E090E0892B49F080E090E0892B68
:1007500029F00E94000081110E94000080E090E0DA
:10076000892B49F080E090E0892B29F00E9400005D
:1007700081110C9400000895E091F603F091F703C5
:100780008181883018F49081903120F081E080934D
:10079000F50308950280F381E02D309739F021812F
:1007A0008213F8CF20819213F5CFF0CF1092F5038A
:1007B00008958F929F92AF92BF92CF92DF92EF9265
:1007C000FF9280E1882E912CA12CB12C98E0C92EAB
:1007D000D12CE12CF12CE091F603F091F7038091FC
:1007E0000205909103052091000530910105309795
:1007F00009F140814817190621F441814217130677
:1008000021F00280F381E02DF2CF0E94D10BA501EF
:1008100094010E94290C70930305609302050E94C5
:10082000D10BA70196010E94290C709301056093DA
:100830000005D1CFFF90EF90DF90CF90BF90AF90A9
:100840009F908F900895CF92DF92EF92FF920F9337
:100850001F93CF93DF931F921F92CDB7DEB76983AB
:100860004A83880F991F0091FE041091FF04000F26
:10087000111FE8EAF4E09F01285A3440201731079D
:1008800014F41192F8CF2981FC01E855FB4F218324
:100890008A81808360E08091FC040E94F801101638
:1008A000110604F501501109F801E855FB4FE080ED
:1008B000D090FA04C090F80488E0F82E6E2D661FE0
:1008C0006627661F8C2D0E94F801EE0C61E08D2DCD
:1008D0000E94F80160E08D2D0E94F801FA94F11059
:1008E000EDCFDDCF61E08091FC040F900F90DF91A0
:1008F000CF911F910F91FF90EF90DF90CF900C94CC
:10090000F801EF92FF921F93CF93DF932091FE04A3
:100910003091FF0482179307B4F4EC0123E0880FB1
:10092000991F2A95E1F79C0128543B4F790111E06A
:10093000F70111927F0140E0612FCE010E94230454
:100940001F5F1930A9F7DF91CF911F91FF90EF90B2
:10095000089588309105D8F568307105D0F420915C
:10096000FE043091FF04121613068CF520E830E0E7
:1009700002C0359527956A95E2F7FC01E855FB4FD3
:100980004089422B408B61E0680F90E080E00C943E
:1009900023046850710968307105C8F42091FE0481
:1009A0003091FF042230310594F020E830E002C09D
:1009B000359527956A95E2F7FC01E055FB4F408994
:1009C000422B408B61E0680F81E090E0E0CF08951A
:1009D0002F923F924F925F926F927F928F929F924F
:1009E000AF92BF92CF92DF92EF92FF920F931F933D
:1009F000CF93DF9300D000D0CDB7DEB78C017B0161
:100A00002A013A83298390E080E00E94810481E0FA
:100A100090E00E948104ED82FE82D12CC12CC201A3
:100A200001979C838B83ED81FE818081918101966A
:100A300039F50E5F1F4FFFEFCF1ADF0A8D819E81C0
:100A400002969E838D834C145D0469F780E02696A0
:100A50000FB6F894DEBF0FBECDBFDF91CF911F91CF
:100A60000F91FF90EF90DF90CF90BF90AF909F904D
:100A70008F907F906F905F904F903F902F90089550
:100A8000380189819A81681A790A90E1691671049E
:100A9000ECF682E0E82EF12C4301B12CA12CC70129
:100AA0000297E5E0E89F1001E99F300C1124F0E186
:100AB0008F169104B8F4ED81FE818081918129E146
:100AC000289FF001299FF00D1124E20DF31DE15E36
:100AD000FD4FEA0DFB1D8081882321F0B401C70181
:100AE0000E94A9048FEFA81AB80A9FEF891A990AE1
:100AF000E5E0AE16B104D9F6FFEFEF1AFF0A27E0E2
:100B0000E216F10449F68CE0681671042CF4EB81CE
:100B1000FC81EC15FD0519F00A5F1F4F8CCF81E0B9
:100B200096CF2F923F924F925F926F927F928F92C9
:100B30009F92AF92BF92CF92DF92EF92FF920F936C
:100B40001F93CF93DF9300D01F92CDB7DEB79C8366
:100B50008B837B016A013A83298330E020E00E9485
:100B6000E804312C212C2801110F66087708811127
:100B700034C00E947C024B015C0180920704909279
:100B80000804A0920904B0920A0480910304909191
:100B90000404A0910504B0910604A5019401281B4A
:100BA000390B4A0B5B0BDA01C90184159505A605C3
:100BB000B705F8F29101A601B7018B819C810E94D3
:100BC000E8048092030490920404A0920504B09279
:100BD00006043FEF231A330ACACF49815A816A01BA
:100BE000550FEE08FF080E9457024B015C01C1142B
:100BF000D104E104F104B9F00E945702681979099F
:100C00008A099B09683E73408105910580F351E094
:100C1000C51AD108E108F10888EE880E83E0981E15
:100C2000A11CB11CE4CF0F900F900F900F90DF919B
:100C3000CF911F910F91FF90EF90DF90CF90BF90D9
:100C4000AF909F908F907F906F905F904F903F906C
:100C50002F900895CF93DF9390E080E00E9481046D
:100C600081E090E00E94810460910205709103058B
:100C700080910005909101050E94A904C091F6039E
:100C8000D091F703209751F0688170E0898190E05E
:100C90000E94A9040A80DB81C02DF4CFDF91CF919F
:100CA0000895CF93DF93C82FD62F84E090E00E9461
:100CB000BC0CFC01D083C1838091F6039091F703B3
:100CC00093838283F093F703E093F603DF91CF9150
:100CD0000895E091F603F091F703918120818091CE
:100CE00004028C34E1F16CF58434A9F181814091E6
:100CF0000005509101058417150699F56081409112
:100D00000205509103056417150659F59183208358
:100D10000E9451060E94D9038091F8039091F90333
:100D200001969093F9038093F803809100029091CB
:100D30000102499797FF21C0109201021092000210
:100D40000895823521F0853589F68FEF05C081E061
:100D5000820F8083CBCF81E0890F8183C7CF8FEF54
:100D6000F7CF0280F381E02D309759F081813081F7
:100D700091832083232F982FF4CF909301028093A7
:100D8000000208951F920F920FB60F9211242F9315
:100D90003F938F939F93AF93BF938091FB03909169
:100DA000FC03A091FD03B091FE033091FA0323E010
:100DB000230F2D3758F50196A11DB11D2093FA037D
:100DC0008093FB039093FC03A093FD03B093FE0379
:100DD0008091FF0390910004A0910104B09102045E
:100DE0000196A11DB11D8093FF0390930004A09371
:100DF0000104B0930204BF91AF919F918F913F91F5
:100E00002F910F900FBE0F901F90189526E8230F7B
:100E10000296A11DB11DD2CF1F920F920FB60F9255
:100E200011240BB60F922F933F934F935F936F93C1
:100E30007F938F939F93AF93BF93EF93FF938BE039
:100E400094E00E94FC02FF91EF91BF91AF919F91BE
:100E50008F917F916F915F914F913F912F910F9063
:100E60000BBE0F900FBE0F901F9018951F920F9200
:100E70000FB60F9211240BB60F922F938F939F935F
:100E8000EF93FF93E0911B04F0911C048081E091AB
:100E90002104F091220482FD1DC0908180912404E0
:100EA0008F5F8F7320912504821741F0E091240415
:100EB000F0E0E55FFB4F958F80932404FF91EF9165
:100EC0009F918F912F910F900BBE0F900FBE0F909F
:100ED0001F9018958081F2CFCF93DF9310920E046C
:100EE00010920D0488EE93E0A0E0B0E080930F0430
:100EF00090931004A0931104B093120485EE93E034
:100F000090930C0480930B0485EC90E0909318046C
:100F10008093170484EC90E090931A048093190452
:100F200080EC90E090931C0480931B0481EC90E093
:100F300090931E0480931D0482EC90E09093200413
:100F400080931F0486EC90E0909322048093210408
:100F50001092240410922504109226041092270463
:100F60000E94D10B20E130E040E050E00E94290CCB
:100F700070930305609302050E94D10B28E030E0D6
:100F800040E050E00E94290C709301056093000539
:100F9000CDE0D0E0D093F904C093F8048BE090E06A
:100FA0009093FB048093FA048CE090E09093FD040E
:100FB0008093FC0482E090E09093FF048093FE0411
:100FC00061E08DE00E94260261E08091FA040E94B7
:100FD000260261E08091FC040E94260261E080917B
:100FE000FC040E94F801D093F904C093F804E8EBE4
:100FF000F4E088EF94E011928E179F07E1F7D0E0BC
:10100000C0E08091FE049091FF04C817D9073CF519
:1010100040E06FE0CE010E9423048091FE04909195
:10102000FF04C817D9072CF447E06BE0CE010E94FB
:10103000230440E069E0CE010E942304CE010E9417
:1010400081048091FE049091FF04C817D9072CF405
:1010500040E06CE0CE010E9423042196D2CFDF91C4
:10106000CF910895CF93DF93CDB7DEB768970FB6D2
:10107000F894DEBF0FBECDBF789484B5826084BD86
:1010800084B5816084BD85B5826085BD85B581608C
:1010900085BD80916E00816080936E00109281000A
:1010A00080918100826080938100809181008160C5
:1010B0008093810080918000816080938000809186
:1010C000B10084608093B1008091B0008160809312
:1010D000B000809191008260809391008091910096
:1010E0008160809391008091900081608093900056
:1010F0008091A10082608093A1008091A100816015
:101100008093A1008091A00081608093A0008091D5
:10111000210182608093210180912101816080936F
:1011200021018091200181608093200180917A00CB
:10113000846080937A0080917A00826080937A0044
:1011400080917A00816080937A0080917A00806833
:1011500080937A001092C1008AE0EFE0F2E0DE01B5
:10116000119601900D928A95E1F78E010F5F1F4F46
:101170007E012BE0E20EF11CF80180810E5F1F4F13
:1011800060E00E942602E016F106B1F78091FE04AD
:101190009091FF041816190634F441E06CE090E0D9
:1011A00080E00E9423048091FE049091FF04029746
:1011B00034F041E06CE081E090E00E9423048091F3
:1011C000FE049091FF041816190634F44FE06AE00B
:1011D00090E080E00E9423048091FE049091FF043F
:1011E000029734F04FE06AE081E090E00E9423042F
:1011F00010E061E0812F0E9426021F5F1830C9F7BE
:101200001EE061E0812F0E9426021F5F1631C9F7A0
:1012100010E060E0812F0E94F8011F5F1830C9F7CD
:101220001EE061E0812F0E94F8011F5F1631C9F7AF
:10123000E0911B04F0911C0482E08083E09117048C
:10124000F09118041082E0911904F0911A048FECC7
:10125000808310922304E0911F04F091200486E023
:101260008083E0911D04F0911E0480818061808361
:10127000E0911D04F0911E04808188608083E091DC
:101280001D04F0911E04808180688083E0911D041C
:10129000F0911E0480818F7D80833AE0232E312CD3
:1012A00048E0842E912CA12CB12C53E0452E512CDA
:1012B000612C712C0E947C026093030470930404DF
:1012C000809305049093060486E0E9E1F2E0DE01F4
:1012D000119601900D928A95E1F704E610E030E056
:1012E00020E043E050E0BE016F5F7F4F81E090E07F
:1012F0000E94910581E090E09093030280930202A6
:101300000E947C026B017C01C0920704D092080409
:10131000E0920904F0920A0480910304909104047D
:10132000A0910504B0910604A7019601281B390B72
:101330004A0B5B0BDA01C9018C329140A105B10562
:10134000F8F28AE00E94CF01019709F44EC087E1CC
:101350000E94CF018130910571F5209102023091F8
:1013600003022F5F3F4F253031059CF53093030278
:1013700020930202C0920304D0920404E092050478
:10138000F09206048091020290910302B1010E9442
:101390008C0C7A8369839E838D8304E610E030E0B1
:1013A00020E043E050E0BE016F5F7F4F81E090E0BE
:1013B0000E949105A5CF89E10E94CF01019709F014
:1013C0009FCF80910202909103020197181619068F
:1013D0002CF49093030280930202CCCF44E050E0BF
:1013E0005093030240930202C5CF1092F90310926A
:1013F000F8030E94D9031092F7031092F60382E5D6
:10140000809304020E947C0261157105810591059B
:1014100011F00E94200C0E94D10B22E030E040E04D
:1014200050E00E94290C8B010E94D10BA501940170
:101430000E94290CF62E0130110511F408E010E08D
:10144000602F8F2D0E94510661E0600F8F2D0E944A
:1014500051062091020230910302032E000C440B2E
:10146000550B2150310941095109AEE3BEEF0E94ED
:10147000560CA30192010E94290C2C503E4F4F4F55
:101480005F4F30930102209300020E942A060E94BF
:101490007C0260930304709304048093050490938A
:1014A00006041092F503CC24C39482E5D82E9CE464
:1014B000E92E24E4F22E8091F5038111E5C00E940B
:1014C0007C0260930704709308048093090490934E
:1014D0000A04009103041091040420910504309142
:1014E0000604601B710B820B930B6C3271408105FB
:1014F0009105C0F11091F4038AE00E94CF01019799
:1015000009F08CC011118AC08091F8039091F90301
:10151000EFEFFFEFFC83EB83B1010E948C0C7A8329
:1015200069839E838D8310E000E030E020E043E09B
:1015300050E0BE016F5F7F4F81E090E00E94910517
:10154000C092F4038091070490910804A0910904CB
:10155000B0910A048093030490930404A0930504BB
:10156000B09306048091F4038111A5CF87E10E9416
:10157000CF01019709F060C080910402853599F090
:10158000F5E5F09304020E9469060E94BC030E94E4
:101590002A060E947C0260930304709304048093E3
:1015A0000504909306040E947C02609307047093E4
:1015B00008048093090490930A0400910304109195
:1015C00004042091050430910604601B710B820B0A
:1015D000930B0091000210910102012E000C220BCE
:1015E000330B601771078207930708F464CF0E94DA
:1015F00069060E94BC030E942A068091070490910C
:101600000804A0910904B0910A0480930304909304
:101610000404A0930504B09306044DCF8AE00E9411
:10162000CF01019709F09ECF112309F49FCF0E94AB
:101630002A061092F40386CF89E10E94CF01019718
:1016400041F480910402843409F4ADCFF092040295
:101650009ACF8CE10E94CF01019741F4809104025E
:101660008C3409F4A0CFE09204028DCF8EE10E9469
:10167000CF01019709F097CF80910402823509F4D8
:1016800092CFD09204027FCF8091F8039091F9031A
:101690002AE030E03A8329832BE030E03C832B833F
:1016A0002CE030E03E832D832DE030E038872F831F
:1016B0004FEF5FEF5A8749874EE050E05C874B87DA
:1016C0004FE050E05E874D87388B2F8720E130E078
:1016D0003A8B298B21E130E03C8B2B8BB1010E94AE
:1016E0008C0C7E8B6D8B988F8F8B04E610E02CEB2F
:1016F00032E04CE050E0BE016F5F7F4F90E080E051
:101700000E9491050E948B03D5CD8F929F92AF923C
:10171000BF92CF92DF92EF92FF92CF93DF93EC01D3
:10172000688179818A819B816115710581059105A7
:1017300021F464E279ED8BE597E02DE133EF41E0B0
:1017400050E00E94290C49015A019B01AC01A7EA13
:10175000B1E40E94480C6B017C01ACEEB4EFA50132
:1017600094010E94560CC60ED71EE81EF91EF7FE05
:1017700006C081E0C81AD108E10880E8F80AC882EA
:10178000D982EA82FB82C701B6019F77DF91CF91B0
:10179000FF90EF90DF90CF90BF90AF909F908F9091
:1017A00008958F929F92AF92BF92CF92DF92EF9265
:1017B000FF9260910502709106028091070290915C
:1017C0000802611571058105910521F464E279ED46
:1017D0008BE597E02DE133EF41E050E00E94290CCA
:1017E00049015A019B01AC01A7EAB1E40E94480CEF
:1017F0006B017C01ACEEB4EFA50194010E94560C84
:10180000C60ED71EE81EF91EF7FE06C081E0C81AF4
:10181000D108E10880E8F80AC0920502D0920602D9
:10182000E0920702F0920802C701B6019F77FF908D
:10183000EF90DF90CF90BF90AF909F908F900895E2
:10184000609305027093060280930702909308024A
:101850000895052E97FB1EF400940E94400C57FD3E
:1018600007D00E945B0C07FC03D04EF40C94400C94
:1018700050954095309521953F4F4F4F5F4F0895BC
:1018800090958095709561957F4F8F4F9F4F0895EC
:101890000E947D0CA59F900DB49F900DA49F800D7C
:1018A000911D11240895B7FF0C94480C0E94480C18
:1018B000821B930B0895A1E21A2EAA1BBB1BFD01EC
:1018C0000DC0AA1FBB1FEE1FFF1FA217B307E4071F
:1018D000F50720F0A21BB30BE40BF50B661F771F77
:1018E000881F991F1A9469F7609570958095909557
:1018F0009B01AC01BD01CF010895A29FB001B39F30
:10190000C001A39F700D811D1124911DB29F700D08
:10191000811D1124911D089597FB072E16F4009444
:1019200007D077FD09D00E94A80C07FC05D03EF433
:10193000909581959F4F0895709561957F4F08957B
:10194000EE0FFF1F881F8BBF0790F691E02D1994B3
:10195000AA1BBB1B51E107C0AA1FBB1FA617B707D5
:1019600010F0A61BB70B881F991F5A95A9F78095F1
:101970009095BC01CD0108950F931F93CF93DF93F2
:101980008230910510F482E090E0E0910605F0913C
:10199000070530E020E0B0E0A0E0309799F4211591
:1019A000310509F44AC0281B390B24303105D8F51C
:1019B0008A819B816115710589F1FB019383828383
:1019C000FE0111C0408151810281138148175907DE
:1019D000E0F04817590799F4109761F012960C93AC
:1019E000129713961C933296CF01DF91CF911F91DE
:1019F0000F9108950093060510930705F4CF211564
:101A0000310551F04217530738F0A901DB019A0163
:101A1000BD01DF01F801C1CFEF01F9CF90930705B8
:101A200080930605CDCFFE01E20FF31F81939193C2
:101A30002250310939832883D7CF20910405309172
:101A40000505232B41F420910B0230910C023093B9
:101A50000505209304052091090230910A02211501
:101A6000310541F42DB73EB740910D0250910E0261
:101A7000241B350BE0910405F0910505E217F307EF
:101A8000A0F42E1B3F0B2817390778F0AC014E5FEE
:101A90005F4F2417350748F04E0F5F1F5093050521
:101AA00040930405819391939FCFF0E0E0E09CCFB9
:101AB000CF93DF930097E9F0FC01329713821282F3
:101AC000A0910605B0910705ED0130E020E01097E8
:101AD000A1F420813181820F931F20910405309160
:101AE00005052817390709F061C0F0930505E09353
:101AF0000405DF91CF910895EA01CE17DF07E8F5DD
:101B00004A815B819E0141155105B1F7E901FB83D3
:101B1000EA8349915991C40FD51FEC17FD0761F471
:101B2000808191810296840F951FE90199838883B2
:101B3000828193819B838A83F0E0E0E012968D910D
:101B40009C9113970097B9F52D913C911197CD0178
:101B50000296820F931F20910405309105052817E6
:101B6000390739F6309751F510920705109206059E
:101B7000B0930505A0930405BCCFD383C2834081F5
:101B80005181840F951FC817D90761F44E5F5F4FCD
:101B900088819981480F591F518340838A819B8195
:101BA000938382832115310509F0B0CFF0930705A7
:101BB000E09306059ECFFD01DC01C0CF13821282A7
:061BC000D7CFF894FFCF1F
:101BC600F401010052010000000000080580001722
:101BD6000019001C001E000A000000FFFF010000A3
:101BE60001010100010000010101000100010101E4
:101BF60000000100010101000001010000000001D8
:101C060000000000010000000001000000010101C9
:101C160000010101010000000000010001010100B6
:101C260001000000000101010101010101010000A4
:101C36000000000100000101000000000001010198
:101C46000101000000010100000100010001000087
:101C56000100010101010100000001000101010173
:101C66000101000000000101010100000000000167
:101C76000101010100000101010101000000000154
:101C86000101010001000000010001010100010144
:101C96000101010000000001000000010000000138
:101CA6000000000100000000010101000100000029
:101CB6000100010101000100000001000101010015
:101CC6000001010100010000000100010101010005
:101CD60000000001010101010000010101010100F4
:101CE60000000001000001010100000001000101E7
:101CF60001010000010000000100010001000000D8
:101D060001010101010101000000010100000001C3
:101D160001010001010100010001010000000101B3
:101D260000000001010101010101000000000101A4
:101D36000100000100000000010101010100010194
:101D46000100010000000101000000010100000087
:101D56000100010101000100000001010000000175
:101D66000100000001000100010000000100000167
:101D76000101010001000000010101010100010053
:101D8600000001010000000100000000000000004A
:101D9600000000010101000000000000000000003A
:101DA60000000000001E038802B5026B03E602C4B1
:041DB60002D802004D
:00000001FF
