:100000000C9427010C9458010C9458010C9458013D
:100010000C9458010C9458010C9458010C945801FC
:100020000C9458010C9458010C9458010C945801EC
:100030000C9458010C9458010C9458010C945801DC
:100040000C9458010C9458010C9458010C945801CC
:100050000C9458010C9458010C9458010C94800590
:100060000C9458010C9458010C9458010C945801AC
:100070000C9458010C9458010C9458010C9458019C
:100080000C9458010C9458010C9458010C9458018C
:100090000C9458010C9458010C9458010C9458017C
:1000A0000C9458010C9458010C9458010C9458016C
:1000B0000C9458010C9458010C9458010C9458015C
:1000C0000C9458010C9458010C9458010C9458014C
:1000D0000C9458010C9458010C9458010C9458013C
:1000E0000C9458010C94AB010C9486010C94930170
:1000F0000C94B8010C94ED080C9478010C94A501B3
:100100000C94B9010C94A1010C9482010C948A0105
:100110000C94BD010C9497010C94B3010C948D01C7
:100120000C94AF010C947E010C949D010000210001
:10013000240027002A002D003000330001010000B8
:10014000040107010A0100002200250028002B00FD
:100150002E003100340002010000050108010B01EE
:10016000000020002300260029002C002F00320070
:100170000001000003010601090105050505070549
:1001800008080808020202020A0A08080404040413
:10019000010101010101010103030303030303033F
:1001A000040707070C0C0C0C0C0C0C0C02020202CE
:1001B00006060606060606060B0B0B0B0B0B0B0BB7
:1001C0000102102020080810204010204080020169
:1001D000020108040201010204081020408080404E
:1001E000201008040201800402018040201008044D
:1001F00002010804020101020408102040800102EB
:1002000004081020408000000A0B02090C0D0E08A3
:1002100007030401000000000000000000000000CF
:1002200000000000000000000000000000000000CE
:10023000000012111000000000000000000000008B
:10024000000000000000000000000000ED08112484
:100250001FBECFEFD1E2DEBFCDBF00E00CBF13E089
:10026000A0E0B2E0EEE9F7E100E00BBF02C00790CA
:100270000D92A23EB107D9F724E0A2EEB3E001C08F
:100280001D92A935B207E1F711E0C7E2D1E000E025
:1002900006C021970109802FFE010E948C0AC632F8
:1002A000D10780E00807A9F70E94CA050C94CD0B7E
:1002B0000C9400008150823108F05AC0E82FF0E021
:1002C0008827EA59FE4F8F4F0C948C0A86018A01C9
:1002D00078017E018201B8018D01930197019D0192
:1002E000A101A501AB01AF01B801B301B901BD0185
:1002F000809180008F7780938000089580918000A6
:100300008F7DF9CF80918000877FF5CF84B58F777F
:1003100084BD089584B58F7DFBCF8091B0008F7729
:100320008093B00008958091B0008F7DF9CF8091C7
:1003300090008F77809390000895809190008F7D3A
:10034000F9CF80919000877FF5CF8091A0008F77C3
:100350008093A00008958091A0008F7DF9CF8091B7
:10036000A000877FF5CF809120018F7780932001B7
:100370000895809120018F7DF9CF80912001877FA2
:10038000F5CFCF93DF93282F30E0F901EA5FFD4FDF
:100390008491F901E054FE4FD491F901E658FE4FE3
:1003A000C491CC23A1F081110E945A01EC2FF0E0FE
:1003B000EE0FFF1FE05AFE4FA591B491EC91ED2393
:1003C00081E090E009F480E0DF91CF91089580E032
:1003D00090E0FACF1F93CF93DF93282F30E0F901FD
:1003E000EA5FFD4F8491F901E054FE4FD491F90189
:1003F000E658FE4FC491CC23A9F0162F81110E941C
:100400005A01EC2FF0E0EE0FFF1FEA5BFE4FA591C3
:10041000B4918FB7F894EC91111108C0D095DE23F8
:10042000DC938FBFDF91CF911F910895DE2BF8CF22
:10043000CF93DF9390E0FC01E054FE4F2491865867
:100440009E4FFC0184918823D1F090E0880F991F82
:10045000FC01E45DFE4FA591B491FC01EA5BFE4F07
:10046000C591D49161110EC09FB7F8948C91E22F81
:10047000E0958E238C932881E223E8839FBFDF9150
:10048000CF9108958FB7F894EC91E22BEC938FBF46
:10049000F6CF3FB7F8948091F1039091F203A091C9
:1004A000F303B091F40326B5A89B05C02F3F19F0C4
:1004B0000196A11DB11D3FBFBA2FA92F982F8827E4
:1004C000BC01CD01620F711D811D911D42E0660FBF
:1004D000771F881F991F4A95D1F708952FB7F89471
:1004E0006091ED037091EE038091EF039091F00322
:1004F0002FBF0895E091E803F091E90381818830EE
:1005000018F49081903120F081E08093E703089502
:100510000280F381E02D309739F021818213F8CFEA
:1005200020819213F5CFF0CF1092E7030895CF9278
:10053000DF92EF92FF920F931F93CF93DF931F925F
:100540001F92CDB7DEB769834A83880F991F009148
:10055000530410915404000F111FEDEFF3E09F01BD
:100560002D5F33402017310714F41192F8CF298101
:10057000FC01E350FC4F21838A81808360E08091FD
:1005800051040E94EA011016110604F501501109E8
:10059000F801E350FC4FE080D0904F04C0904D0430
:1005A00088E0F82E6E2D661F6627661F8C2D0E9430
:1005B000EA01EE0C61E08D2D0E94EA0160E08D2DD4
:1005C0000E94EA01FA94F110EDCFDDCF61E0809155
:1005D00051040F900F90DF91CF911F910F91FF90D9
:1005E000EF90DF90CF900C94EA01EF92FF921F936F
:1005F000CF93DF93209153043091540482179307D3
:10060000B4F4EC0123E0880F991F2A95E1F79C01CF
:10061000235F3B4F790111E0F70111927F0140E028
:10062000612FCE010E9497021F5F1930A9F7DF9159
:10063000CF911F91FF90EF90089588309105D8F5E4
:1006400068307105D0F4209153043091540412168F
:1006500013068CF520E830E002C0359527956A95A1
:10066000E2F7FC01E350FC4F4089422B408B61E0F4
:10067000680F90E080E00C94970268507109683030
:100680007105C8F42091530430915404223031058F
:1006900094F020E830E002C0359527956A95E2F79E
:1006A000FC01EB5FFB4F4089422B408B61E0680F00
:1006B00081E090E0E0CF08952F923F924F925F92B9
:1006C0006F927F928F929F92AF92BF92CF92DF9262
:1006D000EF92FF920F931F93CF93DF9300D000D040
:1006E000CDB7DEB78C017B012A013A83298390E0E4
:1006F00080E00E94F50281E090E00E94F502ED8228
:10070000FE82D12CC12CC20101979C838B83ED8189
:10071000FE8180819181019639F50E5F1F4FFFEFB9
:10072000CF1ADF0A8D819E8102969E838D834C14A1
:100730005D0469F780E026960FB6F894DEBF0FBE21
:10074000CDBFDF91CF911F910F91FF90EF90DF9080
:10075000CF90BF90AF909F908F907F906F905F9061
:100760004F903F902F900895380189819A81681A9F
:10077000790A90E169167104ECF682E0E82EF12C1A
:100780004301B12CA12CC7010297E5E0E89F1001BD
:10079000E99F300C1124F0E18F169104B8F4ED813B
:1007A000FE818081918129E1289FF001299FF00D30
:1007B0001124E20DF31DE15EFD4FEA0DFB1D80816A
:1007C000882321F0B401C7010E941D038FEFA81AEE
:1007D000B80A9FEF891A990AE5E0AE16B104D9F676
:1007E000FFEFEF1AFF0A27E0E216F10449F68CE06A
:1007F000681671042CF4EB81FC81EC15FD0519F0F1
:100800000A5F1F4F8CCF81E096CF2F923F924F927D
:100810005F926F927F928F929F92AF92BF92CF9290
:10082000DF92EF92FF920F931F93CF93DF9300D04D
:100830001F92CDB7DEB79C838B837B016A013A831D
:10084000298330E020E00E945C03312C212C280118
:10085000110F66087708811134C00E946E024B01A7
:100860005C018092F9039092FA03A092FB03B0928C
:10087000FC038091F5039091F603A091F703B091EA
:10088000F803A5019401281B390B4A0B5B0BDA0115
:10089000C90184159505A605B705F8F29101A601D1
:1008A000B7018B819C810E945C038092F50390923A
:1008B000F603A092F703B092F8033FEF231A330A2E
:1008C000CACF49815A816A01550FEE08FF080E947C
:1008D00049024B015C01C114D104E104F104B9F0F7
:1008E0000E944902681979098A099B09683E734088
:1008F0008105910580F351E0C51AD108E108F1089E
:1009000088EE880E83E0981EA11CB11CE4CF0F90E6
:100910000F900F900F90DF91CF911F910F91FF904B
:10092000EF90DF90CF90BF90AF909F908F907F908F
:100930006F905F904F903F902F900895CF93DF93EB
:1009400090E080E00E94F50281E090E00E94F502D4
:100950006091E4037091E5038091E2039091E303D9
:100960000E941D03C091E803D091E903209751F044
:10097000688170E0898190E00E941D030A80DB811C
:10098000C02DF4CFDF91CF9108958F929F92AF92B7
:10099000BF92CF92DF92EF92FF9280E1882E912C4E
:1009A000A12CB12C98E0C92ED12CE12CF12CE09196
:1009B000E803F091E9038091E4039091E50320912D
:1009C000E2033091E303309709F14081481719069B
:1009D00021F441814217130621F00280F381E02DBA
:1009E000F2CF0E94BD09A50194010E94150A7093DF
:1009F000E5036093E4030E94BD09A70196010E94EC
:100A0000150A7093E3036093E203D1CFFF90EF9058
:100A1000DF90CF90BF90AF909F908F900895CF932D
:100A2000DF93C82FD62F84E090E00E94A80AFC0133
:100A3000D083C1838091E8039091E90393838283FB
:100A4000F093E903E093E803DF91CF910895E091FB
:100A5000E803F091E90391812081809104028C34B4
:100A6000E1F16CF58434A9F181814091E203509168
:100A7000E3038417150699F560814091E4035091D2
:100A8000E5036417150659F5918320830E940F052D
:100A90000E94C5048091EA039091EB030196909324
:100AA000EB038093EA038091000290910102499741
:100AB00097FF21C010920102109200020895823522
:100AC00021F0853589F68FEF05C081E0820F8083A4
:100AD000CBCF81E0890F8183C7CF8FEFF7CF028023
:100AE000F381E02D309759F081813081918320830B
:100AF000232F982FF4CF9093010280930002089542
:100B00001F920F920FB60F9211242F933F938F9342
:100B10009F93AF93BF938091ED039091EE03A091CB
:100B2000EF03B091F0033091EC0323E0230F2D3756
:100B300058F50196A11DB11D2093EC038093ED03A0
:100B40009093EE03A093EF03B093F0038091F10331
:100B50009091F203A091F303B091F4030196A11DCB
:100B6000B11D8093F1039093F203A093F303B0932C
:100B7000F403BF91AF919F918F913F912F910F906F
:100B80000FBE0F901F90189526E8230F0296A11D07
:100B9000B11DD2CFCF93DF93CDB7DEB768970FB635
:100BA000F894DEBF0FBECDBF789484B5826084BD5B
:100BB00084B5816084BD85B5826085BD85B5816061
:100BC00085BD80916E00816080936E0010928100DF
:100BD000809181008260809381008091810081609A
:100BE000809381008091800081608093800080915B
:100BF000B10084608093B1008091B00081608093E7
:100C0000B00080919100826080939100809191006A
:100C1000816080939100809190008160809390002A
:100C20008091A10082608093A1008091A1008160E9
:100C30008093A1008091A00081608093A0008091AA
:100C40002101826080932101809121018160809344
:100C500021018091200181608093200180917A00A0
:100C6000846080937A0080917A00826080937A0019
:100C700080917A00816080937A0080917A00806808
:100C800080937A001092C1008AE0EFE0F2E0DE018A
:100C9000119601900D928A95E1F78E010F5F1F4F1B
:100CA0007E012BE0E20EF11CF80180810E5F1F4FE8
:100CB00060E00E941802E016F106B1F7809153043B
:100CC000909154041816190634F441E06CE090E059
:100CD00080E00E94970280915304909154040297FF
:100CE00034F041E06CE081E090E00E949702809156
:100CF0005304909154041816190634F44FE06AE036
:100D000090E080E00E9497028091530490915404F7
:100D1000029734F04FE06AE081E090E00E94970291
:100D200010E061E0812F0E9418021F5F1830C9F7A0
:100D30001EE061E0812F0E9418021F5F1631C9F783
:100D400010E060E0812F0E94EA011F5F1830C9F7B0
:100D50001EE061E0812F0E94EA011F5F1631C9F792
:100D60004AE0242E312C58E0852E912CA12CB12C58
:100D700033E0432E512C612C712C0E946E02609343
:100D8000F5037093F6038093F7039093F80386E0DE
:100D9000E9E1F2E0DE01119601900D928A95E1F70A
:100DA00004E610E030E020E043E050E0BE016F5F79
:100DB0007F4F81E090E00E94050481E090E09093F5
:100DC0000302809302020E946E026B017C01C092BA
:100DD000F903D092FA03E092FB03F092FC038091B6
:100DE000F5039091F603A091F703B091F803A701E2
:100DF0009601281B390B4A0B5B0BDA01C9018C32B7
:100E00009140A105B105F8F28AE00E94C101019765
:100E100009F44EC087E10E94C1018130910571F54E
:100E200020910202309103022F5F3F4F25303105A0
:100E30009CF53093030220930202C092F503D092F6
:100E4000F603E092F703F092F8038091020290918A
:100E50000302B1010E94780A7A8369839E838D839D
:100E600004E610E030E020E043E050E0BE016F5FB8
:100E70007F4F81E090E00E940504A5CF89E10E94A8
:100E8000C101019709F09FCF809102029091030266
:100E90000197181619062CF490930302809302020E
:100EA000CCCF44E050E05093030240930202C5CF00
:100EB0001092EB031092EA030E94C5041092E9031A
:100EC0001092E80382E5809304020E946E0261158D
:100ED00071058105910511F00E940C0A0E94BD095F
:100EE00022E030E040E050E00E94150A8B010E94B1
:100EF000BD09A50194010E94150AF62E01301105C5
:100F000011F408E010E0602F8F2D0E940F0561E0C2
:100F1000600F8F2D0E940F05209102023091030275
:100F2000032E000C440B550B215031094109510986
:100F3000AEE3BEEF0E94420AA30192010E94150A8D
:100F40002C503E4F4F4F5F4F3093010220930002D1
:100F50000E949E040E946E026093F5037093F60354
:100F60008093F7039093F8031092E703CC24C39483
:100F700082E5D82E9CE4E92E24E4F22E8091E7034A
:100F80008111E5C00E946E026093F9037093FA0329
:100F90008093FB039093FC030091F5031091F603FB
:100FA0002091F7033091F803601B710B820B930BB8
:100FB0006C32714081059105C0F11091E6038AE021
:100FC0000E94C101019709F08CC011118AC0809163
:100FD000EA039091EB03EFEFFFEFFC83EB83B101AA
:100FE0000E94780A7A8369839E838D8310E000E0F3
:100FF00030E020E043E050E0BE016F5F7F4F81E0D2
:1010000090E00E940504C092E6038091F90390915C
:10101000FA03A091FB03B091FC038093F503909336
:10102000F603A093F703B093F8038091E6038111D0
:10103000A5CF87E10E94C101019709F060C08091AE
:101040000402853599F0F5E5F09304020E94270526
:101050000E947A020E949E040E946E026093F50331
:101060007093F6038093F7039093F8030E946E0247
:101070006093F9037093FA038093FB039093FC034E
:101080000091F5031091F6032091F7033091F803D6
:10109000601B710B820B930B0091000210910102F7
:1010A000012E000C220B330B601771078207930788
:1010B00008F464CF0E9427050E947A020E949E04D1
:1010C0008091F9039091FA03A091FB03B091FC0386
:1010D0008093F5039093F603A093F703B093F8037E
:1010E0004DCF8AE00E94C101019709F09ECF1123E4
:1010F00009F49FCF0E949E041092E60386CF89E1F7
:101100000E94C101019741F480910402843409F4E2
:10111000ADCFF09204029ACF8CE10E94C1010197F9
:1011200041F4809104028C3409F4A0CFE0920402CF
:101130008DCF8EE10E94C101019709F097CF809178
:101140000402823509F492CFD09204027FCF8091BD
:10115000EA039091EB032AE030E03A8329832BE005
:1011600030E03C832B832CE030E03E832D832DE068
:1011700030E038872F834FEF5FEF5A8749874EE083
:1011800050E05C874B874FE050E05E874D87388B9F
:101190002F8720E130E03A8B298B21E130E03C8B36
:1011A0002B8BB1010E94780A7E8B6D8B988F8F8B71
:1011B00004E610E02CEB32E04CE050E0BE016F5F43
:1011C0007F4F90E080E00E94050480E090E0892B52
:1011D00009F4D3CD0E940000CBCDCF93DF930E94C2
:1011E000BD0920E130E040E050E00E94150A709314
:1011F000E5036093E4030E94BD0928E030E040E08D
:1012000050E00E94150A7093E3036093E203CDE07F
:10121000D0E0D0934E04C0934D048BE090E09093C7
:10122000500480934F048CE090E09093520480939C
:10123000510482E090E0909354048093530461E061
:101240008DE00E94180261E080914F040E94180214
:1012500061E0809151040E94180261E08091510484
:101260000E94EA01D0934E04C0934D04EDE0F4E0F7
:101270008DE494E011928E179F07E1F7D0E0C0E073
:101280008091530490915404C817D9073CF540E06D
:101290006FE0CE010E949702809153049091540414
:1012A000C817D9072CF447E06BE0CE010E949702E3
:1012B00040E069E0CE010E949702CE010E94F50253
:1012C0008091530490915404C817D9072CF440E03E
:1012D0006CE0CE010E9497022196D2CFDF91CF9190
:1012E00008958F929F92AF92BF92CF92DF92EF922A
:1012F000FF92CF93DF93EC01688179818A819B8192
:10130000611571058105910521F464E279ED8BE5A4
:1013100097E02DE133EF41E050E00E94150A4901CA
:101320005A019B01AC01A7EAB1E40E94340A6B01A7
:101330007C01ACEEB4EFA50194010E94420AC60EF6
:10134000D71EE81EF91EF7FE06C081E0C81AD108B4
:10135000E10880E8F80AC882D982EA82FB82C701E4
:10136000B6019F77DF91CF91FF90EF90DF90CF9004
:10137000BF90AF909F908F9008958F929F92AF9261
:10138000BF92CF92DF92EF92FF926091050270912F
:10139000060280910702909108026115710581058E
:1013A000910521F464E279ED8BE597E02DE133EFCF
:1013B00041E050E00E94150A49015A019B01AC012D
:1013C000A7EAB1E40E94340A6B017C01ACEEB4EFF1
:1013D000A50194010E94420AC60ED71EE81EF91EFE
:1013E000F7FE06C081E0C81AD108E10880E8F80AD3
:1013F000C0920502D0920602E0920702F092080223
:10140000C701B6019F77FF90EF90DF90CF90BF901C
:10141000AF909F908F90089560930502709306029D
:1014200080930702909308020895052E97FB1EF4FF
:1014300000940E942C0A57FD07D00E94470A07FC1F
:1014400003D04EF40C942C0A50954095309521957C
:101450003F4F4F4F5F4F08959095809570956195E0
:101460007F4F8F4F9F4F08950E94690AA59F900D4F
:10147000B49F900DA49F800D911D11240895B7FF76
:101480000C94340A0E94340A821B930B0895A1E243
:101490001A2EAA1BBB1BFD010DC0AA1FBB1FEE1FEE
:1014A000FF1FA217B307E407F50720F0A21BB30B39
:1014B000E40BF50B661F771F881F991F1A9469F7B5
:1014C00060957095809590959B01AC01BD01CF0111
:1014D0000895A29FB001B39FC001A39F700D811D0D
:1014E0001124911DB29F700D811D1124911D08952D
:1014F00097FB072E16F4009407D077FD09D00E94C1
:10150000940A07FC05D03EF4909581959F4F08956D
:10151000709561957F4F0895EE0FFF1F881F8BBF59
:101520000790F691E02D1994AA1BBB1B51E107C04F
:10153000AA1FBB1FA617B70710F0A61BB70B881F63
:10154000991F5A95A9F780959095BC01CD010895F2
:101550000F931F93CF93DF938230910510F482E0B5
:1015600090E0E0915704F091580430E020E0B0E0C2
:10157000A0E0309799F42115310509F44AC0281BE1
:10158000390B24303105D8F58A819B8161157105AD
:1015900089F1FB0193838283FE0111C04081518157
:1015A0000281138148175907E0F04817590799F449
:1015B000109761F012960C93129713961C93329623
:1015C000CF01DF91CF911F910F91089500935704A0
:1015D00010935804F4CF2115310551F042175307E9
:1015E00038F0A901DB019A01BD01DF01F801C1CF8B
:1015F000EF01F9CF9093580480935704CDCFFE01AB
:10160000E20FF31F8193919322503109398328838C
:10161000D7CF2091550430915604232B41F42091CB
:101620000B0230910C023093560420935504209104
:10163000090230910A022115310541F42DB73EB758
:1016400040910D0250910E02241B350BE091550480
:10165000F0915604E217F307A0F42E1B3F0B281756
:10166000390778F0AC014E5F5F4F2417350748F01B
:101670004E0F5F1F509356044093550481939193EE
:101680009FCFF0E0E0E09CCFCF93DF930097E9F0AD
:10169000FC01329713821282A0915704B091580432
:1016A000ED0130E020E01097A1F420813181820F1C
:1016B000931F20915504309156042817390709F0DB
:1016C00061C0F0935604E0935504DF91CF910895E3
:1016D000EA01CE17DF07E8F54A815B819E014115DB
:1016E0005105B1F7E901FB83EA8349915991C40F90
:1016F000D51FEC17FD0761F4808191810296840F5C
:10170000951FE90199838883828193819B838A83D2
:10171000F0E0E0E012968D919C9113970097B9F557
:101720002D913C911197CD010296820F931F20912C
:101730005504309156042817390739F6309751F57A
:101740001092580410925704B0935604A093550475
:10175000BCCFD383C28340815181840F951FC817AA
:10176000D90761F44E5F5F4F88819981480F591FF7
:10177000518340838A819B81938382832115310524
:1017800009F0B0CFF0935804E09357049ECFFD01C9
:0E179000DC01C0CF13821282D7CFF894FFCFB6
:10179E00F4010100520100000000005904800017FE
:1017AE000019001C001E000A000000FFFF010000CF
:1017BE000101010001000001010100010001010110
:1017CE000000010001010100000101000000000104
:1017DE0000000000010000000001000000010101F6
:1017EE0000010101010000000000010001010100E3
:1017FE0001000000000101010101010101010000D1
:10180E0000000001000001010000000000010101C4
:10181E0001010000000101000001000100010000B3
:10182E00010001010101010000000100010101019F
:10183E000101000000000101010100000000000193
:10184E000101010100000101010101000000000180
:10185E000101010001000000010001010100010170
:10186E000101010000000001000000010000000164
:10187E000000000100000000010101000100000055
:10188E000100010101000100000001000101010041
:10189E000001010100010000000100010101010031
:1018AE000000000101010101000001010101010020
:1018BE000000000100000101010000000100010113
:1018CE000101000001000000010001000100000004
:1018DE0001010101010101000000010100000001F0
:1018EE0001010001010100010001010000000101E0
:1018FE0000000001010101010101000000000101D1
:10190E0001000001000000000101010101000101C0
:10191E0001000100000001010000000101000000B3
:10192E0001000101010001000000010100000001A1
:10193E000100000001000100010000000100000193
:10194E00010101000100000001010101010001007F
:10195E000000010100000001000000000000000076
:10196E000000000101010000000000000000000066
:02197E00000067
:00000001FF
